{
  "contractName": "Vote",
  "abi": [
    {
      "inputs": [],
      "payable": false,
      "stateMutability": "nonpayable",
      "type": "constructor"
    },
    {
      "anonymous": false,
      "inputs": [
        {
          "indexed": true,
          "internalType": "address",
          "name": "_from",
          "type": "address"
        },
        {
          "indexed": true,
          "internalType": "address",
          "name": "_to",
          "type": "address"
        },
        {
          "indexed": false,
          "internalType": "uint256",
          "name": "amount",
          "type": "uint256"
        }
      ],
      "name": "Transfer",
      "type": "event"
    },
    {
      "anonymous": false,
      "inputs": [
        {
          "indexed": true,
          "internalType": "address",
          "name": "_voter",
          "type": "address"
        },
        {
          "indexed": false,
          "internalType": "uint256",
          "name": "id",
          "type": "uint256"
        },
        {
          "indexed": false,
          "internalType": "bool",
          "name": "votesYay",
          "type": "bool"
        }
      ],
      "name": "Voted",
      "type": "event"
    },
    {
      "constant": true,
      "inputs": [
        {
          "internalType": "uint256",
          "name": "",
          "type": "uint256"
        }
      ],
      "name": "Proposals",
      "outputs": [
        {
          "internalType": "uint256",
          "name": "id",
          "type": "uint256"
        },
        {
          "internalType": "address",
          "name": "proposer",
          "type": "address"
        },
        {
          "internalType": "string",
          "name": "title",
          "type": "string"
        },
        {
          "internalType": "uint256",
          "name": "yay_count",
          "type": "uint256"
        },
        {
          "internalType": "uint256",
          "name": "nay_count",
          "type": "uint256"
        },
        {
          "internalType": "uint256",
          "name": "deposit_balance",
          "type": "uint256"
        },
        {
          "internalType": "uint256",
          "name": "begin_block_number",
          "type": "uint256"
        },
        {
          "internalType": "uint256",
          "name": "end_block_number",
          "type": "uint256"
        }
      ],
      "payable": false,
      "stateMutability": "view",
      "type": "function"
    },
    {
      "constant": true,
      "inputs": [],
      "name": "admin",
      "outputs": [
        {
          "internalType": "address",
          "name": "",
          "type": "address"
        }
      ],
      "payable": false,
      "stateMutability": "view",
      "type": "function"
    },
    {
      "constant": true,
      "inputs": [],
      "name": "total_proposals",
      "outputs": [
        {
          "internalType": "uint256",
          "name": "",
          "type": "uint256"
        }
      ],
      "payable": false,
      "stateMutability": "view",
      "type": "function"
    },
    {
      "constant": false,
      "inputs": [
        {
          "internalType": "string",
          "name": "title",
          "type": "string"
        },
        {
          "internalType": "uint256",
          "name": "endOffset",
          "type": "uint256"
        }
      ],
      "name": "create",
      "outputs": [
        {
          "internalType": "uint256",
          "name": "",
          "type": "uint256"
        }
      ],
      "payable": true,
      "stateMutability": "payable",
      "type": "function"
    },
    {
      "constant": false,
      "inputs": [
        {
          "internalType": "uint256",
          "name": "id",
          "type": "uint256"
        },
        {
          "internalType": "bool",
          "name": "votesYay",
          "type": "bool"
        }
      ],
      "name": "vote",
      "outputs": [
        {
          "internalType": "bool",
          "name": "success",
          "type": "bool"
        }
      ],
      "payable": true,
      "stateMutability": "payable",
      "type": "function"
    }
  ],
  "bytecode": "0x608060405234801561001057600080fd5b50336000806101000a81548173ffffffffffffffffffffffffffffffffffffffff021916908373ffffffffffffffffffffffffffffffffffffffff1602179055506110c9806100606000396000f3fe60806040526004361061004a5760003560e01c806346f81a871461004f57806385d7305e14610128578063c9d27afe14610153578063d1dbe7d8146101a5578063f851a440146102b6575b600080fd5b6101126004803603604081101561006557600080fd5b810190808035906020019064010000000081111561008257600080fd5b82018360208201111561009457600080fd5b803590602001918460018302840111640100000000831117156100b657600080fd5b91908080601f016020809104026020016040519081016040528093929190818152602001838380828437600081840152601f19601f8201169050808301925050505050505091929192908035906020019092919050505061030d565b6040518082815260200191505060405180910390f35b34801561013457600080fd5b5061013d61073d565b6040518082815260200191505060405180910390f35b61018b6004803603604081101561016957600080fd5b8101908080359060200190929190803515159060200190929190505050610743565b604051808215151515815260200191505060405180910390f35b3480156101b157600080fd5b506101de600480360360208110156101c857600080fd5b8101908080359060200190929190505050610dbd565b604051808981526020018873ffffffffffffffffffffffffffffffffffffffff1673ffffffffffffffffffffffffffffffffffffffff16815260200180602001878152602001868152602001858152602001848152602001838152602001828103825288818151815260200191508051906020019080838360005b83811015610274578082015181840152602081019050610259565b50505050905090810190601f1680156102a15780820380516001836020036101000a031916815260200191505b50995050505050505050505060405180910390f35b3480156102c257600080fd5b506102cb610ebd565b604051808273ffffffffffffffffffffffffffffffffffffffff1673ffffffffffffffffffffffffffffffffffffffff16815260200191505060405180910390f35b600066038d7ea4c6800034101561036f576040517f08c379a000000000000000000000000000000000000000000000000000000000815260040180806020018281038252602d815260200180611045602d913960400191505060405180910390fd5b600082116103e5576040517f08c379a000000000000000000000000000000000000000000000000000000000815260040180806020018281038252601a8152602001807f456e6420626c6f636b206e756d62657220756e646566696e656400000000000081525060200191505060405180910390fd5b60006103fc60018054610ee290919063ffffffff16565b905080600181905550600061041a8443610ee290919063ffffffff16565b9050610424610f44565b6040518061010001604052808481526020013373ffffffffffffffffffffffffffffffffffffffff16815260200187815260200134815260200160008152602001348152602001438152602001838152509050806002600060015481526020019081526020016000206000820151816000015560208201518160010160006101000a81548173ffffffffffffffffffffffffffffffffffffffff021916908373ffffffffffffffffffffffffffffffffffffffff16021790555060408201518160020190805190602001906104fa929190610f9f565b50606082015181600301556080820151816004015560a0820151816005015560c0820151816006015560e08201518160070155905050600560008260e001518152602001908152602001600020839080600181540180825580915050906001820390600052602060002001600090919290919091505550346006600085815260200190815260200160002060003373ffffffffffffffffffffffffffffffffffffffff1673ffffffffffffffffffffffffffffffffffffffff1681526020019081526020016000208190555060016003600085815260200190815260200160002060003373ffffffffffffffffffffffffffffffffffffffff1673ffffffffffffffffffffffffffffffffffffffff16815260200190815260200160002060006101000a81548160ff0219169083600281111561063357fe5b02179055506004600084815260200190815260200160002060006001600281111561065a57fe5b81526020019081526020016000203390806001815401808255809150509060018203906000526020600020016000909192909190916101000a81548173ffffffffffffffffffffffffffffffffffffffff021916908373ffffffffffffffffffffffffffffffffffffffff160217905550503073ffffffffffffffffffffffffffffffffffffffff163373ffffffffffffffffffffffffffffffffffffffff167fddf252ad1be2c89b69c2b068fc378daa952ba7f163c4a11628f55a4df523b3ef346040518082815260200191505060405180910390a382935050505092915050565b60015481565b60006001548311156107bd576040517f08c379a00000000000000000000000000000000000000000000000000000000081526004018080602001828103825260108152602001807f496e76616c69642070726f706f73616c0000000000000000000000000000000081525060200191505060405180910390fd5b600060028111156107ca57fe5b6003600085815260200190815260200160002060003373ffffffffffffffffffffffffffffffffffffffff1673ffffffffffffffffffffffffffffffffffffffff16815260200190815260200160002060009054906101000a900460ff16600281111561083357fe5b146108a6576040517f08c379a00000000000000000000000000000000000000000000000000000000081526004018080602001828103825260128152602001807f43616e206e6f7420766f7465207477696365000000000000000000000000000081525060200191505060405180910390fd5b600060026000858152602001908152602001600020905043816007015411610936576040517f08c379a000000000000000000000000000000000000000000000000000000000815260040180806020018281038252601c8152602001807f50726f706f73616c206973206e6f206c6f6e676572206163746976650000000081525060200191505060405180910390fd5b66038d7ea4c68000341015610996576040517f08c379a000000000000000000000000000000000000000000000000000000000815260040180806020018281038252602d815260200180611045602d913960400191505060405180910390fd5b6000610a336064610a25605a600660008a815260200190815260200160002060008760010160009054906101000a900473ffffffffffffffffffffffffffffffffffffffff1673ffffffffffffffffffffffffffffffffffffffff1673ffffffffffffffffffffffffffffffffffffffff16815260200190815260200160002054610efc90919063ffffffff16565b610f3090919063ffffffff16565b905080341115610a8e576040517f08c379a00000000000000000000000000000000000000000000000000000000081526004018080602001828103825260238152602001806110726023913960400191505060405180910390fd5b610aa5348360050154610ee290919063ffffffff16565b8260050181905550346006600087815260200190815260200160002060003373ffffffffffffffffffffffffffffffffffffffff1673ffffffffffffffffffffffffffffffffffffffff168152602001908152602001600020819055508315610c325760016003600087815260200190815260200160002060003373ffffffffffffffffffffffffffffffffffffffff1673ffffffffffffffffffffffffffffffffffffffff16815260200190815260200160002060006101000a81548160ff02191690836002811115610b7557fe5b021790555060046000868152602001908152602001600020600060016002811115610b9c57fe5b81526020019081526020016000203390806001815401808255809150509060018203906000526020600020016000909192909190916101000a81548173ffffffffffffffffffffffffffffffffffffffff021916908373ffffffffffffffffffffffffffffffffffffffff16021790555050610c25348360030154610ee290919063ffffffff16565b8260030181905550610d57565b60026003600087815260200190815260200160002060003373ffffffffffffffffffffffffffffffffffffffff1673ffffffffffffffffffffffffffffffffffffffff16815260200190815260200160002060006101000a81548160ff02191690836002811115610c9f57fe5b0217905550600460008681526020019081526020016000206000600280811115610cc557fe5b81526020019081526020016000203390806001815401808255809150509060018203906000526020600020016000909192909190916101000a81548173ffffffffffffffffffffffffffffffffffffffff021916908373ffffffffffffffffffffffffffffffffffffffff16021790555050610d4e348360040154610ee290919063ffffffff16565b82600401819055505b3373ffffffffffffffffffffffffffffffffffffffff167f749addf8eadeff63c43be59c27331be5c6d4fc9e82bbfbcf162321c9b35a95b4868660405180838152602001821515151581526020019250505060405180910390a260019250505092915050565b60026020528060005260406000206000915090508060000154908060010160009054906101000a900473ffffffffffffffffffffffffffffffffffffffff1690806002018054600181600116156101000203166002900480601f016020809104026020016040519081016040528092919081815260200182805460018160011615610100020316600290048015610e955780601f10610e6a57610100808354040283529160200191610e95565b820191906000526020600020905b815481529060010190602001808311610e7857829003601f168201915b5050505050908060030154908060040154908060050154908060060154908060070154905088565b6000809054906101000a900473ffffffffffffffffffffffffffffffffffffffff1681565b6000818301905082811015610ef357fe5b80905092915050565b600080831415610f0f5760009050610f2a565b818302905081838281610f1e57fe5b0414610f2657fe5b8090505b92915050565b6000818381610f3b57fe5b04905092915050565b60405180610100016040528060008152602001600073ffffffffffffffffffffffffffffffffffffffff1681526020016060815260200160008152602001600081526020016000815260200160008152602001600081525090565b828054600181600116156101000203166002900490600052602060002090601f016020900481019282601f10610fe057805160ff191683800117855561100e565b8280016001018555821561100e579182015b8281111561100d578251825591602001919060010190610ff2565b5b50905061101b919061101f565b5090565b61104191905b8082111561103d576000816000905550600101611025565b5090565b9056fe4465706f73697420646f6573206e6f74206d65657420746865206d696e696d756d20726571756972656d656e744465706f73697420657863656564656420746865206d6178696d756d20616d6f756e74a265627a7a723158208ea112d41d1057e069210441788fc9f80ce27b6d4dd4071b7ba328179a2c4d3164736f6c63430005100032",
  "source": "// Contract where users submit a proposal and cast votes, using staked ether.\n\npragma solidity ^0.5.0;\n\nimport \"./lib/SafeMath.sol\";\n\ncontract Vote {\n    \n    using SafeMath for uint256;\n    address public admin; // contract admin\n\n    constructor() public {\n        admin = msg.sender;\n    }\n\n    /**\n     * This struct defines the Proposal object.\n     * @param id - Unique identifier for the proposal.\n     * @param proposer - The address created the proposal.\n     * @param title - The description of the proposal.\n     * @param yay_count - Count votes in proportion to their deposit eth amount for the proposal.\n     * @param nay_count - Count votes in proportion to their deposit eth amount against the proposal.\n     * @param deposit_balance - The total amount of ETH deposited for the proposal.\n     * @param begin_block_number - The block number when the proposal is created.\n     * @param end_block_number - The block number when the proposal becomes inactive.\n     */\n    struct Proposal {\n        uint256 id;\n        address proposer;\n        string title;\n        uint256 yay_count;\n        uint256 nay_count;\n        uint256 deposit_balance;\n        uint256 begin_block_number;\n        uint256 end_block_number;\n    }\n\n    enum Voter_Status {\n        UNDECIDED,\n        YAY,\n        NAY\n    }\n\n    uint256 public total_proposals;\n    mapping (uint256 => Proposal) public Proposals; // Find the proposals with the given ID.\n    mapping (uint256 => mapping (address => Voter_Status)) private addressToVote; // Show votes given by address and id.\n    mapping (uint256 => mapping (uint => address[])) private voteToAddress; // Show the addresses correspond to a vote, requires id input.\n\n    // Keeping track of active proposals.\n    mapping (uint256 => uint256[]) private active_proposals; // block end number mapped to array of proposal ids.\n\n    // Keeping track of user deposited amount\n    mapping (uint256 => mapping(address => uint256)) private deposit;\n\n    event Transfer(address indexed _from, address indexed _to, uint256 amount); // Transfer of ETH event.\n    event Voted(address indexed _voter, uint256 id, bool votesYay); // Users cast votes event.\n\n    /**\n     * @dev Function to create a proposal, requires a minimum deposit amount of 0.001 ETH.\n     * @return The proposal id\n     */\n    function create(string memory title, uint endOffset) public payable returns(uint256) {\n        require(msg.value >= 0.001 ether, \"Deposit does not meet the minimum requirement\");\n        require(endOffset > 0, \"End block number undefined\");\n\n        uint id = total_proposals.add(1);\n        total_proposals = id;\n        uint endBlock = block.number.add(endOffset);\n        Proposal memory newProposal = Proposal(id, msg.sender, title, msg.value, 0, msg.value, block.number, endBlock);\n        Proposals[total_proposals] = newProposal;\n        active_proposals[newProposal.end_block_number].push(id);\n\n        deposit[id][msg.sender] = msg.value;\n\n        // Proposer votes yay by default.\n        addressToVote[id][msg.sender] = Voter_Status.YAY;\n        voteToAddress[id][uint(Voter_Status.YAY)].push(msg.sender);\n\n        emit Transfer(msg.sender, address(this), msg.value);\n\n        return id;\n    }\n\n    /**\n     * @dev Function to vote on a proposal.\n     */\n    function vote(uint256 id, bool votesYay) public payable returns(bool success) {\n        require(id <= total_proposals, \"Invalid proposal\");\n        require(addressToVote[id][msg.sender] == Voter_Status.UNDECIDED, \"Can not vote twice\");\n        Proposal storage proposal = Proposals[id];\n        require(proposal.end_block_number > block.number, \"Proposal is no longer active\");\n        require(msg.value >= 0.001 ether, \"Deposit does not meet the minimum requirement\");\n        uint maximum = deposit[id][proposal.proposer].mul(90).div(100); // voters can only deposit 90% of the proposer's amount at most -- prevention of whales.\n        require(msg.value <= maximum, \"Deposit exceeded the maximum amount\");\n\n        proposal.deposit_balance = proposal.deposit_balance.add(msg.value);\n        deposit[id][msg.sender] = msg.value;\n\n        if (votesYay) {\n            addressToVote[id][msg.sender] = Voter_Status.YAY;\n            voteToAddress[id][uint(Voter_Status.YAY)].push(msg.sender);\n            proposal.yay_count = proposal.yay_count.add(msg.value);\n        }\n        else {\n            addressToVote[id][msg.sender] = Voter_Status.NAY;\n            voteToAddress[id][uint(Voter_Status.NAY)].push(msg.sender);\n            proposal.nay_count = proposal.nay_count.add(msg.value);\n        }\n\n        emit Voted(msg.sender, id, votesYay);\n\n        return true;\n    }\n\n}",
  "sourcePath": "/mnt/d/Coding Assignment-Advanca/advanca_voting_dApp/src/contracts/Vote.sol",
  "compiler": {
    "name": "solc",
    "version": "0.5.16+commit.9c3226ce.Emscripten.clang"
  },
  "schemaVersion": "3.3.2",
  "updatedAt": "2021-03-12T06:05:09.862Z",
  "devdoc": {
    "methods": {
      "create(string,uint256)": {
        "details": "Function to create a proposal, requires a minimum deposit amount of 0.001 ETH.",
        "return": "The proposal id"
      },
      "vote(uint256,bool)": {
        "details": "Function to vote on a proposal."
      }
    }
  },
  "userdoc": {
    "methods": {}
  }
}