{
  "contractName": "Vote",
  "abi": [
    {
      "inputs": [],
      "payable": false,
      "stateMutability": "nonpayable",
      "type": "constructor"
    },
    {
      "anonymous": false,
      "inputs": [
        {
          "indexed": false,
          "internalType": "uint256",
          "name": "id",
          "type": "uint256"
        }
      ],
      "name": "EndOfProposal",
      "type": "event"
    },
    {
      "anonymous": false,
      "inputs": [
        {
          "indexed": true,
          "internalType": "address",
          "name": "_from",
          "type": "address"
        },
        {
          "indexed": true,
          "internalType": "address",
          "name": "_to",
          "type": "address"
        },
        {
          "indexed": false,
          "internalType": "uint256",
          "name": "amount",
          "type": "uint256"
        }
      ],
      "name": "Transfer",
      "type": "event"
    },
    {
      "anonymous": false,
      "inputs": [
        {
          "indexed": true,
          "internalType": "address",
          "name": "_voter",
          "type": "address"
        },
        {
          "indexed": false,
          "internalType": "uint256",
          "name": "id",
          "type": "uint256"
        },
        {
          "indexed": false,
          "internalType": "bool",
          "name": "votesYay",
          "type": "bool"
        }
      ],
      "name": "Voted",
      "type": "event"
    },
    {
      "constant": true,
      "inputs": [
        {
          "internalType": "uint256",
          "name": "",
          "type": "uint256"
        }
      ],
      "name": "Proposals",
      "outputs": [
        {
          "internalType": "uint256",
          "name": "id",
          "type": "uint256"
        },
        {
          "internalType": "address",
          "name": "proposer",
          "type": "address"
        },
        {
          "internalType": "string",
          "name": "title",
          "type": "string"
        },
        {
          "internalType": "uint256",
          "name": "yay_count",
          "type": "uint256"
        },
        {
          "internalType": "uint256",
          "name": "nay_count",
          "type": "uint256"
        },
        {
          "internalType": "uint256",
          "name": "deposit_balance",
          "type": "uint256"
        },
        {
          "internalType": "uint256",
          "name": "begin_block_number",
          "type": "uint256"
        },
        {
          "internalType": "uint256",
          "name": "end_block_number",
          "type": "uint256"
        }
      ],
      "payable": false,
      "stateMutability": "view",
      "type": "function"
    },
    {
      "constant": true,
      "inputs": [],
      "name": "admin",
      "outputs": [
        {
          "internalType": "address",
          "name": "",
          "type": "address"
        }
      ],
      "payable": false,
      "stateMutability": "view",
      "type": "function"
    },
    {
      "constant": true,
      "inputs": [],
      "name": "endProp_count",
      "outputs": [
        {
          "internalType": "uint256",
          "name": "",
          "type": "uint256"
        }
      ],
      "payable": false,
      "stateMutability": "view",
      "type": "function"
    },
    {
      "constant": true,
      "inputs": [],
      "name": "lastBlockNumber",
      "outputs": [
        {
          "internalType": "uint256",
          "name": "",
          "type": "uint256"
        }
      ],
      "payable": false,
      "stateMutability": "view",
      "type": "function"
    },
    {
      "constant": true,
      "inputs": [],
      "name": "total_proposals",
      "outputs": [
        {
          "internalType": "uint256",
          "name": "",
          "type": "uint256"
        }
      ],
      "payable": false,
      "stateMutability": "view",
      "type": "function"
    },
    {
      "constant": true,
      "inputs": [
        {
          "internalType": "uint256",
          "name": "",
          "type": "uint256"
        }
      ],
      "name": "winVotes",
      "outputs": [
        {
          "internalType": "enum Vote.Voter_Status",
          "name": "",
          "type": "uint8"
        }
      ],
      "payable": false,
      "stateMutability": "view",
      "type": "function"
    },
    {
      "constant": false,
      "inputs": [
        {
          "internalType": "string",
          "name": "title",
          "type": "string"
        },
        {
          "internalType": "uint256",
          "name": "endOffset",
          "type": "uint256"
        }
      ],
      "name": "create",
      "outputs": [
        {
          "internalType": "uint256",
          "name": "",
          "type": "uint256"
        }
      ],
      "payable": true,
      "stateMutability": "payable",
      "type": "function"
    },
    {
      "constant": false,
      "inputs": [
        {
          "internalType": "uint256",
          "name": "id",
          "type": "uint256"
        },
        {
          "internalType": "bool",
          "name": "votesYay",
          "type": "bool"
        }
      ],
      "name": "vote",
      "outputs": [
        {
          "internalType": "bool",
          "name": "success",
          "type": "bool"
        }
      ],
      "payable": true,
      "stateMutability": "payable",
      "type": "function"
    },
    {
      "constant": false,
      "inputs": [],
      "name": "updateEthEarned",
      "outputs": [
        {
          "internalType": "uint256",
          "name": "",
          "type": "uint256"
        }
      ],
      "payable": false,
      "stateMutability": "nonpayable",
      "type": "function"
    },
    {
      "constant": true,
      "inputs": [],
      "name": "get_withdraw",
      "outputs": [
        {
          "internalType": "uint256",
          "name": "",
          "type": "uint256"
        }
      ],
      "payable": false,
      "stateMutability": "view",
      "type": "function"
    },
    {
      "constant": true,
      "inputs": [],
      "name": "get_staked",
      "outputs": [
        {
          "internalType": "uint256",
          "name": "",
          "type": "uint256"
        }
      ],
      "payable": false,
      "stateMutability": "view",
      "type": "function"
    },
    {
      "constant": false,
      "inputs": [],
      "name": "withdrawEth",
      "outputs": [
        {
          "internalType": "bool",
          "name": "success",
          "type": "bool"
        }
      ],
      "payable": true,
      "stateMutability": "payable",
      "type": "function"
    }
  ],
  "bytecode": "0x608060405234801561001057600080fd5b50336000806101000a81548173ffffffffffffffffffffffffffffffffffffffff021916908373ffffffffffffffffffffffffffffffffffffffff160217905550612b38806100606000396000f3fe6080604052600436106100a75760003560e01c8063871fd77611610064578063871fd7761461025c578063a0ef91df146102b9578063c9d27afe146102db578063d1dbe7d81461032d578063e0eb62281461043e578063f851a44014610469576100a7565b80632552317c146100ac5780632aa50b04146100d75780633bdb6e6e1461010257806346f81a871461012d5780635d613d431461020657806385d7305e14610231575b600080fd5b3480156100b857600080fd5b506100c16104c0565b6040518082815260200191505060405180910390f35b3480156100e357600080fd5b506100ec6104c6565b6040518082815260200191505060405180910390f35b34801561010e57600080fd5b506101176104cc565b6040518082815260200191505060405180910390f35b6101f06004803603604081101561014357600080fd5b810190808035906020019064010000000081111561016057600080fd5b82018360208201111561017257600080fd5b8035906020019184600183028401116401000000008311171561019457600080fd5b91908080601f016020809104026020016040519081016040528093929190818152602001838380828437600081840152601f19601f820116905080830192505050505050509192919290803590602001909291905050506108c3565b6040518082815260200191505060405180910390f35b34801561021257600080fd5b5061021b6110d0565b6040518082815260200191505060405180910390f35b34801561023d57600080fd5b50610246611117565b6040518082815260200191505060405180910390f35b34801561026857600080fd5b506102956004803603602081101561027f57600080fd5b810190808035906020019092919050505061111d565b604051808260028111156102a557fe5b60ff16815260200191505060405180910390f35b6102c161113d565b604051808215151515815260200191505060405180910390f35b610313600480360360408110156102f157600080fd5b8101908080359060200190929190803515159060200190929190505050611698565b604051808215151515815260200191505060405180910390f35b34801561033957600080fd5b506103666004803603602081101561035057600080fd5b81019080803590602001909291905050506120f4565b604051808981526020018873ffffffffffffffffffffffffffffffffffffffff1673ffffffffffffffffffffffffffffffffffffffff16815260200180602001878152602001868152602001858152602001848152602001838152602001828103825288818151815260200191508051906020019080838360005b838110156103fc5780820151818401526020810190506103e1565b50505050905090810190601f1680156104295780820380516001836020036101000a031916815260200191505b50995050505050505050505060405180910390f35b34801561044a57600080fd5b506104536121f4565b6040518082815260200191505060405180910390f35b34801561047557600080fd5b5061047e61223b565b604051808273ffffffffffffffffffffffffffffffffffffffff1673ffffffffffffffffffffffffffffffffffffffff16815260200191505060405180910390f35b60065481565b60055481565b60008043905060006104ea600160065461226090919063ffffffff16565b90505b81811161086b5760606003600083815260200190815260200160002080548060200260200160405190810160405280929190818152602001828054801561055357602002820191906000526020600020905b81548152602001906001019080831161053f575b5050505050905060008151905060008090505b8181101561083c57600083828151811061057c57fe5b6020026020010151905061058e612992565b6002600083815260200190815260200160002060405180610100016040529081600082015481526020016001820160009054906101000a900473ffffffffffffffffffffffffffffffffffffffff1673ffffffffffffffffffffffffffffffffffffffff1673ffffffffffffffffffffffffffffffffffffffff168152602001600282018054600181600116156101000203166002900480601f0160208091040260200160405190810160405280929190818152602001828054600181600116156101000203166002900480156106a65780601f1061067b576101008083540402835291602001916106a6565b820191906000526020600020905b81548152906001019060200180831161068957829003601f168201915b5050505050815260200160038201548152602001600482015481526020016005820154815260200160068201548152602001600782015481525050905080608001518160600151111561072d5760016008600084815260200190815260200160002060006101000a81548160ff0219169083600281111561072357fe5b02179055506107ae565b8060800151816060015110156107775760026008600084815260200190815260200160002060006101000a81548160ff0219169083600281111561076d57fe5b02179055506107ad565b60006008600084815260200190815260200160002060006101000a81548160ff021916908360028111156107a757fe5b02179055505b5b60048290806001815401808255809150509060018203906000526020600020016000909192909190915055506107f0600160055461226090919063ffffffff16565b6005819055507fdeb3fef274c9d29355266cba0a3c2a52d67eb1ef404a207ba6ef5916ba102090826040518082815260200191505060405180910390a150508080600101915050610566565b5060036000848152602001908152602001600020600061085c91906129ed565b505080806001019150506104ed565b508060068190555060008090505b6004805490508110156108b4576108a7336004838154811061089757fe5b906000526020600020015461227a565b8080600101915050610879565b506108bd6121f4565b91505090565b60008043905060006108e1600160065461226090919063ffffffff16565b90505b818111610c625760606003600083815260200190815260200160002080548060200260200160405190810160405280929190818152602001828054801561094a57602002820191906000526020600020905b815481526020019060010190808311610936575b5050505050905060008151905060008090505b81811015610c3357600083828151811061097357fe5b60200260200101519050610985612992565b6002600083815260200190815260200160002060405180610100016040529081600082015481526020016001820160009054906101000a900473ffffffffffffffffffffffffffffffffffffffff1673ffffffffffffffffffffffffffffffffffffffff1673ffffffffffffffffffffffffffffffffffffffff168152602001600282018054600181600116156101000203166002900480601f016020809104026020016040519081016040528092919081815260200182805460018160011615610100020316600290048015610a9d5780601f10610a7257610100808354040283529160200191610a9d565b820191906000526020600020905b815481529060010190602001808311610a8057829003601f168201915b50505050508152602001600382015481526020016004820154815260200160058201548152602001600682015481526020016007820154815250509050806080015181606001511115610b245760016008600084815260200190815260200160002060006101000a81548160ff02191690836002811115610b1a57fe5b0217905550610ba5565b806080015181606001511015610b6e5760026008600084815260200190815260200160002060006101000a81548160ff02191690836002811115610b6457fe5b0217905550610ba4565b60006008600084815260200190815260200160002060006101000a81548160ff02191690836002811115610b9e57fe5b02179055505b5b6004829080600181540180825580915050906001820390600052602060002001600090919290919091505550610be7600160055461226090919063ffffffff16565b6005819055507fdeb3fef274c9d29355266cba0a3c2a52d67eb1ef404a207ba6ef5916ba102090826040518082815260200191505060405180910390a15050808060010191505061095d565b50600360008481526020019081526020016000206000610c5391906129ed565b505080806001019150506108e4565b508060068190555066038d7ea4c68000341015610cca576040517f08c379a000000000000000000000000000000000000000000000000000000000815260040180806020018281038252602d815260200180612ab4602d913960400191505060405180910390fd5b60008311610d40576040517f08c379a000000000000000000000000000000000000000000000000000000000815260040180806020018281038252601a8152602001807f456e6420626c6f636b206e756d62657220756e646566696e656400000000000081525060200191505060405180910390fd5b6000610d576001805461226090919063ffffffff16565b9050806001819055506000610d75854361226090919063ffffffff16565b9050610d7f612992565b6040518061010001604052808481526020013373ffffffffffffffffffffffffffffffffffffffff16815260200188815260200134815260200160008152602001348152602001438152602001838152509050806002600060015481526020019081526020016000206000820151816000015560208201518160010160006101000a81548173ffffffffffffffffffffffffffffffffffffffff021916908373ffffffffffffffffffffffffffffffffffffffff1602179055506040820151816002019080519060200190610e55929190612a0e565b50606082015181600301556080820151816004015560a0820151816005015560c0820151816006015560e08201518160070155905050600360008260e00151815260200190815260200160002083908060018154018082558091505090600182039060005260206000200160009091929091909150555060016007600085815260200190815260200160002060003373ffffffffffffffffffffffffffffffffffffffff1673ffffffffffffffffffffffffffffffffffffffff16815260200190815260200160002060006101000a81548160ff02191690836002811115610f3957fe5b02179055503460096000858152602001908152602001600020600060016002811115610f6157fe5b815260200190815260200160002060003373ffffffffffffffffffffffffffffffffffffffff1673ffffffffffffffffffffffffffffffffffffffff1681526020019081526020016000208190555061100234600b60003373ffffffffffffffffffffffffffffffffffffffff1673ffffffffffffffffffffffffffffffffffffffff1681526020019081526020016000205461226090919063ffffffff16565b503073ffffffffffffffffffffffffffffffffffffffff163373ffffffffffffffffffffffffffffffffffffffff167fddf252ad1be2c89b69c2b068fc378daa952ba7f163c4a11628f55a4df523b3ef346040518082815260200191505060405180910390a33373ffffffffffffffffffffffffffffffffffffffff167f749addf8eadeff63c43be59c27331be5c6d4fc9e82bbfbcf162321c9b35a95b484600160405180838152602001821515151581526020019250505060405180910390a28294505050505092915050565b6000600b60003373ffffffffffffffffffffffffffffffffffffffff1673ffffffffffffffffffffffffffffffffffffffff16815260200190815260200160002054905090565b60015481565b60086020528060005260406000206000915054906101000a900460ff1681565b600080439050600061115b600160065461226090919063ffffffff16565b90505b8181116114dc576060600360008381526020019081526020016000208054806020026020016040519081016040528092919081815260200182805480156111c457602002820191906000526020600020905b8154815260200190600101908083116111b0575b5050505050905060008151905060008090505b818110156114ad5760008382815181106111ed57fe5b602002602001015190506111ff612992565b6002600083815260200190815260200160002060405180610100016040529081600082015481526020016001820160009054906101000a900473ffffffffffffffffffffffffffffffffffffffff1673ffffffffffffffffffffffffffffffffffffffff1673ffffffffffffffffffffffffffffffffffffffff168152602001600282018054600181600116156101000203166002900480601f0160208091040260200160405190810160405280929190818152602001828054600181600116156101000203166002900480156113175780601f106112ec57610100808354040283529160200191611317565b820191906000526020600020905b8154815290600101906020018083116112fa57829003601f168201915b5050505050815260200160038201548152602001600482015481526020016005820154815260200160068201548152602001600782015481525050905080608001518160600151111561139e5760016008600084815260200190815260200160002060006101000a81548160ff0219169083600281111561139457fe5b021790555061141f565b8060800151816060015110156113e85760026008600084815260200190815260200160002060006101000a81548160ff021916908360028111156113de57fe5b021790555061141e565b60006008600084815260200190815260200160002060006101000a81548160ff0219169083600281111561141857fe5b02179055505b5b6004829080600181540180825580915050906001820390600052602060002001600090919290919091505550611461600160055461226090919063ffffffff16565b6005819055507fdeb3fef274c9d29355266cba0a3c2a52d67eb1ef404a207ba6ef5916ba102090826040518082815260200191505060405180910390a1505080806001019150506111d7565b506003600084815260200190815260200160002060006114cd91906129ed565b5050808060010191505061115e565b50806006819055506000600a60003373ffffffffffffffffffffffffffffffffffffffff1673ffffffffffffffffffffffffffffffffffffffff1681526020019081526020016000205490506000811161159e576040517f08c379a000000000000000000000000000000000000000000000000000000000815260040180806020018281038252601e8152602001807f4e6f2066756e647320617661696c61626c6520746f207769746864726177000081525060200191505060405180910390fd5b3373ffffffffffffffffffffffffffffffffffffffff166108fc829081150290604051600060405180830381858888f193505050501580156115e4573d6000803e3d6000fd5b506000600a60003373ffffffffffffffffffffffffffffffffffffffff1673ffffffffffffffffffffffffffffffffffffffff168152602001908152602001600020819055503373ffffffffffffffffffffffffffffffffffffffff163073ffffffffffffffffffffffffffffffffffffffff167fddf252ad1be2c89b69c2b068fc378daa952ba7f163c4a11628f55a4df523b3ef836040518082815260200191505060405180910390a360019250505090565b60008043905060006116b6600160065461226090919063ffffffff16565b90505b818111611a375760606003600083815260200190815260200160002080548060200260200160405190810160405280929190818152602001828054801561171f57602002820191906000526020600020905b81548152602001906001019080831161170b575b5050505050905060008151905060008090505b81811015611a0857600083828151811061174857fe5b6020026020010151905061175a612992565b6002600083815260200190815260200160002060405180610100016040529081600082015481526020016001820160009054906101000a900473ffffffffffffffffffffffffffffffffffffffff1673ffffffffffffffffffffffffffffffffffffffff1673ffffffffffffffffffffffffffffffffffffffff168152602001600282018054600181600116156101000203166002900480601f0160208091040260200160405190810160405280929190818152602001828054600181600116156101000203166002900480156118725780601f1061184757610100808354040283529160200191611872565b820191906000526020600020905b81548152906001019060200180831161185557829003601f168201915b505050505081526020016003820154815260200160048201548152602001600582015481526020016006820154815260200160078201548152505090508060800151816060015111156118f95760016008600084815260200190815260200160002060006101000a81548160ff021916908360028111156118ef57fe5b021790555061197a565b8060800151816060015110156119435760026008600084815260200190815260200160002060006101000a81548160ff0219169083600281111561193957fe5b0217905550611979565b60006008600084815260200190815260200160002060006101000a81548160ff0219169083600281111561197357fe5b02179055505b5b60048290806001815401808255809150509060018203906000526020600020016000909192909190915055506119bc600160055461226090919063ffffffff16565b6005819055507fdeb3fef274c9d29355266cba0a3c2a52d67eb1ef404a207ba6ef5916ba102090826040518082815260200191505060405180910390a150508080600101915050611732565b50600360008481526020019081526020016000206000611a2891906129ed565b505080806001019150506116b9565b5080600681905550600154841115611ab7576040517f08c379a00000000000000000000000000000000000000000000000000000000081526004018080602001828103825260108152602001807f496e76616c69642070726f706f73616c0000000000000000000000000000000081525060200191505060405180910390fd5b60006002811115611ac457fe5b6007600086815260200190815260200160002060003373ffffffffffffffffffffffffffffffffffffffff1673ffffffffffffffffffffffffffffffffffffffff16815260200190815260200160002060009054906101000a900460ff166002811115611b2d57fe5b14611ba0576040517f08c379a00000000000000000000000000000000000000000000000000000000081526004018080602001828103825260128152602001807f43616e206e6f7420766f7465207477696365000000000000000000000000000081525060200191505060405180910390fd5b600060026000868152602001908152602001600020905043816007015411611c30576040517f08c379a000000000000000000000000000000000000000000000000000000000815260040180806020018281038252601c8152602001807f50726f706f73616c206973206e6f206c6f6e676572206163746976650000000081525060200191505060405180910390fd5b66038d7ea4c68000341015611c90576040517f08c379a000000000000000000000000000000000000000000000000000000000815260040180806020018281038252602d815260200180612ab4602d913960400191505060405180910390fd5b6000611d4a6064611d3c605a600960008b8152602001908152602001600020600060016002811115611cbe57fe5b815260200190815260200160002060008760010160009054906101000a900473ffffffffffffffffffffffffffffffffffffffff1673ffffffffffffffffffffffffffffffffffffffff1673ffffffffffffffffffffffffffffffffffffffff1681526020019081526020016000205461293390919063ffffffff16565b61296790919063ffffffff16565b905080341115611da5576040517f08c379a0000000000000000000000000000000000000000000000000000000008152600401808060200182810382526023815260200180612ae16023913960400191505060405180910390fd5b611dbc34836005015461226090919063ffffffff16565b8260050181905550611e1634600b60003373ffffffffffffffffffffffffffffffffffffffff1673ffffffffffffffffffffffffffffffffffffffff1681526020019081526020016000205461226090919063ffffffff16565b508415611f255760016007600088815260200190815260200160002060003373ffffffffffffffffffffffffffffffffffffffff1673ffffffffffffffffffffffffffffffffffffffff16815260200190815260200160002060006101000a81548160ff02191690836002811115611e8a57fe5b02179055503460096000888152602001908152602001600020600060016002811115611eb257fe5b815260200190815260200160002060003373ffffffffffffffffffffffffffffffffffffffff1673ffffffffffffffffffffffffffffffffffffffff16815260200190815260200160002081905550611f1834836003015461226090919063ffffffff16565b8260030181905550612028565b60026007600088815260200190815260200160002060003373ffffffffffffffffffffffffffffffffffffffff1673ffffffffffffffffffffffffffffffffffffffff16815260200190815260200160002060006101000a81548160ff02191690836002811115611f9257fe5b021790555034600960008881526020019081526020016000206000600280811115611fb957fe5b815260200190815260200160002060003373ffffffffffffffffffffffffffffffffffffffff1673ffffffffffffffffffffffffffffffffffffffff1681526020019081526020016000208190555061201f34836004015461226090919063ffffffff16565b82600401819055505b3073ffffffffffffffffffffffffffffffffffffffff163373ffffffffffffffffffffffffffffffffffffffff167fddf252ad1be2c89b69c2b068fc378daa952ba7f163c4a11628f55a4df523b3ef346040518082815260200191505060405180910390a33373ffffffffffffffffffffffffffffffffffffffff167f749addf8eadeff63c43be59c27331be5c6d4fc9e82bbfbcf162321c9b35a95b4878760405180838152602001821515151581526020019250505060405180910390a26001935050505092915050565b60026020528060005260406000206000915090508060000154908060010160009054906101000a900473ffffffffffffffffffffffffffffffffffffffff1690806002018054600181600116156101000203166002900480601f0160208091040260200160405190810160405280929190818152602001828054600181600116156101000203166002900480156121cc5780601f106121a1576101008083540402835291602001916121cc565b820191906000526020600020905b8154815290600101906020018083116121af57829003601f168201915b5050505050908060030154908060040154908060050154908060060154908060070154905088565b6000600a60003373ffffffffffffffffffffffffffffffffffffffff1673ffffffffffffffffffffffffffffffffffffffff16815260200190815260200160002054905090565b6000809054906101000a900473ffffffffffffffffffffffffffffffffffffffff1681565b600081830190508281101561227157fe5b80905092915050565b612282612992565b6002600083815260200190815260200160002060405180610100016040529081600082015481526020016001820160009054906101000a900473ffffffffffffffffffffffffffffffffffffffff1673ffffffffffffffffffffffffffffffffffffffff1673ffffffffffffffffffffffffffffffffffffffff168152602001600282018054600181600116156101000203166002900480601f01602080910402602001604051908101604052809291908181526020018280546001816001161561010002031660029004801561239a5780601f1061236f5761010080835404028352916020019161239a565b820191906000526020600020905b81548152906001019060200180831161237d57829003601f168201915b5050505050815260200160038201548152602001600482015481526020016005820154815260200160068201548152602001600782015481525050905060006008600084815260200190815260200160002060009054906101000a900460ff16600281111561240557fe5b905060008060018314156124dd5760096000868152602001908152602001600020600084815260200190815260200160002060008773ffffffffffffffffffffffffffffffffffffffff1673ffffffffffffffffffffffffffffffffffffffff16815260200190815260200160002054905060008460600151905060006124a88261249a60648661293390919063ffffffff16565b61296790919063ffffffff16565b90506124d460646124c6838960a0015161293390919063ffffffff16565b61296790919063ffffffff16565b935050506126df565b60028314156125b05760096000868152602001908152602001600020600084815260200190815260200160002060008773ffffffffffffffffffffffffffffffffffffffff1673ffffffffffffffffffffffffffffffffffffffff168152602001908152602001600020549050600084608001519050600061257b8261256d60648661293390919063ffffffff16565b61296790919063ffffffff16565b90506125a76064612599838960a0015161293390919063ffffffff16565b61296790919063ffffffff16565b935050506126de565b6009600086815260200190815260200160002060006007600088815260200190815260200160002060008973ffffffffffffffffffffffffffffffffffffffff1673ffffffffffffffffffffffffffffffffffffffff16815260200190815260200160002060009054906101000a900460ff16600281111561262e57fe5b815260200190815260200160002060008773ffffffffffffffffffffffffffffffffffffffff1673ffffffffffffffffffffffffffffffffffffffff16815260200190815260200160002054905060008460a00151905060006126ad8261269f60648661293390919063ffffffff16565b61296790919063ffffffff16565b90506126d960646126cb838960a0015161293390919063ffffffff16565b61296790919063ffffffff16565b935050505b5b6000600b60008873ffffffffffffffffffffffffffffffffffffffff1673ffffffffffffffffffffffffffffffffffffffff1681526020019081526020016000205411801561272e5750600081115b156127c95761278581600b60008973ffffffffffffffffffffffffffffffffffffffff1673ffffffffffffffffffffffffffffffffffffffff1681526020019081526020016000205461297b90919063ffffffff16565b600b60008873ffffffffffffffffffffffffffffffffffffffff1673ffffffffffffffffffffffffffffffffffffffff168152602001908152602001600020819055505b61281b82600a60008973ffffffffffffffffffffffffffffffffffffffff1673ffffffffffffffffffffffffffffffffffffffff1681526020019081526020016000205461226090919063ffffffff16565b600a60008873ffffffffffffffffffffffffffffffffffffffff1673ffffffffffffffffffffffffffffffffffffffff168152602001908152602001600020819055506009600086815260200190815260200160002060006007600088815260200190815260200160002060008973ffffffffffffffffffffffffffffffffffffffff1673ffffffffffffffffffffffffffffffffffffffff16815260200190815260200160002060009054906101000a900460ff1660028111156128dc57fe5b815260200190815260200160002060008773ffffffffffffffffffffffffffffffffffffffff1673ffffffffffffffffffffffffffffffffffffffff16815260200190815260200160002060009055505050505050565b6000808314156129465760009050612961565b81830290508183828161295557fe5b041461295d57fe5b8090505b92915050565b600081838161297257fe5b04905092915050565b60008282111561298757fe5b818303905092915050565b60405180610100016040528060008152602001600073ffffffffffffffffffffffffffffffffffffffff1681526020016060815260200160008152602001600081526020016000815260200160008152602001600081525090565b5080546000825590600052602060002090810190612a0b9190612a8e565b50565b828054600181600116156101000203166002900490600052602060002090601f016020900481019282601f10612a4f57805160ff1916838001178555612a7d565b82800160010185558215612a7d579182015b82811115612a7c578251825591602001919060010190612a61565b5b509050612a8a9190612a8e565b5090565b612ab091905b80821115612aac576000816000905550600101612a94565b5090565b9056fe4465706f73697420646f6573206e6f74206d65657420746865206d696e696d756d20726571756972656d656e744465706f73697420657863656564656420746865206d6178696d756d20616d6f756e74a265627a7a72315820522876d3ec82dbfb64f6bf98509a94708286e77ce27049741ae2ebf984bdee2064736f6c63430005100032",
  "source": "// Contract where users submit a proposal and cast votes, using staked ether.\n\npragma solidity ^0.5.0;\n\nimport \"./lib/SafeMath.sol\";\n\ncontract Vote {\n    \n    using SafeMath for uint256;\n    address public admin;\n\n    constructor() public {\n        admin = msg.sender;\n    }\n\n    /**\n     * This struct defines the Proposal object.\n     * @param id - Unique identifier for the proposal.\n     * @param proposer - The address created the proposal.\n     * @param title - The description of the proposal.\n     * @param yay_count - Count votes in proportion to their deposit eth amount for the proposal.\n     * @param nay_count - Count votes in proportion to their deposit eth amount against the proposal.\n     * @param deposit_balance - The total amount of ETH deposited for the proposal.\n     * @param begin_block_number - The block number when the proposal is created.\n     * @param end_block_number - The block number when the proposal becomes inactive.\n     */\n    struct Proposal {\n        uint256 id;\n        address proposer;\n        string title;\n        uint256 yay_count;\n        uint256 nay_count;\n        uint256 deposit_balance;\n        uint256 begin_block_number;\n        uint256 end_block_number;\n    }\n\n    enum Voter_Status {\n        UNDECIDED,\n        YAY,\n        NAY\n    }\n\n    // Proposal Variables\n    uint256 public total_proposals;\n    mapping (uint256 => Proposal) public Proposals; // Find the proposals with the given ID.\n    mapping (uint256 => uint256[]) internal active_proposals; // block end number mapped to array of proposal ids.\n    uint256[] internal inactiveIds; // track inactive proposals to claim eth.\n    uint256 public endProp_count; // counts the number of inactive proposals.\n\n    // Keep track of processed block number\n    uint public lastBlockNumber;\n\n    // Votes variables\n    mapping (uint256 => mapping (address => Voter_Status)) internal addressToVote; // Show votes given by address and id.\n    mapping (uint256 => Voter_Status) public winVotes; // Proposal majority votes.\n\n    // Funds variables.\n    mapping (uint256 => mapping (uint => mapping (address => uint256))) internal votingStake; // Show the amount of eth staked for the vote\n    mapping (address => uint256) internal withdraw; // Keeping track of user withdrawable amount.\n    mapping (address => uint256) internal totalStake; // Keeping track of the user's total staked ETH.\n\n    event Transfer(address indexed _from, address indexed _to, uint256 amount); // Transfer of ETH event.\n    event Voted(address indexed _voter, uint256 id, bool votesYay); // Users cast votes event.\n    event EndOfProposal(uint256 id); // Proposal ended event trigger.\n\n    /**\n     * @dev Modifier to be called periodically to detect proposals that are no longer active and call for the winner.\n     */\n    modifier checkWinner() {\n        // update proposals since last update to current block number.\n        uint256 current = block.number;\n        for (uint i = lastBlockNumber.add(1); i <= current; i++) {\n            uint256[] memory endProposalIds = active_proposals[i];\n            uint n = endProposalIds.length;\n            for (uint j = 0; j < n; j++) {\n                uint id = endProposalIds[j];\n                Proposal memory prop = Proposals[id];\n                if (prop.yay_count > prop.nay_count) {\n                    winVotes[id] = Voter_Status.YAY;\n                }\n                else if (prop.yay_count < prop.nay_count) {\n                    winVotes[id] = Voter_Status.NAY;\n                }\n                else {\n                    winVotes[id] = Voter_Status.UNDECIDED;\n                }\n                inactiveIds.push(id);\n                endProp_count = endProp_count.add(1);\n                emit EndOfProposal(id);\n            }\n            delete active_proposals[i];\n        }\n        lastBlockNumber = current;\n        _;\n    }\n\n    /** \n     * @dev Function to calculate earnings from winning proposals.\n     */\n    function earnedEth(address _winner, uint256 id) internal {\n        Proposal memory prop = Proposals[id];\n        uint wonVote = uint(winVotes[id]);\n        uint earned;\n        uint stake;\n        if (wonVote == 1) {\n            stake = votingStake[id][wonVote][_winner];\n            uint total = prop.yay_count;\n            uint percent = stake.mul(100).div(total);\n            earned = prop.deposit_balance.mul(percent).div(100);\n        } else if (wonVote == 2) {\n            stake = votingStake[id][wonVote][_winner];\n            uint total = prop.nay_count;\n            uint percent = stake.mul(100).div(total);\n            earned = prop.deposit_balance.mul(percent).div(100);\n        } else {\n            stake = votingStake[id][uint(addressToVote[id][_winner])][_winner];\n            uint total = prop.deposit_balance;\n            uint percent = stake.mul(100).div(total);\n            earned = prop.deposit_balance.mul(percent).div(100);\n        }\n        if (totalStake[_winner] > 0 && stake > 0) {\n            totalStake[_winner] = totalStake[_winner].sub(stake);\n        }\n        withdraw[_winner] = withdraw[_winner].add(earned);\n        delete votingStake[id][uint(addressToVote[id][_winner])][_winner];\n    }\n\n    /**\n     * @dev Function to create a proposal, requires a minimum deposit amount of 0.001 ETH.\n     * @return The proposal id\n     */\n    function create(string memory title, uint endOffset) public payable checkWinner() returns(uint256) {\n        require(msg.value >= 0.001 ether, \"Deposit does not meet the minimum requirement\");\n        require(endOffset > 0, \"End block number undefined\");\n\n        uint id = total_proposals.add(1);\n        total_proposals = id;\n        uint endBlock = block.number.add(endOffset);\n        Proposal memory newProposal = Proposal(id, msg.sender, title, msg.value, 0, msg.value, block.number, endBlock);\n        Proposals[total_proposals] = newProposal;\n        active_proposals[newProposal.end_block_number].push(id);\n\n        // Proposer votes yay by default.\n        addressToVote[id][msg.sender] = Voter_Status.YAY;\n        votingStake[id][uint(Voter_Status.YAY)][msg.sender] = msg.value;\n        totalStake[msg.sender].add(msg.value);\n\n        emit Transfer(msg.sender, address(this), msg.value);\n        emit Voted(msg.sender, id, true);\n\n        return id;\n    }\n\n    /**\n     * @dev Function to vote on a proposal.\n     */\n    function vote(uint256 id, bool votesYay) public payable checkWinner() returns(bool success) {\n        require(id <= total_proposals, \"Invalid proposal\");\n        require(addressToVote[id][msg.sender] == Voter_Status.UNDECIDED, \"Can not vote twice\");\n        Proposal storage proposal = Proposals[id];\n        require(proposal.end_block_number > block.number, \"Proposal is no longer active\");\n        require(msg.value >= 0.001 ether, \"Deposit does not meet the minimum requirement\");\n        uint maximum = votingStake[id][uint(Voter_Status.YAY)][proposal.proposer].mul(90).div(100); // voters can only deposit 90% of the proposer's amount at most -- prevention of whales.\n        require(msg.value <= maximum, \"Deposit exceeded the maximum amount\");\n\n        proposal.deposit_balance = proposal.deposit_balance.add(msg.value);\n        totalStake[msg.sender].add(msg.value);\n\n        if (votesYay) {\n            addressToVote[id][msg.sender] = Voter_Status.YAY;\n            votingStake[id][uint(Voter_Status.YAY)][msg.sender] = msg.value;\n            proposal.yay_count = proposal.yay_count.add(msg.value);\n        }\n        else {\n            addressToVote[id][msg.sender] = Voter_Status.NAY;\n            votingStake[id][uint(Voter_Status.NAY)][msg.sender] = msg.value;\n            proposal.nay_count = proposal.nay_count.add(msg.value);\n        }\n\n        emit Transfer(msg.sender, address(this), msg.value);\n        emit Voted(msg.sender, id, votesYay);\n\n        return true;\n    }\n\n    /**\n     * @dev User-callable function to update their withdrawable earnings.\n     * TEMP: I need to figure out a way to shrink inactiveIds. This function call can become very expensive, if not fixed.\n     */\n    function updateEthEarned() public checkWinner() returns(uint256) {\n        for (uint i = 0; i < inactiveIds.length; i++) {\n            earnedEth(msg.sender, inactiveIds[i]);\n        }\n        return get_withdraw();\n    }\n\n    /**\n     * @dev User-callable function to get their withdrawable amount. It is recommended to invoke updateEthEarned() first.\n     */\n    function get_withdraw() public view returns(uint256) {\n        return withdraw[msg.sender];\n    }\n\n    /**\n     * @dev User-callable function to get their staked ETH amount\n     */\n    function get_staked() public view returns(uint256) {\n        return totalStake[msg.sender];\n    }\n\n    /**\n     * @dev Function for users to withdraw all of their eth. It is recommended to invoke updateEthEarned() first.\n     */\n    function withdrawEth() public payable checkWinner() returns(bool success) {\n        uint256 withdrawBal = withdraw[msg.sender];\n        require(withdrawBal > 0, \"No funds available to withdraw\");\n\n        msg.sender.transfer(withdrawBal);\n        withdraw[msg.sender] = 0;\n\n        emit Transfer(address(this), msg.sender, withdrawBal);\n\n        return true;\n    }\n\n}",
  "sourcePath": "/mnt/d/Coding Assignment-Advanca/advanca_voting_dApp/src/contracts/Vote.sol",
  "compiler": {
    "name": "solc",
    "version": "0.5.16+commit.9c3226ce.Emscripten.clang"
  },
  "schemaVersion": "3.3.2",
  "updatedAt": "2021-03-14T06:18:47.053Z",
  "networkType": "ethereum",
  "devdoc": {
    "methods": {
      "create(string,uint256)": {
        "details": "Function to create a proposal, requires a minimum deposit amount of 0.001 ETH.",
        "return": "The proposal id"
      },
      "get_staked()": {
        "details": "User-callable function to get their staked ETH amount"
      },
      "get_withdraw()": {
        "details": "User-callable function to get their withdrawable amount. It is recommended to invoke updateEthEarned() first."
      },
      "updateEthEarned()": {
        "details": "User-callable function to update their withdrawable earnings. TEMP: I need to figure out a way to shrink inactiveIds. This function call can become very expensive, if not fixed."
      },
      "vote(uint256,bool)": {
        "details": "Function to vote on a proposal."
      },
      "withdrawEth()": {
        "details": "Function for users to withdraw all of their eth. It is recommended to invoke updateEthEarned() first."
      }
    }
  },
  "userdoc": {
    "methods": {}
  }
}