{
  "contractName": "Vote",
  "abi": [
    {
      "inputs": [],
      "payable": false,
      "stateMutability": "nonpayable",
      "type": "constructor"
    },
    {
      "anonymous": false,
      "inputs": [
        {
          "indexed": false,
          "internalType": "uint256",
          "name": "id",
          "type": "uint256"
        }
      ],
      "name": "EndOfProposal",
      "type": "event"
    },
    {
      "anonymous": false,
      "inputs": [
        {
          "indexed": true,
          "internalType": "address",
          "name": "_from",
          "type": "address"
        },
        {
          "indexed": true,
          "internalType": "address",
          "name": "_to",
          "type": "address"
        },
        {
          "indexed": false,
          "internalType": "uint256",
          "name": "amount",
          "type": "uint256"
        }
      ],
      "name": "Transfer",
      "type": "event"
    },
    {
      "anonymous": false,
      "inputs": [
        {
          "indexed": true,
          "internalType": "address",
          "name": "_voter",
          "type": "address"
        },
        {
          "indexed": false,
          "internalType": "uint256",
          "name": "id",
          "type": "uint256"
        },
        {
          "indexed": false,
          "internalType": "bool",
          "name": "votesYay",
          "type": "bool"
        }
      ],
      "name": "Voted",
      "type": "event"
    },
    {
      "constant": true,
      "inputs": [
        {
          "internalType": "uint256",
          "name": "",
          "type": "uint256"
        }
      ],
      "name": "Proposals",
      "outputs": [
        {
          "internalType": "uint256",
          "name": "id",
          "type": "uint256"
        },
        {
          "internalType": "address",
          "name": "proposer",
          "type": "address"
        },
        {
          "internalType": "string",
          "name": "title",
          "type": "string"
        },
        {
          "internalType": "uint256",
          "name": "yay_count",
          "type": "uint256"
        },
        {
          "internalType": "uint256",
          "name": "nay_count",
          "type": "uint256"
        },
        {
          "internalType": "uint256",
          "name": "deposit_balance",
          "type": "uint256"
        },
        {
          "internalType": "uint256",
          "name": "begin_block_number",
          "type": "uint256"
        },
        {
          "internalType": "uint256",
          "name": "end_block_number",
          "type": "uint256"
        }
      ],
      "payable": false,
      "stateMutability": "view",
      "type": "function"
    },
    {
      "constant": true,
      "inputs": [
        {
          "internalType": "uint256",
          "name": "",
          "type": "uint256"
        },
        {
          "internalType": "uint256",
          "name": "",
          "type": "uint256"
        }
      ],
      "name": "active_proposals",
      "outputs": [
        {
          "internalType": "uint256",
          "name": "",
          "type": "uint256"
        }
      ],
      "payable": false,
      "stateMutability": "view",
      "type": "function"
    },
    {
      "constant": true,
      "inputs": [],
      "name": "admin",
      "outputs": [
        {
          "internalType": "address",
          "name": "",
          "type": "address"
        }
      ],
      "payable": false,
      "stateMutability": "view",
      "type": "function"
    },
    {
      "constant": true,
      "inputs": [],
      "name": "endProp_count",
      "outputs": [
        {
          "internalType": "uint256",
          "name": "",
          "type": "uint256"
        }
      ],
      "payable": false,
      "stateMutability": "view",
      "type": "function"
    },
    {
      "constant": true,
      "inputs": [
        {
          "internalType": "uint256",
          "name": "",
          "type": "uint256"
        }
      ],
      "name": "inactiveIds",
      "outputs": [
        {
          "internalType": "uint256",
          "name": "",
          "type": "uint256"
        }
      ],
      "payable": false,
      "stateMutability": "view",
      "type": "function"
    },
    {
      "constant": true,
      "inputs": [],
      "name": "lastBlockNumber",
      "outputs": [
        {
          "internalType": "uint256",
          "name": "",
          "type": "uint256"
        }
      ],
      "payable": false,
      "stateMutability": "view",
      "type": "function"
    },
    {
      "constant": true,
      "inputs": [],
      "name": "total_proposals",
      "outputs": [
        {
          "internalType": "uint256",
          "name": "",
          "type": "uint256"
        }
      ],
      "payable": false,
      "stateMutability": "view",
      "type": "function"
    },
    {
      "constant": true,
      "inputs": [
        {
          "internalType": "uint256",
          "name": "",
          "type": "uint256"
        }
      ],
      "name": "winVotes",
      "outputs": [
        {
          "internalType": "enum Vote.Voter_Status",
          "name": "",
          "type": "uint8"
        }
      ],
      "payable": false,
      "stateMutability": "view",
      "type": "function"
    },
    {
      "constant": false,
      "inputs": [
        {
          "internalType": "string",
          "name": "title",
          "type": "string"
        },
        {
          "internalType": "uint256",
          "name": "endOffset",
          "type": "uint256"
        }
      ],
      "name": "create",
      "outputs": [
        {
          "internalType": "uint256",
          "name": "",
          "type": "uint256"
        }
      ],
      "payable": true,
      "stateMutability": "payable",
      "type": "function"
    },
    {
      "constant": false,
      "inputs": [
        {
          "internalType": "uint256",
          "name": "id",
          "type": "uint256"
        },
        {
          "internalType": "bool",
          "name": "votesYay",
          "type": "bool"
        }
      ],
      "name": "vote",
      "outputs": [
        {
          "internalType": "bool",
          "name": "success",
          "type": "bool"
        }
      ],
      "payable": true,
      "stateMutability": "payable",
      "type": "function"
    },
    {
      "constant": true,
      "inputs": [],
      "name": "get_withdraw",
      "outputs": [
        {
          "internalType": "uint256",
          "name": "",
          "type": "uint256"
        }
      ],
      "payable": false,
      "stateMutability": "view",
      "type": "function"
    },
    {
      "constant": false,
      "inputs": [],
      "name": "updateEthEarned",
      "outputs": [
        {
          "internalType": "uint256",
          "name": "",
          "type": "uint256"
        }
      ],
      "payable": false,
      "stateMutability": "nonpayable",
      "type": "function"
    },
    {
      "constant": false,
      "inputs": [],
      "name": "withdrawEth",
      "outputs": [
        {
          "internalType": "bool",
          "name": "success",
          "type": "bool"
        }
      ],
      "payable": true,
      "stateMutability": "payable",
      "type": "function"
    }
  ],
  "bytecode": "0x608060405234801561001057600080fd5b50336000806101000a81548173ffffffffffffffffffffffffffffffffffffffff021916908373ffffffffffffffffffffffffffffffffffffffff1602179055506129cf806100606000396000f3fe6080604052600436106100c15760003560e01c806385d7305e1161007f578063c9d27afe11610059578063c9d27afe14610372578063d1dbe7d8146103c4578063e0eb6228146104d5578063f851a44014610500576100c1565b806385d7305e146102c8578063871fd776146102f3578063a0ef91df14610350576100c1565b8062a023a7146100c65780632552317c1461011f5780632aa50b041461014a5780633bdb6e6e146101755780634010d2e8146101a057806346f81a87146101ef575b600080fd5b3480156100d257600080fd5b50610109600480360360408110156100e957600080fd5b810190808035906020019092919080359060200190929190505050610557565b6040518082815260200191505060405180910390f35b34801561012b57600080fd5b50610134610585565b6040518082815260200191505060405180910390f35b34801561015657600080fd5b5061015f61058b565b6040518082815260200191505060405180910390f35b34801561018157600080fd5b5061018a610591565b6040518082815260200191505060405180910390f35b3480156101ac57600080fd5b506101d9600480360360208110156101c357600080fd5b8101908080359060200190929190505050610988565b6040518082815260200191505060405180910390f35b6102b26004803603604081101561020557600080fd5b810190808035906020019064010000000081111561022257600080fd5b82018360208201111561023457600080fd5b8035906020019184600183028401116401000000008311171561025657600080fd5b91908080601f016020809104026020016040519081016040528093929190818152602001838380828437600081840152601f19601f820116905080830192505050505050509192919290803590602001909291905050506109a9565b6040518082815260200191505060405180910390f35b3480156102d457600080fd5b506102dd611163565b6040518082815260200191505060405180910390f35b3480156102ff57600080fd5b5061032c6004803603602081101561031657600080fd5b8101908080359060200190929190505050611169565b6040518082600281111561033c57fe5b60ff16815260200191505060405180910390f35b610358611189565b604051808215151515815260200191505060405180910390f35b6103aa6004803603604081101561038857600080fd5b81019080803590602001909291908035151590602001909291905050506116e4565b604051808215151515815260200191505060405180910390f35b3480156103d057600080fd5b506103fd600480360360208110156103e757600080fd5b81019080803590602001909291905050506120ed565b604051808981526020018873ffffffffffffffffffffffffffffffffffffffff1673ffffffffffffffffffffffffffffffffffffffff16815260200180602001878152602001868152602001858152602001848152602001838152602001828103825288818151815260200191508051906020019080838360005b83811015610493578082015181840152602081019050610478565b50505050905090810190601f1680156104c05780820380516001836020036101000a031916815260200191505b50995050505050505050505060405180910390f35b3480156104e157600080fd5b506104ea6121ed565b6040518082815260200191505060405180910390f35b34801561050c57600080fd5b50610515612234565b604051808273ffffffffffffffffffffffffffffffffffffffff1673ffffffffffffffffffffffffffffffffffffffff16815260200191505060405180910390f35b6003602052816000526040600020818154811061057057fe5b90600052602060002001600091509150505481565b60065481565b60055481565b60008043905060006105af600160065461225990919063ffffffff16565b90505b8181116109305760606003600083815260200190815260200160002080548060200260200160405190810160405280929190818152602001828054801561061857602002820191906000526020600020905b815481526020019060010190808311610604575b5050505050905060008151905060008090505b8181101561090157600083828151811061064157fe5b60200260200101519050610653612829565b6002600083815260200190815260200160002060405180610100016040529081600082015481526020016001820160009054906101000a900473ffffffffffffffffffffffffffffffffffffffff1673ffffffffffffffffffffffffffffffffffffffff1673ffffffffffffffffffffffffffffffffffffffff168152602001600282018054600181600116156101000203166002900480601f01602080910402602001604051908101604052809291908181526020018280546001816001161561010002031660029004801561076b5780601f106107405761010080835404028352916020019161076b565b820191906000526020600020905b81548152906001019060200180831161074e57829003601f168201915b505050505081526020016003820154815260200160048201548152602001600582015481526020016006820154815260200160078201548152505090508060800151816060015111156107f25760016008600084815260200190815260200160002060006101000a81548160ff021916908360028111156107e857fe5b0217905550610873565b80608001518160600151101561083c5760026008600084815260200190815260200160002060006101000a81548160ff0219169083600281111561083257fe5b0217905550610872565b60006008600084815260200190815260200160002060006101000a81548160ff0219169083600281111561086c57fe5b02179055505b5b60048290806001815401808255809150509060018203906000526020600020016000909192909190915055506108b5600160055461225990919063ffffffff16565b6005819055507fdeb3fef274c9d29355266cba0a3c2a52d67eb1ef404a207ba6ef5916ba102090826040518082815260200191505060405180910390a15050808060010191505061062b565b506003600084815260200190815260200160002060006109219190612884565b505080806001019150506105b2565b508060068190555060008090505b6004805490508110156109795761096c336004838154811061095c57fe5b9060005260206000200154612273565b808060010191505061093e565b506109826121ed565b91505090565b6004818154811061099557fe5b906000526020600020016000915090505481565b60008043905060006109c7600160065461225990919063ffffffff16565b90505b818111610d4857606060036000838152602001908152602001600020805480602002602001604051908101604052809291908181526020018280548015610a3057602002820191906000526020600020905b815481526020019060010190808311610a1c575b5050505050905060008151905060008090505b81811015610d19576000838281518110610a5957fe5b60200260200101519050610a6b612829565b6002600083815260200190815260200160002060405180610100016040529081600082015481526020016001820160009054906101000a900473ffffffffffffffffffffffffffffffffffffffff1673ffffffffffffffffffffffffffffffffffffffff1673ffffffffffffffffffffffffffffffffffffffff168152602001600282018054600181600116156101000203166002900480601f016020809104026020016040519081016040528092919081815260200182805460018160011615610100020316600290048015610b835780601f10610b5857610100808354040283529160200191610b83565b820191906000526020600020905b815481529060010190602001808311610b6657829003601f168201915b50505050508152602001600382015481526020016004820154815260200160058201548152602001600682015481526020016007820154815250509050806080015181606001511115610c0a5760016008600084815260200190815260200160002060006101000a81548160ff02191690836002811115610c0057fe5b0217905550610c8b565b806080015181606001511015610c545760026008600084815260200190815260200160002060006101000a81548160ff02191690836002811115610c4a57fe5b0217905550610c8a565b60006008600084815260200190815260200160002060006101000a81548160ff02191690836002811115610c8457fe5b02179055505b5b6004829080600181540180825580915050906001820390600052602060002001600090919290919091505550610ccd600160055461225990919063ffffffff16565b6005819055507fdeb3fef274c9d29355266cba0a3c2a52d67eb1ef404a207ba6ef5916ba102090826040518082815260200191505060405180910390a150508080600101915050610a43565b50600360008481526020019081526020016000206000610d399190612884565b505080806001019150506109ca565b508060068190555066038d7ea4c68000341015610db0576040517f08c379a000000000000000000000000000000000000000000000000000000000815260040180806020018281038252602d81526020018061294b602d913960400191505060405180910390fd5b60008311610e26576040517f08c379a000000000000000000000000000000000000000000000000000000000815260040180806020018281038252601a8152602001807f456e6420626c6f636b206e756d62657220756e646566696e656400000000000081525060200191505060405180910390fd5b6000610e3d6001805461225990919063ffffffff16565b9050806001819055506000610e5b854361225990919063ffffffff16565b9050610e65612829565b6040518061010001604052808481526020013373ffffffffffffffffffffffffffffffffffffffff16815260200188815260200134815260200160008152602001348152602001438152602001838152509050806002600060015481526020019081526020016000206000820151816000015560208201518160010160006101000a81548173ffffffffffffffffffffffffffffffffffffffff021916908373ffffffffffffffffffffffffffffffffffffffff1602179055506040820151816002019080519060200190610f3b9291906128a5565b50606082015181600301556080820151816004015560a0820151816005015560c0820151816006015560e08201518160070155905050600360008260e00151815260200190815260200160002083908060018154018082558091505090600182039060005260206000200160009091929091909150555060016007600085815260200190815260200160002060003373ffffffffffffffffffffffffffffffffffffffff1673ffffffffffffffffffffffffffffffffffffffff16815260200190815260200160002060006101000a81548160ff0219169083600281111561101f57fe5b0217905550346009600085815260200190815260200160002060006001600281111561104757fe5b815260200190815260200160002060003373ffffffffffffffffffffffffffffffffffffffff1673ffffffffffffffffffffffffffffffffffffffff168152602001908152602001600020819055503073ffffffffffffffffffffffffffffffffffffffff163373ffffffffffffffffffffffffffffffffffffffff167fddf252ad1be2c89b69c2b068fc378daa952ba7f163c4a11628f55a4df523b3ef346040518082815260200191505060405180910390a33373ffffffffffffffffffffffffffffffffffffffff167f749addf8eadeff63c43be59c27331be5c6d4fc9e82bbfbcf162321c9b35a95b484600160405180838152602001821515151581526020019250505060405180910390a28294505050505092915050565b60015481565b60086020528060005260406000206000915054906101000a900460ff1681565b60008043905060006111a7600160065461225990919063ffffffff16565b90505b8181116115285760606003600083815260200190815260200160002080548060200260200160405190810160405280929190818152602001828054801561121057602002820191906000526020600020905b8154815260200190600101908083116111fc575b5050505050905060008151905060008090505b818110156114f957600083828151811061123957fe5b6020026020010151905061124b612829565b6002600083815260200190815260200160002060405180610100016040529081600082015481526020016001820160009054906101000a900473ffffffffffffffffffffffffffffffffffffffff1673ffffffffffffffffffffffffffffffffffffffff1673ffffffffffffffffffffffffffffffffffffffff168152602001600282018054600181600116156101000203166002900480601f0160208091040260200160405190810160405280929190818152602001828054600181600116156101000203166002900480156113635780601f1061133857610100808354040283529160200191611363565b820191906000526020600020905b81548152906001019060200180831161134657829003601f168201915b505050505081526020016003820154815260200160048201548152602001600582015481526020016006820154815260200160078201548152505090508060800151816060015111156113ea5760016008600084815260200190815260200160002060006101000a81548160ff021916908360028111156113e057fe5b021790555061146b565b8060800151816060015110156114345760026008600084815260200190815260200160002060006101000a81548160ff0219169083600281111561142a57fe5b021790555061146a565b60006008600084815260200190815260200160002060006101000a81548160ff0219169083600281111561146457fe5b02179055505b5b60048290806001815401808255809150509060018203906000526020600020016000909192909190915055506114ad600160055461225990919063ffffffff16565b6005819055507fdeb3fef274c9d29355266cba0a3c2a52d67eb1ef404a207ba6ef5916ba102090826040518082815260200191505060405180910390a150508080600101915050611223565b506003600084815260200190815260200160002060006115199190612884565b505080806001019150506111aa565b50806006819055506000600a60003373ffffffffffffffffffffffffffffffffffffffff1673ffffffffffffffffffffffffffffffffffffffff168152602001908152602001600020549050600081116115ea576040517f08c379a000000000000000000000000000000000000000000000000000000000815260040180806020018281038252601e8152602001807f4e6f2066756e647320617661696c61626c6520746f207769746864726177000081525060200191505060405180910390fd5b3373ffffffffffffffffffffffffffffffffffffffff166108fc829081150290604051600060405180830381858888f19350505050158015611630573d6000803e3d6000fd5b506000600a60003373ffffffffffffffffffffffffffffffffffffffff1673ffffffffffffffffffffffffffffffffffffffff168152602001908152602001600020819055503373ffffffffffffffffffffffffffffffffffffffff163073ffffffffffffffffffffffffffffffffffffffff167fddf252ad1be2c89b69c2b068fc378daa952ba7f163c4a11628f55a4df523b3ef836040518082815260200191505060405180910390a360019250505090565b6000804390506000611702600160065461225990919063ffffffff16565b90505b818111611a835760606003600083815260200190815260200160002080548060200260200160405190810160405280929190818152602001828054801561176b57602002820191906000526020600020905b815481526020019060010190808311611757575b5050505050905060008151905060008090505b81811015611a5457600083828151811061179457fe5b602002602001015190506117a6612829565b6002600083815260200190815260200160002060405180610100016040529081600082015481526020016001820160009054906101000a900473ffffffffffffffffffffffffffffffffffffffff1673ffffffffffffffffffffffffffffffffffffffff1673ffffffffffffffffffffffffffffffffffffffff168152602001600282018054600181600116156101000203166002900480601f0160208091040260200160405190810160405280929190818152602001828054600181600116156101000203166002900480156118be5780601f10611893576101008083540402835291602001916118be565b820191906000526020600020905b8154815290600101906020018083116118a157829003601f168201915b505050505081526020016003820154815260200160048201548152602001600582015481526020016006820154815260200160078201548152505090508060800151816060015111156119455760016008600084815260200190815260200160002060006101000a81548160ff0219169083600281111561193b57fe5b02179055506119c6565b80608001518160600151101561198f5760026008600084815260200190815260200160002060006101000a81548160ff0219169083600281111561198557fe5b02179055506119c5565b60006008600084815260200190815260200160002060006101000a81548160ff021916908360028111156119bf57fe5b02179055505b5b6004829080600181540180825580915050906001820390600052602060002001600090919290919091505550611a08600160055461225990919063ffffffff16565b6005819055507fdeb3fef274c9d29355266cba0a3c2a52d67eb1ef404a207ba6ef5916ba102090826040518082815260200191505060405180910390a15050808060010191505061177e565b50600360008481526020019081526020016000206000611a749190612884565b50508080600101915050611705565b5080600681905550600154841115611b03576040517f08c379a00000000000000000000000000000000000000000000000000000000081526004018080602001828103825260108152602001807f496e76616c69642070726f706f73616c0000000000000000000000000000000081525060200191505060405180910390fd5b60006002811115611b1057fe5b6007600086815260200190815260200160002060003373ffffffffffffffffffffffffffffffffffffffff1673ffffffffffffffffffffffffffffffffffffffff16815260200190815260200160002060009054906101000a900460ff166002811115611b7957fe5b14611bec576040517f08c379a00000000000000000000000000000000000000000000000000000000081526004018080602001828103825260128152602001807f43616e206e6f7420766f7465207477696365000000000000000000000000000081525060200191505060405180910390fd5b600060026000868152602001908152602001600020905043816007015411611c7c576040517f08c379a000000000000000000000000000000000000000000000000000000000815260040180806020018281038252601c8152602001807f50726f706f73616c206973206e6f206c6f6e676572206163746976650000000081525060200191505060405180910390fd5b66038d7ea4c68000341015611cdc576040517f08c379a000000000000000000000000000000000000000000000000000000000815260040180806020018281038252602d81526020018061294b602d913960400191505060405180910390fd5b6000611d966064611d88605a600960008b8152602001908152602001600020600060016002811115611d0a57fe5b815260200190815260200160002060008760010160009054906101000a900473ffffffffffffffffffffffffffffffffffffffff1673ffffffffffffffffffffffffffffffffffffffff1673ffffffffffffffffffffffffffffffffffffffff168152602001908152602001600020546127e190919063ffffffff16565b61281590919063ffffffff16565b905080341115611df1576040517f08c379a00000000000000000000000000000000000000000000000000000000081526004018080602001828103825260238152602001806129786023913960400191505060405180910390fd5b611e0834836005015461225990919063ffffffff16565b82600501819055508415611f1e5760016007600088815260200190815260200160002060003373ffffffffffffffffffffffffffffffffffffffff1673ffffffffffffffffffffffffffffffffffffffff16815260200190815260200160002060006101000a81548160ff02191690836002811115611e8357fe5b02179055503460096000888152602001908152602001600020600060016002811115611eab57fe5b815260200190815260200160002060003373ffffffffffffffffffffffffffffffffffffffff1673ffffffffffffffffffffffffffffffffffffffff16815260200190815260200160002081905550611f1134836003015461225990919063ffffffff16565b8260030181905550612021565b60026007600088815260200190815260200160002060003373ffffffffffffffffffffffffffffffffffffffff1673ffffffffffffffffffffffffffffffffffffffff16815260200190815260200160002060006101000a81548160ff02191690836002811115611f8b57fe5b021790555034600960008881526020019081526020016000206000600280811115611fb257fe5b815260200190815260200160002060003373ffffffffffffffffffffffffffffffffffffffff1673ffffffffffffffffffffffffffffffffffffffff1681526020019081526020016000208190555061201834836004015461225990919063ffffffff16565b82600401819055505b3073ffffffffffffffffffffffffffffffffffffffff163373ffffffffffffffffffffffffffffffffffffffff167fddf252ad1be2c89b69c2b068fc378daa952ba7f163c4a11628f55a4df523b3ef346040518082815260200191505060405180910390a33373ffffffffffffffffffffffffffffffffffffffff167f749addf8eadeff63c43be59c27331be5c6d4fc9e82bbfbcf162321c9b35a95b4878760405180838152602001821515151581526020019250505060405180910390a26001935050505092915050565b60026020528060005260406000206000915090508060000154908060010160009054906101000a900473ffffffffffffffffffffffffffffffffffffffff1690806002018054600181600116156101000203166002900480601f0160208091040260200160405190810160405280929190818152602001828054600181600116156101000203166002900480156121c55780601f1061219a576101008083540402835291602001916121c5565b820191906000526020600020905b8154815290600101906020018083116121a857829003601f168201915b5050505050908060030154908060040154908060050154908060060154908060070154905088565b6000600a60003373ffffffffffffffffffffffffffffffffffffffff1673ffffffffffffffffffffffffffffffffffffffff16815260200190815260200160002054905090565b6000809054906101000a900473ffffffffffffffffffffffffffffffffffffffff1681565b600081830190508281101561226a57fe5b80905092915050565b61227b612829565b6002600083815260200190815260200160002060405180610100016040529081600082015481526020016001820160009054906101000a900473ffffffffffffffffffffffffffffffffffffffff1673ffffffffffffffffffffffffffffffffffffffff1673ffffffffffffffffffffffffffffffffffffffff168152602001600282018054600181600116156101000203166002900480601f0160208091040260200160405190810160405280929190818152602001828054600181600116156101000203166002900480156123935780601f1061236857610100808354040283529160200191612393565b820191906000526020600020905b81548152906001019060200180831161237657829003601f168201915b5050505050815260200160038201548152602001600482015481526020016005820154815260200160068201548152602001600782015481525050905060006008600084815260200190815260200160002060009054906101000a900460ff1660028111156123fe57fe5b9050600060018214156124d857600060096000868152602001908152602001600020600084815260200190815260200160002060008773ffffffffffffffffffffffffffffffffffffffff1673ffffffffffffffffffffffffffffffffffffffff16815260200190815260200160002054905060008460600151905060006124a2826124946064866127e190919063ffffffff16565b61281590919063ffffffff16565b90506124ce60646124c0838960a001516127e190919063ffffffff16565b61281590919063ffffffff16565b93505050506126e0565b60028214156125ae57600060096000868152602001908152602001600020600084815260200190815260200160002060008773ffffffffffffffffffffffffffffffffffffffff1673ffffffffffffffffffffffffffffffffffffffff16815260200190815260200160002054905060008460800151905060006125788261256a6064866127e190919063ffffffff16565b61281590919063ffffffff16565b90506125a46064612596838960a001516127e190919063ffffffff16565b61281590919063ffffffff16565b93505050506126df565b60006009600086815260200190815260200160002060006007600088815260200190815260200160002060008973ffffffffffffffffffffffffffffffffffffffff1673ffffffffffffffffffffffffffffffffffffffff16815260200190815260200160002060009054906101000a900460ff16600281111561262e57fe5b815260200190815260200160002060008773ffffffffffffffffffffffffffffffffffffffff1673ffffffffffffffffffffffffffffffffffffffff16815260200190815260200160002054905060008460a00151905060006126ad8261269f6064866127e190919063ffffffff16565b61281590919063ffffffff16565b90506126d960646126cb838960a001516127e190919063ffffffff16565b61281590919063ffffffff16565b93505050505b5b61273281600a60008873ffffffffffffffffffffffffffffffffffffffff1673ffffffffffffffffffffffffffffffffffffffff1681526020019081526020016000205461225990919063ffffffff16565b600a60008773ffffffffffffffffffffffffffffffffffffffff1673ffffffffffffffffffffffffffffffffffffffff1681526020019081526020016000208190555060096000858152602001908152602001600020600083815260200190815260200160002060008673ffffffffffffffffffffffffffffffffffffffff1673ffffffffffffffffffffffffffffffffffffffff168152602001908152602001600020600090555050505050565b6000808314156127f4576000905061280f565b81830290508183828161280357fe5b041461280b57fe5b8090505b92915050565b600081838161282057fe5b04905092915050565b60405180610100016040528060008152602001600073ffffffffffffffffffffffffffffffffffffffff1681526020016060815260200160008152602001600081526020016000815260200160008152602001600081525090565b50805460008255906000526020600020908101906128a29190612925565b50565b828054600181600116156101000203166002900490600052602060002090601f016020900481019282601f106128e657805160ff1916838001178555612914565b82800160010185558215612914579182015b828111156129135782518255916020019190600101906128f8565b5b5090506129219190612925565b5090565b61294791905b8082111561294357600081600090555060010161292b565b5090565b9056fe4465706f73697420646f6573206e6f74206d65657420746865206d696e696d756d20726571756972656d656e744465706f73697420657863656564656420746865206d6178696d756d20616d6f756e74a265627a7a7231582029fe49d416a089dd2ce383241133ff07fb7ed762ee926c0e58f09f6bb11c2d5264736f6c63430005100032",
  "source": "// Contract where users submit a proposal and cast votes, using staked ether.\n\npragma solidity ^0.5.0;\n\nimport \"./lib/SafeMath.sol\";\n\ncontract Vote {\n    \n    using SafeMath for uint256;\n    address public admin;\n\n    constructor() public {\n        admin = msg.sender;\n    }\n\n    /**\n     * This struct defines the Proposal object.\n     * @param id - Unique identifier for the proposal.\n     * @param proposer - The address created the proposal.\n     * @param title - The description of the proposal.\n     * @param yay_count - Count votes in proportion to their deposit eth amount for the proposal.\n     * @param nay_count - Count votes in proportion to their deposit eth amount against the proposal.\n     * @param deposit_balance - The total amount of ETH deposited for the proposal.\n     * @param begin_block_number - The block number when the proposal is created.\n     * @param end_block_number - The block number when the proposal becomes inactive.\n     */\n    struct Proposal {\n        uint256 id;\n        address proposer;\n        string title;\n        uint256 yay_count;\n        uint256 nay_count;\n        uint256 deposit_balance;\n        uint256 begin_block_number;\n        uint256 end_block_number;\n    }\n\n    enum Voter_Status {\n        UNDECIDED,\n        YAY,\n        NAY\n    }\n\n    // Proposal Variables\n    uint256 public total_proposals;\n    mapping (uint256 => Proposal) public Proposals; // Find the proposals with the given ID.\n    mapping (uint256 => uint256[]) public active_proposals; // block end number mapped to array of proposal ids.\n    uint256[] public inactiveIds; // track inactive proposals to claim eth.\n    uint256 public endProp_count; // counts the number of inactive proposals.\n\n    // Keep track of processed block number\n    uint public lastBlockNumber;\n\n    // Votes variables\n    mapping (uint256 => mapping (address => Voter_Status)) internal addressToVote; // Show votes given by address and id.\n    mapping (uint256 => Voter_Status) public winVotes; // Proposal majority votes.\n\n    // Funds variables.\n    mapping (uint256 => mapping (uint => mapping (address => uint256))) internal votingStake; // Show the amount of eth staked for the vote\n    mapping (address => uint256) internal withdraw; // Keeping track of user withdrawable amount.\n\n    event Transfer(address indexed _from, address indexed _to, uint256 amount); // Transfer of ETH event.\n    event Voted(address indexed _voter, uint256 id, bool votesYay); // Users cast votes event.\n    event EndOfProposal(uint256 id); // Proposal ended event trigger.\n\n    /**\n     * @dev Modifier to be called periodically to detect proposals that are no longer active and call for the winner.\n     */\n    modifier checkWinner() {\n        // update proposals since last update to current block number.\n        uint256 current = block.number;\n        for (uint i = lastBlockNumber.add(1); i <= current; i++) {\n            uint256[] memory endProposalIds = active_proposals[i];\n            uint n = endProposalIds.length;\n            for (uint j = 0; j < n; j++) {\n                uint id = endProposalIds[j];\n                Proposal memory prop = Proposals[id];\n                if (prop.yay_count > prop.nay_count) {\n                    winVotes[id] = Voter_Status.YAY;\n                }\n                else if (prop.yay_count < prop.nay_count) {\n                    winVotes[id] = Voter_Status.NAY;\n                }\n                else {\n                    winVotes[id] = Voter_Status.UNDECIDED;\n                }\n                inactiveIds.push(id);\n                endProp_count = endProp_count.add(1);\n                emit EndOfProposal(id);\n            }\n            delete active_proposals[i];\n        }\n        lastBlockNumber = current;\n        _;\n    }\n\n    /** \n     * @dev Function to calculate earnings from winning proposals.\n     */\n    function earnedEth(address _winner, uint256 id) internal {\n        Proposal memory prop = Proposals[id];\n        uint wonVote = uint(winVotes[id]);\n        uint earned;\n        if (wonVote == 1) {\n            uint stake = votingStake[id][wonVote][_winner];\n            uint total = prop.yay_count;\n            uint percent = stake.mul(100).div(total);\n            earned = prop.deposit_balance.mul(percent).div(100);\n        } else if (wonVote == 2) {\n            uint stake = votingStake[id][wonVote][_winner];\n            uint total = prop.nay_count;\n            uint percent = stake.mul(100).div(total);\n            earned = prop.deposit_balance.mul(percent).div(100);\n        } else {\n            uint stake = votingStake[id][uint(addressToVote[id][_winner])][_winner];\n            uint total = prop.deposit_balance;\n            uint percent = stake.mul(100).div(total);\n            earned = prop.deposit_balance.mul(percent).div(100);\n        }\n        withdraw[_winner] = withdraw[_winner].add(earned);\n        delete votingStake[id][wonVote][_winner];\n\n    }\n\n    /**\n     * @dev Function to create a proposal, requires a minimum deposit amount of 0.001 ETH.\n     * @return The proposal id\n     */\n    function create(string memory title, uint endOffset) public payable checkWinner() returns(uint256) {\n        require(msg.value >= 0.001 ether, \"Deposit does not meet the minimum requirement\");\n        require(endOffset > 0, \"End block number undefined\");\n\n        uint id = total_proposals.add(1);\n        total_proposals = id;\n        uint endBlock = block.number.add(endOffset);\n        Proposal memory newProposal = Proposal(id, msg.sender, title, msg.value, 0, msg.value, block.number, endBlock);\n        Proposals[total_proposals] = newProposal;\n        active_proposals[newProposal.end_block_number].push(id);\n\n        // Proposer votes yay by default.\n        addressToVote[id][msg.sender] = Voter_Status.YAY;\n        votingStake[id][uint(Voter_Status.YAY)][msg.sender] = msg.value;\n\n        emit Transfer(msg.sender, address(this), msg.value);\n        emit Voted(msg.sender, id, true);\n\n        return id;\n    }\n\n    /**\n     * @dev Function to vote on a proposal.\n     */\n    function vote(uint256 id, bool votesYay) public payable checkWinner() returns(bool success) {\n        require(id <= total_proposals, \"Invalid proposal\");\n        require(addressToVote[id][msg.sender] == Voter_Status.UNDECIDED, \"Can not vote twice\");\n        Proposal storage proposal = Proposals[id];\n        require(proposal.end_block_number > block.number, \"Proposal is no longer active\");\n        require(msg.value >= 0.001 ether, \"Deposit does not meet the minimum requirement\");\n        uint maximum = votingStake[id][uint(Voter_Status.YAY)][proposal.proposer].mul(90).div(100); // voters can only deposit 90% of the proposer's amount at most -- prevention of whales.\n        require(msg.value <= maximum, \"Deposit exceeded the maximum amount\");\n\n        proposal.deposit_balance = proposal.deposit_balance.add(msg.value);\n\n        if (votesYay) {\n            addressToVote[id][msg.sender] = Voter_Status.YAY;\n            votingStake[id][uint(Voter_Status.YAY)][msg.sender] = msg.value;\n            proposal.yay_count = proposal.yay_count.add(msg.value);\n        }\n        else {\n            addressToVote[id][msg.sender] = Voter_Status.NAY;\n            votingStake[id][uint(Voter_Status.NAY)][msg.sender] = msg.value;\n            proposal.nay_count = proposal.nay_count.add(msg.value);\n        }\n\n        emit Transfer(msg.sender, address(this), msg.value);\n        emit Voted(msg.sender, id, votesYay);\n\n        return true;\n    }\n\n    /**\n     * @dev User-callable function to get their withdrawable amount. It is recommended to invoke updateEthEarned() first.\n     */\n    function get_withdraw() public view returns(uint256) {\n        return withdraw[msg.sender];\n    }\n\n    /**\n     * @dev User-callable function to update their withdrawable earnings.\n     * TEMP: I need to figure out a way to shrink inactiveIds. This function call can become very expensive, if not fixed.\n     */\n    function updateEthEarned() public checkWinner() returns(uint256) {\n        for (uint i = 0; i < inactiveIds.length; i++) {\n            earnedEth(msg.sender, inactiveIds[i]);\n        }\n        return get_withdraw();\n    }\n\n    /**\n     * @dev Function for users to withdraw all of their eth. It is recommended to invoke updateEthEarned() first.\n     */\n    function withdrawEth() public payable checkWinner() returns(bool success) {\n        uint256 withdrawBal = withdraw[msg.sender];\n        require(withdrawBal > 0, \"No funds available to withdraw\");\n\n        msg.sender.transfer(withdrawBal);\n        withdraw[msg.sender] = 0;\n\n        emit Transfer(address(this), msg.sender, withdrawBal);\n\n        return true;\n    }\n\n}",
  "sourcePath": "/mnt/d/Coding Assignment-Advanca/advanca_voting_dApp/src/contracts/Vote.sol",
  "compiler": {
    "name": "solc",
    "version": "0.5.16+commit.9c3226ce.Emscripten.clang"
  },
  "schemaVersion": "3.3.2",
  "updatedAt": "2021-03-13T05:52:51.385Z",
  "devdoc": {
    "methods": {
      "create(string,uint256)": {
        "details": "Function to create a proposal, requires a minimum deposit amount of 0.001 ETH.",
        "return": "The proposal id"
      },
      "get_withdraw()": {
        "details": "User-callable function to get their withdrawable amount. It is recommended to invoke updateEthEarned() first."
      },
      "updateEthEarned()": {
        "details": "User-callable function to update their withdrawable earnings. TEMP: I need to figure out a way to shrink inactiveIds. This function call can become very expensive, if not fixed."
      },
      "vote(uint256,bool)": {
        "details": "Function to vote on a proposal."
      },
      "withdrawEth()": {
        "details": "Function for users to withdraw all of their eth. It is recommended to invoke updateEthEarned() first."
      }
    }
  },
  "userdoc": {
    "methods": {}
  }
}