{
  "contractName": "Vote",
  "abi": [
    {
      "inputs": [],
      "payable": false,
      "stateMutability": "nonpayable",
      "type": "constructor"
    },
    {
      "anonymous": false,
      "inputs": [
        {
          "indexed": false,
          "internalType": "uint256",
          "name": "id",
          "type": "uint256"
        }
      ],
      "name": "EndOfProposal",
      "type": "event"
    },
    {
      "anonymous": false,
      "inputs": [
        {
          "indexed": true,
          "internalType": "address",
          "name": "_from",
          "type": "address"
        },
        {
          "indexed": true,
          "internalType": "address",
          "name": "_to",
          "type": "address"
        },
        {
          "indexed": false,
          "internalType": "uint256",
          "name": "amount",
          "type": "uint256"
        }
      ],
      "name": "Transfer",
      "type": "event"
    },
    {
      "anonymous": false,
      "inputs": [
        {
          "indexed": true,
          "internalType": "address",
          "name": "_voter",
          "type": "address"
        },
        {
          "indexed": false,
          "internalType": "uint256",
          "name": "id",
          "type": "uint256"
        },
        {
          "indexed": false,
          "internalType": "bool",
          "name": "votesYay",
          "type": "bool"
        }
      ],
      "name": "Voted",
      "type": "event"
    },
    {
      "constant": true,
      "inputs": [
        {
          "internalType": "uint256",
          "name": "",
          "type": "uint256"
        }
      ],
      "name": "Proposals",
      "outputs": [
        {
          "internalType": "uint256",
          "name": "id",
          "type": "uint256"
        },
        {
          "internalType": "address",
          "name": "proposer",
          "type": "address"
        },
        {
          "internalType": "string",
          "name": "title",
          "type": "string"
        },
        {
          "internalType": "uint256",
          "name": "yay_count",
          "type": "uint256"
        },
        {
          "internalType": "uint256",
          "name": "nay_count",
          "type": "uint256"
        },
        {
          "internalType": "uint256",
          "name": "deposit_balance",
          "type": "uint256"
        },
        {
          "internalType": "uint256",
          "name": "begin_block_number",
          "type": "uint256"
        },
        {
          "internalType": "uint256",
          "name": "end_block_number",
          "type": "uint256"
        },
        {
          "internalType": "uint256",
          "name": "max_deposit",
          "type": "uint256"
        }
      ],
      "payable": false,
      "stateMutability": "view",
      "type": "function"
    },
    {
      "constant": true,
      "inputs": [],
      "name": "admin",
      "outputs": [
        {
          "internalType": "address",
          "name": "",
          "type": "address"
        }
      ],
      "payable": false,
      "stateMutability": "view",
      "type": "function"
    },
    {
      "constant": true,
      "inputs": [],
      "name": "endProp_count",
      "outputs": [
        {
          "internalType": "uint256",
          "name": "",
          "type": "uint256"
        }
      ],
      "payable": false,
      "stateMutability": "view",
      "type": "function"
    },
    {
      "constant": true,
      "inputs": [],
      "name": "lastBlockNumber",
      "outputs": [
        {
          "internalType": "uint256",
          "name": "",
          "type": "uint256"
        }
      ],
      "payable": false,
      "stateMutability": "view",
      "type": "function"
    },
    {
      "constant": true,
      "inputs": [
        {
          "internalType": "address",
          "name": "",
          "type": "address"
        }
      ],
      "name": "myProposal_count",
      "outputs": [
        {
          "internalType": "uint256",
          "name": "",
          "type": "uint256"
        }
      ],
      "payable": false,
      "stateMutability": "view",
      "type": "function"
    },
    {
      "constant": true,
      "inputs": [],
      "name": "total_proposals",
      "outputs": [
        {
          "internalType": "uint256",
          "name": "",
          "type": "uint256"
        }
      ],
      "payable": false,
      "stateMutability": "view",
      "type": "function"
    },
    {
      "constant": true,
      "inputs": [
        {
          "internalType": "uint256",
          "name": "",
          "type": "uint256"
        }
      ],
      "name": "winVotes",
      "outputs": [
        {
          "internalType": "enum Vote.Voter_Status",
          "name": "",
          "type": "uint8"
        }
      ],
      "payable": false,
      "stateMutability": "view",
      "type": "function"
    },
    {
      "constant": false,
      "inputs": [
        {
          "internalType": "string",
          "name": "title",
          "type": "string"
        },
        {
          "internalType": "uint256",
          "name": "endOffset",
          "type": "uint256"
        }
      ],
      "name": "create",
      "outputs": [
        {
          "internalType": "uint256",
          "name": "",
          "type": "uint256"
        }
      ],
      "payable": true,
      "stateMutability": "payable",
      "type": "function"
    },
    {
      "constant": false,
      "inputs": [
        {
          "internalType": "uint256",
          "name": "id",
          "type": "uint256"
        },
        {
          "internalType": "bool",
          "name": "votesYay",
          "type": "bool"
        }
      ],
      "name": "vote",
      "outputs": [
        {
          "internalType": "bool",
          "name": "success",
          "type": "bool"
        }
      ],
      "payable": true,
      "stateMutability": "payable",
      "type": "function"
    },
    {
      "constant": false,
      "inputs": [],
      "name": "updateEthEarned",
      "outputs": [
        {
          "internalType": "uint256",
          "name": "",
          "type": "uint256"
        }
      ],
      "payable": false,
      "stateMutability": "nonpayable",
      "type": "function"
    },
    {
      "constant": true,
      "inputs": [],
      "name": "get_withdraw",
      "outputs": [
        {
          "internalType": "uint256",
          "name": "",
          "type": "uint256"
        }
      ],
      "payable": false,
      "stateMutability": "view",
      "type": "function"
    },
    {
      "constant": true,
      "inputs": [],
      "name": "get_staked",
      "outputs": [
        {
          "internalType": "uint256",
          "name": "",
          "type": "uint256"
        }
      ],
      "payable": false,
      "stateMutability": "view",
      "type": "function"
    },
    {
      "constant": true,
      "inputs": [
        {
          "internalType": "uint256",
          "name": "i",
          "type": "uint256"
        },
        {
          "internalType": "bool",
          "name": "ownerProposal",
          "type": "bool"
        }
      ],
      "name": "get_proposals",
      "outputs": [
        {
          "internalType": "uint256",
          "name": "",
          "type": "uint256"
        },
        {
          "internalType": "address",
          "name": "",
          "type": "address"
        },
        {
          "internalType": "string",
          "name": "",
          "type": "string"
        },
        {
          "internalType": "uint256",
          "name": "",
          "type": "uint256"
        },
        {
          "internalType": "uint256",
          "name": "",
          "type": "uint256"
        },
        {
          "internalType": "uint256",
          "name": "",
          "type": "uint256"
        },
        {
          "internalType": "uint256",
          "name": "",
          "type": "uint256"
        },
        {
          "internalType": "uint256",
          "name": "",
          "type": "uint256"
        },
        {
          "internalType": "uint256",
          "name": "",
          "type": "uint256"
        }
      ],
      "payable": false,
      "stateMutability": "view",
      "type": "function"
    },
    {
      "constant": true,
      "inputs": [
        {
          "internalType": "uint256",
          "name": "id",
          "type": "uint256"
        }
      ],
      "name": "get_votes",
      "outputs": [
        {
          "internalType": "uint256",
          "name": "",
          "type": "uint256"
        }
      ],
      "payable": false,
      "stateMutability": "view",
      "type": "function"
    },
    {
      "constant": false,
      "inputs": [],
      "name": "withdrawEth",
      "outputs": [
        {
          "internalType": "bool",
          "name": "success",
          "type": "bool"
        }
      ],
      "payable": true,
      "stateMutability": "payable",
      "type": "function"
    }
  ],
  "bytecode": "0x608060405234801561001057600080fd5b50336000806101000a81548173ffffffffffffffffffffffffffffffffffffffff021916908373ffffffffffffffffffffffffffffffffffffffff1602179055504360088190555061347c806100676000396000f3fe6080604052600436106100e85760003560e01c806385d7305e1161008a578063c9d27afe11610059578063c9d27afe146104f4578063d1dbe7d814610546578063e0eb62281461065e578063f851a44014610689576100e8565b806385d7305e146103fb578063871fd776146104265780639ac914a814610483578063a0ef91df146104d2576100e8565b80633bdb6e6e116100c65780633bdb6e6e1461026757806346f81a87146102925780635d613d431461036b5780637a1a8c6114610396576100e8565b80631f3e7d1c146100ed5780632552317c146102115780632aa50b041461023c575b600080fd5b3480156100f957600080fd5b506101326004803603604081101561011057600080fd5b81019080803590602001909291908035151590602001909291905050506106e0565b604051808a81526020018973ffffffffffffffffffffffffffffffffffffffff1673ffffffffffffffffffffffffffffffffffffffff16815260200180602001888152602001878152602001868152602001858152602001848152602001838152602001828103825289818151815260200191508051906020019080838360005b838110156101ce5780820151818401526020810190506101b3565b50505050905090810190601f1680156101fb5780820380516001836020036101000a031916815260200191505b509a505050505050505050505060405180910390f35b34801561021d57600080fd5b50610226610b97565b6040518082815260200191505060405180910390f35b34801561024857600080fd5b50610251610b9d565b6040518082815260200191505060405180910390f35b34801561027357600080fd5b5061027c610ba3565b6040518082815260200191505060405180910390f35b610355600480360360408110156102a857600080fd5b81019080803590602001906401000000008111156102c557600080fd5b8201836020820111156102d757600080fd5b803590602001918460018302840111640100000000831117156102f957600080fd5b91908080601f016020809104026020016040519081016040528093929190818152602001838380828437600081840152601f19601f82011690508083019250505050505050919291929080359060200190929190505050610fa4565b6040518082815260200191505060405180910390f35b34801561037757600080fd5b50610380611939565b6040518082815260200191505060405180910390f35b3480156103a257600080fd5b506103e5600480360360208110156103b957600080fd5b81019080803573ffffffffffffffffffffffffffffffffffffffff169060200190929190505050611980565b6040518082815260200191505060405180910390f35b34801561040757600080fd5b50610410611998565b6040518082815260200191505060405180910390f35b34801561043257600080fd5b5061045f6004803603602081101561044957600080fd5b810190808035906020019092919050505061199e565b6040518082600281111561046f57fe5b60ff16815260200191505060405180910390f35b34801561048f57600080fd5b506104bc600480360360208110156104a657600080fd5b81019080803590602001909291905050506119be565b6040518082815260200191505060405180910390f35b6104da611a30565b604051808215151515815260200191505060405180910390f35b61052c6004803603604081101561050a57600080fd5b8101908080359060200190929190803515159060200190929190505050611f95565b604051808215151515815260200191505060405180910390f35b34801561055257600080fd5b5061057f6004803603602081101561056957600080fd5b8101908080359060200190929190505050612a23565b604051808a81526020018973ffffffffffffffffffffffffffffffffffffffff1673ffffffffffffffffffffffffffffffffffffffff16815260200180602001888152602001878152602001868152602001858152602001848152602001838152602001828103825289818151815260200191508051906020019080838360005b8381101561061b578082015181840152602081019050610600565b50505050905090810190601f1680156106485780820380516001836020036101000a031916815260200191505b509a505050505050505050505060405180910390f35b34801561066a57600080fd5b50610673612b29565b6040518082815260200191505060405180910390f35b34801561069557600080fd5b5061069e612b70565b604051808273ffffffffffffffffffffffffffffffffffffffff1673ffffffffffffffffffffffffffffffffffffffff16815260200191505060405180910390f35b60008060606000806000806000806106f66132cf565b8a1561096e57600760003373ffffffffffffffffffffffffffffffffffffffff1673ffffffffffffffffffffffffffffffffffffffff168152602001908152602001600020548c106107b0576040517f08c379a000000000000000000000000000000000000000000000000000000000815260040180806020018281038252600d8152602001807f496e76616c696420696e6465780000000000000000000000000000000000000081525060200191505060405180910390fd5b6000600660003373ffffffffffffffffffffffffffffffffffffffff1673ffffffffffffffffffffffffffffffffffffffff1681526020019081526020016000208d815481106107fc57fe5b906000526020600020015490506002600082815260200190815260200160002060405180610120016040529081600082015481526020016001820160009054906101000a900473ffffffffffffffffffffffffffffffffffffffff1673ffffffffffffffffffffffffffffffffffffffff1673ffffffffffffffffffffffffffffffffffffffff168152602001600282018054600181600116156101000203166002900480601f0160208091040260200160405190810160405280929190818152602001828054600181600116156101000203166002900480156109215780601f106108f657610100808354040283529160200191610921565b820191906000526020600020905b81548152906001019060200180831161090457829003601f168201915b505050505081526020016003820154815260200160048201548152602001600582015481526020016006820154815260200160078201548152602001600882015481525050915050610b46565b6001548c11156109e6576040517f08c379a00000000000000000000000000000000000000000000000000000000081526004018080602001828103825260178152602001807f50726f706f73616c20646f6573206e6f7420657869737400000000000000000081525060200191505060405180910390fd5b600260008d815260200190815260200160002060405180610120016040529081600082015481526020016001820160009054906101000a900473ffffffffffffffffffffffffffffffffffffffff1673ffffffffffffffffffffffffffffffffffffffff1673ffffffffffffffffffffffffffffffffffffffff168152602001600282018054600181600116156101000203166002900480601f016020809104026020016040519081016040528092919081815260200182805460018160011615610100020316600290048015610afe5780601f10610ad357610100808354040283529160200191610afe565b820191906000526020600020905b815481529060010190602001808311610ae157829003601f168201915b50505050508152602001600382015481526020016004820154815260200160058201548152602001600682015481526020016007820154815260200160088201548152505090505b806000015181602001518260400151836060015184608001518560a001518660c001518760e00151886101000151869650995099509950995099509950995099509950509295985092959850929598565b60085481565b60055481565b6000804390506000610bc16001600854612b9590919063ffffffff16565b90505b818111610f4c57606060036000838152602001908152602001600020805480602002602001604051908101604052809291908181526020018280548015610c2a57602002820191906000526020600020905b815481526020019060010190808311610c16575b5050505050905060008151905060008090505b81811015610f1d576000838281518110610c5357fe5b60200260200101519050610c656132cf565b6002600083815260200190815260200160002060405180610120016040529081600082015481526020016001820160009054906101000a900473ffffffffffffffffffffffffffffffffffffffff1673ffffffffffffffffffffffffffffffffffffffff1673ffffffffffffffffffffffffffffffffffffffff168152602001600282018054600181600116156101000203166002900480601f016020809104026020016040519081016040528092919081815260200182805460018160011615610100020316600290048015610d7d5780601f10610d5257610100808354040283529160200191610d7d565b820191906000526020600020905b815481529060010190602001808311610d6057829003601f168201915b5050505050815260200160038201548152602001600482015481526020016005820154815260200160068201548152602001600782015481526020016008820154815250509050806080015181606001511115610e0e576001600a600084815260200190815260200160002060006101000a81548160ff02191690836002811115610e0457fe5b0217905550610e8f565b806080015181606001511015610e58576002600a600084815260200190815260200160002060006101000a81548160ff02191690836002811115610e4e57fe5b0217905550610e8e565b6000600a600084815260200190815260200160002060006101000a81548160ff02191690836002811115610e8857fe5b02179055505b5b6004829080600181540180825580915050906001820390600052602060002001600090919290919091505550610ed16001600554612b9590919063ffffffff16565b6005819055507fdeb3fef274c9d29355266cba0a3c2a52d67eb1ef404a207ba6ef5916ba102090826040518082815260200191505060405180910390a150508080600101915050610c3d565b50600360008481526020019081526020016000206000610f3d9190613331565b50508080600101915050610bc4565b508060088190555060008090505b600480549050811015610f9557610f883360048381548110610f7857fe5b9060005260206000200154612baf565b8080600101915050610f5a565b50610f9e612b29565b91505090565b6000804390506000610fc26001600854612b9590919063ffffffff16565b90505b81811161134d5760606003600083815260200190815260200160002080548060200260200160405190810160405280929190818152602001828054801561102b57602002820191906000526020600020905b815481526020019060010190808311611017575b5050505050905060008151905060008090505b8181101561131e57600083828151811061105457fe5b602002602001015190506110666132cf565b6002600083815260200190815260200160002060405180610120016040529081600082015481526020016001820160009054906101000a900473ffffffffffffffffffffffffffffffffffffffff1673ffffffffffffffffffffffffffffffffffffffff1673ffffffffffffffffffffffffffffffffffffffff168152602001600282018054600181600116156101000203166002900480601f01602080910402602001604051908101604052809291908181526020018280546001816001161561010002031660029004801561117e5780601f106111535761010080835404028352916020019161117e565b820191906000526020600020905b81548152906001019060200180831161116157829003601f168201915b505050505081526020016003820154815260200160048201548152602001600582015481526020016006820154815260200160078201548152602001600882015481525050905080608001518160600151111561120f576001600a600084815260200190815260200160002060006101000a81548160ff0219169083600281111561120557fe5b0217905550611290565b806080015181606001511015611259576002600a600084815260200190815260200160002060006101000a81548160ff0219169083600281111561124f57fe5b021790555061128f565b6000600a600084815260200190815260200160002060006101000a81548160ff0219169083600281111561128957fe5b02179055505b5b60048290806001815401808255809150509060018203906000526020600020016000909192909190915055506112d26001600554612b9590919063ffffffff16565b6005819055507fdeb3fef274c9d29355266cba0a3c2a52d67eb1ef404a207ba6ef5916ba102090826040518082815260200191505060405180910390a15050808060010191505061103e565b5060036000848152602001908152602001600020600061133e9190613331565b50508080600101915050610fc5565b508060088190555066038d7ea4c680003410156113b5576040517f08c379a000000000000000000000000000000000000000000000000000000000815260040180806020018281038252602d8152602001806133f8602d913960400191505060405180910390fd5b6000831161142b576040517f08c379a000000000000000000000000000000000000000000000000000000000815260040180806020018281038252601a8152602001807f456e6420626c6f636b206e756d62657220756e646566696e656400000000000081525060200191505060405180910390fd5b600061144260018054612b9590919063ffffffff16565b90508060018190555060006114608543612b9590919063ffffffff16565b9050600061148b606461147d605a3461327090919063ffffffff16565b6132a490919063ffffffff16565b90506114956132cf565b6040518061012001604052808581526020013373ffffffffffffffffffffffffffffffffffffffff16815260200189815260200134815260200160008152602001348152602001438152602001848152602001838152509050806002600060015481526020019081526020016000206000820151816000015560208201518160010160006101000a81548173ffffffffffffffffffffffffffffffffffffffff021916908373ffffffffffffffffffffffffffffffffffffffff1602179055506040820151816002019080519060200190611571929190613352565b50606082015181600301556080820151816004015560a0820151816005015560c0820151816006015560e082015181600701556101008201518160080155905050600360008260e001518152602001908152602001600020849080600181540180825580915050906001820390600052602060002001600090919290919091505550600660003373ffffffffffffffffffffffffffffffffffffffff1673ffffffffffffffffffffffffffffffffffffffff1681526020019081526020016000208490806001815401808255809150509060018203906000526020600020016000909192909190915055506116af6001600760003373ffffffffffffffffffffffffffffffffffffffff1673ffffffffffffffffffffffffffffffffffffffff16815260200190815260200160002054612b9590919063ffffffff16565b600760003373ffffffffffffffffffffffffffffffffffffffff1673ffffffffffffffffffffffffffffffffffffffff1681526020019081526020016000208190555060016009600086815260200190815260200160002060003373ffffffffffffffffffffffffffffffffffffffff1673ffffffffffffffffffffffffffffffffffffffff16815260200190815260200160002060006101000a81548160ff0219169083600281111561175f57fe5b021790555034600b600086815260200190815260200160002060006001600281111561178757fe5b815260200190815260200160002060003373ffffffffffffffffffffffffffffffffffffffff1673ffffffffffffffffffffffffffffffffffffffff1681526020019081526020016000208190555061182834600d60003373ffffffffffffffffffffffffffffffffffffffff1673ffffffffffffffffffffffffffffffffffffffff16815260200190815260200160002054612b9590919063ffffffff16565b600d60003373ffffffffffffffffffffffffffffffffffffffff1673ffffffffffffffffffffffffffffffffffffffff168152602001908152602001600020819055503073ffffffffffffffffffffffffffffffffffffffff163373ffffffffffffffffffffffffffffffffffffffff167fddf252ad1be2c89b69c2b068fc378daa952ba7f163c4a11628f55a4df523b3ef346040518082815260200191505060405180910390a33373ffffffffffffffffffffffffffffffffffffffff167f749addf8eadeff63c43be59c27331be5c6d4fc9e82bbfbcf162321c9b35a95b485600160405180838152602001821515151581526020019250505060405180910390a2839550505050505092915050565b6000600d60003373ffffffffffffffffffffffffffffffffffffffff1673ffffffffffffffffffffffffffffffffffffffff16815260200190815260200160002054905090565b60076020528060005260406000206000915090505481565b60015481565b600a6020528060005260406000206000915054906101000a900460ff1681565b60006009600083815260200190815260200160002060003373ffffffffffffffffffffffffffffffffffffffff1673ffffffffffffffffffffffffffffffffffffffff16815260200190815260200160002060009054906101000a900460ff166002811115611a2957fe5b9050919050565b6000804390506000611a4e6001600854612b9590919063ffffffff16565b90505b818111611dd957606060036000838152602001908152602001600020805480602002602001604051908101604052809291908181526020018280548015611ab757602002820191906000526020600020905b815481526020019060010190808311611aa3575b5050505050905060008151905060008090505b81811015611daa576000838281518110611ae057fe5b60200260200101519050611af26132cf565b6002600083815260200190815260200160002060405180610120016040529081600082015481526020016001820160009054906101000a900473ffffffffffffffffffffffffffffffffffffffff1673ffffffffffffffffffffffffffffffffffffffff1673ffffffffffffffffffffffffffffffffffffffff168152602001600282018054600181600116156101000203166002900480601f016020809104026020016040519081016040528092919081815260200182805460018160011615610100020316600290048015611c0a5780601f10611bdf57610100808354040283529160200191611c0a565b820191906000526020600020905b815481529060010190602001808311611bed57829003601f168201915b5050505050815260200160038201548152602001600482015481526020016005820154815260200160068201548152602001600782015481526020016008820154815250509050806080015181606001511115611c9b576001600a600084815260200190815260200160002060006101000a81548160ff02191690836002811115611c9157fe5b0217905550611d1c565b806080015181606001511015611ce5576002600a600084815260200190815260200160002060006101000a81548160ff02191690836002811115611cdb57fe5b0217905550611d1b565b6000600a600084815260200190815260200160002060006101000a81548160ff02191690836002811115611d1557fe5b02179055505b5b6004829080600181540180825580915050906001820390600052602060002001600090919290919091505550611d5e6001600554612b9590919063ffffffff16565b6005819055507fdeb3fef274c9d29355266cba0a3c2a52d67eb1ef404a207ba6ef5916ba102090826040518082815260200191505060405180910390a150508080600101915050611aca565b50600360008481526020019081526020016000206000611dca9190613331565b50508080600101915050611a51565b50806008819055506000600c60003373ffffffffffffffffffffffffffffffffffffffff1673ffffffffffffffffffffffffffffffffffffffff16815260200190815260200160002054905060008111611e9b576040517f08c379a000000000000000000000000000000000000000000000000000000000815260040180806020018281038252601e8152602001807f4e6f2066756e647320617661696c61626c6520746f207769746864726177000081525060200191505060405180910390fd5b3373ffffffffffffffffffffffffffffffffffffffff166108fc829081150290604051600060405180830381858888f19350505050158015611ee1573d6000803e3d6000fd5b506000600c60003373ffffffffffffffffffffffffffffffffffffffff1673ffffffffffffffffffffffffffffffffffffffff168152602001908152602001600020819055503373ffffffffffffffffffffffffffffffffffffffff163073ffffffffffffffffffffffffffffffffffffffff167fddf252ad1be2c89b69c2b068fc378daa952ba7f163c4a11628f55a4df523b3ef836040518082815260200191505060405180910390a360019250505090565b6000804390506000611fb36001600854612b9590919063ffffffff16565b90505b81811161233e5760606003600083815260200190815260200160002080548060200260200160405190810160405280929190818152602001828054801561201c57602002820191906000526020600020905b815481526020019060010190808311612008575b5050505050905060008151905060008090505b8181101561230f57600083828151811061204557fe5b602002602001015190506120576132cf565b6002600083815260200190815260200160002060405180610120016040529081600082015481526020016001820160009054906101000a900473ffffffffffffffffffffffffffffffffffffffff1673ffffffffffffffffffffffffffffffffffffffff1673ffffffffffffffffffffffffffffffffffffffff168152602001600282018054600181600116156101000203166002900480601f01602080910402602001604051908101604052809291908181526020018280546001816001161561010002031660029004801561216f5780601f106121445761010080835404028352916020019161216f565b820191906000526020600020905b81548152906001019060200180831161215257829003601f168201915b5050505050815260200160038201548152602001600482015481526020016005820154815260200160068201548152602001600782015481526020016008820154815250509050806080015181606001511115612200576001600a600084815260200190815260200160002060006101000a81548160ff021916908360028111156121f657fe5b0217905550612281565b80608001518160600151101561224a576002600a600084815260200190815260200160002060006101000a81548160ff0219169083600281111561224057fe5b0217905550612280565b6000600a600084815260200190815260200160002060006101000a81548160ff0219169083600281111561227a57fe5b02179055505b5b60048290806001815401808255809150509060018203906000526020600020016000909192909190915055506122c36001600554612b9590919063ffffffff16565b6005819055507fdeb3fef274c9d29355266cba0a3c2a52d67eb1ef404a207ba6ef5916ba102090826040518082815260200191505060405180910390a15050808060010191505061202f565b5060036000848152602001908152602001600020600061232f9190613331565b50508080600101915050611fb6565b50806008819055506001548411156123be576040517f08c379a00000000000000000000000000000000000000000000000000000000081526004018080602001828103825260108152602001807f496e76616c69642070726f706f73616c0000000000000000000000000000000081525060200191505060405180910390fd5b600060028111156123cb57fe5b6009600086815260200190815260200160002060003373ffffffffffffffffffffffffffffffffffffffff1673ffffffffffffffffffffffffffffffffffffffff16815260200190815260200160002060009054906101000a900460ff16600281111561243457fe5b146124a7576040517f08c379a00000000000000000000000000000000000000000000000000000000081526004018080602001828103825260128152602001807f43616e206e6f7420766f7465207477696365000000000000000000000000000081525060200191505060405180910390fd5b600060026000868152602001908152602001600020905043816007015411612537576040517f08c379a000000000000000000000000000000000000000000000000000000000815260040180806020018281038252601c8152602001807f50726f706f73616c206973206e6f206c6f6e676572206163746976650000000081525060200191505060405180910390fd5b8060080154341115612594576040517f08c379a00000000000000000000000000000000000000000000000000000000081526004018080602001828103825260238152602001806134256023913960400191505060405180910390fd5b6125ab348260050154612b9590919063ffffffff16565b816005018190555061260534600d60003373ffffffffffffffffffffffffffffffffffffffff1673ffffffffffffffffffffffffffffffffffffffff16815260200190815260200160002054612b9590919063ffffffff16565b600d60003373ffffffffffffffffffffffffffffffffffffffff1673ffffffffffffffffffffffffffffffffffffffff1681526020019081526020016000208190555083156127565760016009600087815260200190815260200160002060003373ffffffffffffffffffffffffffffffffffffffff1673ffffffffffffffffffffffffffffffffffffffff16815260200190815260200160002060006101000a81548160ff021916908360028111156126bb57fe5b021790555034600b60008781526020019081526020016000206000600160028111156126e357fe5b815260200190815260200160002060003373ffffffffffffffffffffffffffffffffffffffff1673ffffffffffffffffffffffffffffffffffffffff16815260200190815260200160002081905550612749348260030154612b9590919063ffffffff16565b8160030181905550612859565b60026009600087815260200190815260200160002060003373ffffffffffffffffffffffffffffffffffffffff1673ffffffffffffffffffffffffffffffffffffffff16815260200190815260200160002060006101000a81548160ff021916908360028111156127c357fe5b021790555034600b600087815260200190815260200160002060006002808111156127ea57fe5b815260200190815260200160002060003373ffffffffffffffffffffffffffffffffffffffff1673ffffffffffffffffffffffffffffffffffffffff16815260200190815260200160002081905550612850348260040154612b9590919063ffffffff16565b81600401819055505b600660003373ffffffffffffffffffffffffffffffffffffffff1673ffffffffffffffffffffffffffffffffffffffff1681526020019081526020016000208590806001815401808255809150509060018203906000526020600020016000909192909190915055506129156001600760003373ffffffffffffffffffffffffffffffffffffffff1673ffffffffffffffffffffffffffffffffffffffff16815260200190815260200160002054612b9590919063ffffffff16565b600760003373ffffffffffffffffffffffffffffffffffffffff1673ffffffffffffffffffffffffffffffffffffffff168152602001908152602001600020819055503073ffffffffffffffffffffffffffffffffffffffff163373ffffffffffffffffffffffffffffffffffffffff167fddf252ad1be2c89b69c2b068fc378daa952ba7f163c4a11628f55a4df523b3ef346040518082815260200191505060405180910390a33373ffffffffffffffffffffffffffffffffffffffff167f749addf8eadeff63c43be59c27331be5c6d4fc9e82bbfbcf162321c9b35a95b4868660405180838152602001821515151581526020019250505060405180910390a260019250505092915050565b60026020528060005260406000206000915090508060000154908060010160009054906101000a900473ffffffffffffffffffffffffffffffffffffffff1690806002018054600181600116156101000203166002900480601f016020809104026020016040519081016040528092919081815260200182805460018160011615610100020316600290048015612afb5780601f10612ad057610100808354040283529160200191612afb565b820191906000526020600020905b815481529060010190602001808311612ade57829003601f168201915b5050505050908060030154908060040154908060050154908060060154908060070154908060080154905089565b6000600c60003373ffffffffffffffffffffffffffffffffffffffff1673ffffffffffffffffffffffffffffffffffffffff16815260200190815260200160002054905090565b6000809054906101000a900473ffffffffffffffffffffffffffffffffffffffff1681565b6000818301905082811015612ba657fe5b80905092915050565b6000600d60008473ffffffffffffffffffffffffffffffffffffffff1673ffffffffffffffffffffffffffffffffffffffff16815260200190815260200160002054111561326c57612bff6132cf565b6002600083815260200190815260200160002060405180610120016040529081600082015481526020016001820160009054906101000a900473ffffffffffffffffffffffffffffffffffffffff1673ffffffffffffffffffffffffffffffffffffffff1673ffffffffffffffffffffffffffffffffffffffff168152602001600282018054600181600116156101000203166002900480601f016020809104026020016040519081016040528092919081815260200182805460018160011615610100020316600290048015612d175780601f10612cec57610100808354040283529160200191612d17565b820191906000526020600020905b815481529060010190602001808311612cfa57829003601f168201915b50505050508152602001600382015481526020016004820154815260200160058201548152602001600682015481526020016007820154815260200160088201548152505090506000600a600084815260200190815260200160002060009054906101000a900460ff166002811115612d8c57fe5b90506000806001831415612e6457600b6000868152602001908152602001600020600084815260200190815260200160002060008773ffffffffffffffffffffffffffffffffffffffff1673ffffffffffffffffffffffffffffffffffffffff1681526020019081526020016000205490506000846060015190506000612e2f82612e2160648661327090919063ffffffff16565b6132a490919063ffffffff16565b9050612e5b6064612e4d838960a0015161327090919063ffffffff16565b6132a490919063ffffffff16565b93505050613066565b6002831415612f3757600b6000868152602001908152602001600020600084815260200190815260200160002060008773ffffffffffffffffffffffffffffffffffffffff1673ffffffffffffffffffffffffffffffffffffffff1681526020019081526020016000205490506000846080015190506000612f0282612ef460648661327090919063ffffffff16565b6132a490919063ffffffff16565b9050612f2e6064612f20838960a0015161327090919063ffffffff16565b6132a490919063ffffffff16565b93505050613065565b600b600086815260200190815260200160002060006009600088815260200190815260200160002060008973ffffffffffffffffffffffffffffffffffffffff1673ffffffffffffffffffffffffffffffffffffffff16815260200190815260200160002060009054906101000a900460ff166002811115612fb557fe5b815260200190815260200160002060008773ffffffffffffffffffffffffffffffffffffffff1673ffffffffffffffffffffffffffffffffffffffff16815260200190815260200160002054905060008460a00151905060006130348261302660648661327090919063ffffffff16565b6132a490919063ffffffff16565b90506130606064613052838960a0015161327090919063ffffffff16565b6132a490919063ffffffff16565b935050505b5b6000811115613105576130c181600d60008973ffffffffffffffffffffffffffffffffffffffff1673ffffffffffffffffffffffffffffffffffffffff168152602001908152602001600020546132b890919063ffffffff16565b600d60008873ffffffffffffffffffffffffffffffffffffffff1673ffffffffffffffffffffffffffffffffffffffff168152602001908152602001600020819055505b61315782600c60008973ffffffffffffffffffffffffffffffffffffffff1673ffffffffffffffffffffffffffffffffffffffff16815260200190815260200160002054612b9590919063ffffffff16565b600c60008873ffffffffffffffffffffffffffffffffffffffff1673ffffffffffffffffffffffffffffffffffffffff16815260200190815260200160002081905550600b600086815260200190815260200160002060006009600088815260200190815260200160002060008973ffffffffffffffffffffffffffffffffffffffff1673ffffffffffffffffffffffffffffffffffffffff16815260200190815260200160002060009054906101000a900460ff16600281111561321857fe5b815260200190815260200160002060008773ffffffffffffffffffffffffffffffffffffffff1673ffffffffffffffffffffffffffffffffffffffff16815260200190815260200160002060009055505050505b5050565b600080831415613283576000905061329e565b81830290508183828161329257fe5b041461329a57fe5b8090505b92915050565b60008183816132af57fe5b04905092915050565b6000828211156132c457fe5b818303905092915050565b60405180610120016040528060008152602001600073ffffffffffffffffffffffffffffffffffffffff168152602001606081526020016000815260200160008152602001600081526020016000815260200160008152602001600081525090565b508054600082559060005260206000209081019061334f91906133d2565b50565b828054600181600116156101000203166002900490600052602060002090601f016020900481019282601f1061339357805160ff19168380011785556133c1565b828001600101855582156133c1579182015b828111156133c05782518255916020019190600101906133a5565b5b5090506133ce91906133d2565b5090565b6133f491905b808211156133f05760008160009055506001016133d8565b5090565b9056fe4465706f73697420646f6573206e6f74206d65657420746865206d696e696d756d20726571756972656d656e744465706f73697420657863656564656420746865206d6178696d756d20616d6f756e74a265627a7a723158206c63f953278add574cf242e023055f87fa988b909e14f652a0193c1367d9015464736f6c63430005100032",
  "source": "// Contract where users submit a proposal and cast votes, using staked ether.\n\npragma solidity ^0.5.0;\n\nimport \"./lib/SafeMath.sol\";\n\ncontract Vote {\n    \n    using SafeMath for uint256;\n    address public admin;\n\n    constructor() public {\n        admin = msg.sender;\n        lastBlockNumber = block.number;\n    }\n\n    /**\n     * This struct defines the Proposal object.\n     * @param id - Unique identifier for the proposal.\n     * @param proposer - The address created the proposal.\n     * @param title - The description of the proposal.\n     * @param yay_count - Count votes in proportion to their deposit eth amount for the proposal.\n     * @param nay_count - Count votes in proportion to their deposit eth amount against the proposal.\n     * @param deposit_balance - The total amount of ETH deposited for the proposal.\n     * @param begin_block_number - The block number when the proposal is created.\n     * @param end_block_number - The block number when the proposal becomes inactive.\n     * @param max_deposit - The maximum amount of ETH can be staked by the voters to avoid manipulation of the vote consensus.\n     */\n    struct Proposal {\n        uint256 id;\n        address proposer;\n        string title;\n        uint256 yay_count;\n        uint256 nay_count;\n        uint256 deposit_balance;\n        uint256 begin_block_number;\n        uint256 end_block_number;\n        uint256 max_deposit;\n    }\n\n    enum Voter_Status {\n        UNDECIDED,\n        YAY,\n        NAY\n    }\n\n    // Proposal Variables\n    uint256 public total_proposals;\n    mapping (uint256 => Proposal) public Proposals; // Find the proposals with the given ID.\n    mapping (uint256 => uint256[]) internal active_proposals; // block end number mapped to array of proposal ids.\n    uint256[] internal inactiveIds; // track inactive proposals to claim eth.\n    uint256 public endProp_count; // counts the number of inactive proposals.\n    mapping (address => uint256[]) internal myProposalIds; // users to locate their created/voted proposal by id.\n    mapping (address => uint256) public myProposal_count; // counts the number of proposals the user created.\n\n    // Keep track of processed block number\n    uint public lastBlockNumber;\n\n    // Votes variables\n    mapping (uint256 => mapping (address => Voter_Status)) internal addressToVote; // Show votes given by address and id.\n    mapping (uint256 => Voter_Status) public winVotes; // Proposal majority votes.\n\n    // Funds variables.\n    mapping (uint256 => mapping (uint => mapping (address => uint256))) internal votingStake; // Show the amount of eth staked for the vote\n    mapping (address => uint256) internal withdraw; // Keeping track of user withdrawable amount.\n    mapping (address => uint256) internal totalStake; // Keeping track of the user's total staked ETH.\n\n    event Transfer(address indexed _from, address indexed _to, uint256 amount); // Transfer of ETH event.\n    event Voted(address indexed _voter, uint256 id, bool votesYay); // Users cast votes event.\n    event EndOfProposal(uint256 id); // Proposal ended event trigger.\n\n    /**\n     * @dev Modifier to be called periodically to detect proposals that are no longer active and call for the winner.\n     */\n    modifier checkWinner() {\n        // update proposals since last update to current block number.\n        uint256 current = block.number;\n        for (uint i = lastBlockNumber.add(1); i <= current; i++) {\n            uint256[] memory endProposalIds = active_proposals[i];\n            uint n = endProposalIds.length;\n            for (uint j = 0; j < n; j++) {\n                uint id = endProposalIds[j];\n                Proposal memory prop = Proposals[id];\n                if (prop.yay_count > prop.nay_count) {\n                    winVotes[id] = Voter_Status.YAY;\n                }\n                else if (prop.yay_count < prop.nay_count) {\n                    winVotes[id] = Voter_Status.NAY;\n                }\n                else {\n                    winVotes[id] = Voter_Status.UNDECIDED;\n                }\n                inactiveIds.push(id);\n                endProp_count = endProp_count.add(1);\n                emit EndOfProposal(id);\n            }\n            delete active_proposals[i];\n        }\n        lastBlockNumber = current;\n        _;\n    }\n\n    /** \n     * @dev Function to calculate earnings from winning proposals.\n     */\n    function earnedEth(address _winner, uint256 id) internal {\n        if (totalStake[_winner] > 0) {\n            Proposal memory prop = Proposals[id];\n            uint wonVote = uint(winVotes[id]);\n            uint earned;\n            uint stake;\n            if (wonVote == 1) {\n                stake = votingStake[id][wonVote][_winner];\n                uint total = prop.yay_count;\n                uint percent = stake.mul(100).div(total);\n                earned = prop.deposit_balance.mul(percent).div(100);\n            } else if (wonVote == 2) {\n                stake = votingStake[id][wonVote][_winner];\n                uint total = prop.nay_count;\n                uint percent = stake.mul(100).div(total);\n                earned = prop.deposit_balance.mul(percent).div(100);\n            } else {\n                stake = votingStake[id][uint(addressToVote[id][_winner])][_winner];\n                uint total = prop.deposit_balance;\n                uint percent = stake.mul(100).div(total);\n                earned = prop.deposit_balance.mul(percent).div(100);\n            }\n            if (stake > 0) {\n                totalStake[_winner] = totalStake[_winner].sub(stake);\n            }\n            withdraw[_winner] = withdraw[_winner].add(earned);\n            delete votingStake[id][uint(addressToVote[id][_winner])][_winner];\n        }\n    }\n\n    /**\n     * @dev Function to create a proposal, requires a minimum deposit amount of 0.001 ETH.\n     * @return The proposal id\n     */\n    function create(string memory title, uint endOffset) public payable checkWinner() returns(uint256) {\n        require(msg.value >= 0.001 ether, \"Deposit does not meet the minimum requirement\");\n        require(endOffset > 0, \"End block number undefined\");\n\n        uint id = total_proposals.add(1);\n        total_proposals = id;\n        uint endBlock = block.number.add(endOffset);\n        uint maximum = msg.value.mul(90).div(100); // voters can only deposit 90% of the proposer's amount at most -- prevention of whales.\n        Proposal memory newProposal = Proposal(id, msg.sender, title, msg.value, 0, msg.value, block.number, endBlock, maximum);\n        Proposals[total_proposals] = newProposal;\n        active_proposals[newProposal.end_block_number].push(id);\n        myProposalIds[msg.sender].push(id);\n        myProposal_count[msg.sender] = myProposal_count[msg.sender].add(1);\n\n        // Proposer votes yay by default.\n        addressToVote[id][msg.sender] = Voter_Status.YAY;\n        votingStake[id][uint(Voter_Status.YAY)][msg.sender] = msg.value;\n        totalStake[msg.sender] = totalStake[msg.sender].add(msg.value);\n\n        emit Transfer(msg.sender, address(this), msg.value);\n        emit Voted(msg.sender, id, true);\n\n        return id;\n    }\n\n    /**\n     * @dev Function to vote on a proposal.\n     */\n    function vote(uint256 id, bool votesYay) public payable checkWinner() returns(bool success) {\n        require(id <= total_proposals, \"Invalid proposal\");\n        require(addressToVote[id][msg.sender] == Voter_Status.UNDECIDED, \"Can not vote twice\");\n        Proposal storage proposal = Proposals[id];\n        require(proposal.end_block_number > block.number, \"Proposal is no longer active\");\n        require(msg.value <= proposal.max_deposit, \"Deposit exceeded the maximum amount\");\n\n        proposal.deposit_balance = proposal.deposit_balance.add(msg.value);\n        totalStake[msg.sender] = totalStake[msg.sender].add(msg.value);\n\n        if (votesYay) {\n            addressToVote[id][msg.sender] = Voter_Status.YAY;\n            votingStake[id][uint(Voter_Status.YAY)][msg.sender] = msg.value;\n            proposal.yay_count = proposal.yay_count.add(msg.value);\n        }\n        else {\n            addressToVote[id][msg.sender] = Voter_Status.NAY;\n            votingStake[id][uint(Voter_Status.NAY)][msg.sender] = msg.value;\n            proposal.nay_count = proposal.nay_count.add(msg.value);\n        }\n\n        myProposalIds[msg.sender].push(id);\n        myProposal_count[msg.sender] = myProposal_count[msg.sender].add(1);\n\n        emit Transfer(msg.sender, address(this), msg.value);\n        emit Voted(msg.sender, id, votesYay);\n\n        return true;\n    }\n\n    /**\n     * @dev User-callable function to update their withdrawable earnings.\n     * TEMP: I need to figure out a way to shrink inactiveIds. This function call can become very expensive, if not fixed.\n     */\n    function updateEthEarned() public checkWinner() returns(uint256) {\n        for (uint i = 0; i < inactiveIds.length; i++) {\n            earnedEth(msg.sender, inactiveIds[i]);\n        }\n        return get_withdraw();\n    }\n\n    /**\n     * @dev User-callable function to get their withdrawable amount. It is recommended to invoke updateEthEarned() first.\n     */\n    function get_withdraw() public view returns(uint256) {\n        return withdraw[msg.sender];\n    }\n\n    /**\n     * @dev User-callable function to get their staked ETH amount\n     */\n    function get_staked() public view returns(uint256) {\n        return totalStake[msg.sender];\n    }\n\n    /**\n     * @dev User-callable function for proposer owners to look at their proposals or find a proposal in general.\n     * @dev if ownerProposal is true, i is used as index of the myProposal Array. Otherwise, it is simply the proposal id.\n     * @return the values that comform to the Proposal object.\n     */\n    function get_proposals(uint i, bool ownerProposal) public view returns(uint256, address, string memory, uint256, uint256, uint256, uint256, uint256, uint256) {\n        Proposal memory prop;\n        if (ownerProposal) {\n            require(i < myProposal_count[msg.sender], \"Invalid index\");\n            uint id = myProposalIds[msg.sender][i];\n            prop = Proposals[id];\n        }\n        else {\n            require(i <= total_proposals, \"Proposal does not exist\");\n            prop = Proposals[i];\n        }\n        return (prop.id, prop.proposer, prop.title, prop.yay_count, prop.nay_count, prop.deposit_balance, prop.begin_block_number, prop.end_block_number, prop.max_deposit);\n    }\n\n    /**\n     * @dev Function to get the user's vote on a proposal given by ID.\n     */\n    function get_votes(uint256 id) public view returns(uint) {\n        return uint(addressToVote[id][msg.sender]);\n    }\n\n    /**\n     * @dev Function for users to withdraw all of their eth. It is recommended to invoke updateEthEarned() first.\n     */\n    function withdrawEth() public payable checkWinner() returns(bool success) {\n        uint256 withdrawBal = withdraw[msg.sender];\n        require(withdrawBal > 0, \"No funds available to withdraw\");\n\n        msg.sender.transfer(withdrawBal);\n        withdraw[msg.sender] = 0;\n\n        emit Transfer(address(this), msg.sender, withdrawBal);\n\n        return true;\n    }\n\n}",
  "sourcePath": "/mnt/d/Coding Assignment-Advanca/advanca_voting_dApp/src/contracts/Vote.sol",
  "compiler": {
    "name": "solc",
    "version": "0.5.16+commit.9c3226ce.Emscripten.clang"
  },
  "schemaVersion": "3.3.2",
  "updatedAt": "2021-03-16T18:00:57.803Z",
  "networkType": "ethereum",
  "devdoc": {
    "methods": {
      "create(string,uint256)": {
        "details": "Function to create a proposal, requires a minimum deposit amount of 0.001 ETH.",
        "return": "The proposal id"
      },
      "get_proposals(uint256,bool)": {
        "details": "User-callable function for proposer owners to look at their proposals or find a proposal in general.if ownerProposal is true, i is used as index of the myProposal Array. Otherwise, it is simply the proposal id.",
        "return": "the values that comform to the Proposal object."
      },
      "get_staked()": {
        "details": "User-callable function to get their staked ETH amount"
      },
      "get_votes(uint256)": {
        "details": "Function to get the user's vote on a proposal given by ID."
      },
      "get_withdraw()": {
        "details": "User-callable function to get their withdrawable amount. It is recommended to invoke updateEthEarned() first."
      },
      "updateEthEarned()": {
        "details": "User-callable function to update their withdrawable earnings. TEMP: I need to figure out a way to shrink inactiveIds. This function call can become very expensive, if not fixed."
      },
      "vote(uint256,bool)": {
        "details": "Function to vote on a proposal."
      },
      "withdrawEth()": {
        "details": "Function for users to withdraw all of their eth. It is recommended to invoke updateEthEarned() first."
      }
    }
  },
  "userdoc": {
    "methods": {}
  }
}