{
  "contractName": "Vote",
  "abi": [
    {
      "inputs": [],
      "payable": false,
      "stateMutability": "nonpayable",
      "type": "constructor"
    },
    {
      "anonymous": false,
      "inputs": [
        {
          "indexed": false,
          "internalType": "uint256",
          "name": "id",
          "type": "uint256"
        }
      ],
      "name": "EndOfProposal",
      "type": "event"
    },
    {
      "anonymous": false,
      "inputs": [
        {
          "indexed": true,
          "internalType": "address",
          "name": "_from",
          "type": "address"
        },
        {
          "indexed": true,
          "internalType": "address",
          "name": "_to",
          "type": "address"
        },
        {
          "indexed": false,
          "internalType": "uint256",
          "name": "amount",
          "type": "uint256"
        }
      ],
      "name": "Transfer",
      "type": "event"
    },
    {
      "anonymous": false,
      "inputs": [
        {
          "indexed": true,
          "internalType": "address",
          "name": "_voter",
          "type": "address"
        },
        {
          "indexed": false,
          "internalType": "uint256",
          "name": "id",
          "type": "uint256"
        },
        {
          "indexed": false,
          "internalType": "bool",
          "name": "votesYay",
          "type": "bool"
        }
      ],
      "name": "Voted",
      "type": "event"
    },
    {
      "constant": true,
      "inputs": [
        {
          "internalType": "uint256",
          "name": "",
          "type": "uint256"
        }
      ],
      "name": "Proposals",
      "outputs": [
        {
          "internalType": "uint256",
          "name": "id",
          "type": "uint256"
        },
        {
          "internalType": "address",
          "name": "proposer",
          "type": "address"
        },
        {
          "internalType": "string",
          "name": "title",
          "type": "string"
        },
        {
          "internalType": "uint256",
          "name": "yay_count",
          "type": "uint256"
        },
        {
          "internalType": "uint256",
          "name": "nay_count",
          "type": "uint256"
        },
        {
          "internalType": "uint256",
          "name": "deposit_balance",
          "type": "uint256"
        },
        {
          "internalType": "uint256",
          "name": "begin_block_number",
          "type": "uint256"
        },
        {
          "internalType": "uint256",
          "name": "end_block_number",
          "type": "uint256"
        }
      ],
      "payable": false,
      "stateMutability": "view",
      "type": "function"
    },
    {
      "constant": true,
      "inputs": [
        {
          "internalType": "uint256",
          "name": "",
          "type": "uint256"
        },
        {
          "internalType": "uint256",
          "name": "",
          "type": "uint256"
        }
      ],
      "name": "active_proposals",
      "outputs": [
        {
          "internalType": "uint256",
          "name": "",
          "type": "uint256"
        }
      ],
      "payable": false,
      "stateMutability": "view",
      "type": "function"
    },
    {
      "constant": true,
      "inputs": [],
      "name": "admin",
      "outputs": [
        {
          "internalType": "address",
          "name": "",
          "type": "address"
        }
      ],
      "payable": false,
      "stateMutability": "view",
      "type": "function"
    },
    {
      "constant": true,
      "inputs": [
        {
          "internalType": "uint256",
          "name": "",
          "type": "uint256"
        }
      ],
      "name": "expiredId",
      "outputs": [
        {
          "internalType": "uint256",
          "name": "",
          "type": "uint256"
        }
      ],
      "payable": false,
      "stateMutability": "view",
      "type": "function"
    },
    {
      "constant": true,
      "inputs": [],
      "name": "total_proposals",
      "outputs": [
        {
          "internalType": "uint256",
          "name": "",
          "type": "uint256"
        }
      ],
      "payable": false,
      "stateMutability": "view",
      "type": "function"
    },
    {
      "constant": true,
      "inputs": [
        {
          "internalType": "uint256",
          "name": "",
          "type": "uint256"
        }
      ],
      "name": "winVotes",
      "outputs": [
        {
          "internalType": "enum Vote.Voter_Status",
          "name": "",
          "type": "uint8"
        }
      ],
      "payable": false,
      "stateMutability": "view",
      "type": "function"
    },
    {
      "constant": false,
      "inputs": [
        {
          "internalType": "string",
          "name": "title",
          "type": "string"
        },
        {
          "internalType": "uint256",
          "name": "endOffset",
          "type": "uint256"
        }
      ],
      "name": "create",
      "outputs": [
        {
          "internalType": "uint256",
          "name": "",
          "type": "uint256"
        }
      ],
      "payable": true,
      "stateMutability": "payable",
      "type": "function"
    },
    {
      "constant": false,
      "inputs": [
        {
          "internalType": "uint256",
          "name": "id",
          "type": "uint256"
        },
        {
          "internalType": "bool",
          "name": "votesYay",
          "type": "bool"
        }
      ],
      "name": "vote",
      "outputs": [
        {
          "internalType": "bool",
          "name": "success",
          "type": "bool"
        }
      ],
      "payable": true,
      "stateMutability": "payable",
      "type": "function"
    },
    {
      "constant": true,
      "inputs": [
        {
          "internalType": "address",
          "name": "_withdrawer",
          "type": "address"
        }
      ],
      "name": "get_withdraw",
      "outputs": [
        {
          "internalType": "uint256",
          "name": "",
          "type": "uint256"
        }
      ],
      "payable": false,
      "stateMutability": "view",
      "type": "function"
    },
    {
      "constant": false,
      "inputs": [
        {
          "internalType": "address",
          "name": "_voter",
          "type": "address"
        }
      ],
      "name": "updateEthEarned",
      "outputs": [
        {
          "internalType": "uint256",
          "name": "",
          "type": "uint256"
        }
      ],
      "payable": false,
      "stateMutability": "nonpayable",
      "type": "function"
    },
    {
      "constant": false,
      "inputs": [
        {
          "internalType": "address payable",
          "name": "_withdrawer",
          "type": "address"
        }
      ],
      "name": "withdrawEth",
      "outputs": [
        {
          "internalType": "bool",
          "name": "success",
          "type": "bool"
        }
      ],
      "payable": true,
      "stateMutability": "payable",
      "type": "function"
    }
  ],
  "bytecode": "0x608060405234801561001057600080fd5b50336000806101000a81548173ffffffffffffffffffffffffffffffffffffffff021916908373ffffffffffffffffffffffffffffffffffffffff16021790555061236c806100606000396000f3fe60806040526004361061009b5760003560e01c8063871fd77611610064578063871fd776146102a8578063aa92728114610305578063c9d27afe1461036a578063d1dbe7d8146103bc578063e9e92e12146104cd578063f851a440146105325761009b565b8062a023a7146100a0578063111c9389146100f957806325e160631461014857806346f81a87146101a457806385d7305e1461027d575b600080fd5b3480156100ac57600080fd5b506100e3600480360360408110156100c357600080fd5b810190808035906020019092919080359060200190929190505050610589565b6040518082815260200191505060405180910390f35b34801561010557600080fd5b506101326004803603602081101561011c57600080fd5b81019080803590602001909291905050506105b7565b6040518082815260200191505060405180910390f35b61018a6004803603602081101561015e57600080fd5b81019080803573ffffffffffffffffffffffffffffffffffffffff1690602001909291905050506105d8565b604051808215151515815260200191505060405180910390f35b610267600480360360408110156101ba57600080fd5b81019080803590602001906401000000008111156101d757600080fd5b8201836020820111156101e957600080fd5b8035906020019184600183028401116401000000008311171561020b57600080fd5b91908080601f016020809104026020016040519081016040528093929190818152602001838380828437600081840152601f19601f82011690508083019250505050505050919291929080359060200190929190505050610790565b6040518082815260200191505060405180910390f35b34801561028957600080fd5b50610292610eac565b6040518082815260200191505060405180910390f35b3480156102b457600080fd5b506102e1600480360360208110156102cb57600080fd5b8101908080359060200190929190505050610eb2565b604051808260028111156102f157fe5b60ff16815260200191505060405180910390f35b34801561031157600080fd5b506103546004803603602081101561032857600080fd5b81019080803573ffffffffffffffffffffffffffffffffffffffff169060200190929190505050610ed2565b6040518082815260200191505060405180910390f35b6103a26004803603604081101561038057600080fd5b8101908080359060200190929190803515159060200190929190505050611252565b604051808215151515815260200191505060405180910390f35b3480156103c857600080fd5b506103f5600480360360208110156103df57600080fd5b8101908080359060200190929190505050611bbd565b604051808981526020018873ffffffffffffffffffffffffffffffffffffffff1673ffffffffffffffffffffffffffffffffffffffff16815260200180602001878152602001868152602001858152602001848152602001838152602001828103825288818151815260200191508051906020019080838360005b8381101561048b578082015181840152602081019050610470565b50505050905090810190601f1680156104b85780820380516001836020036101000a031916815260200191505b50995050505050505050505060405180910390f35b3480156104d957600080fd5b5061051c600480360360208110156104f057600080fd5b81019080803573ffffffffffffffffffffffffffffffffffffffff169060200190929190505050611cbd565b6040518082815260200191505060405180910390f35b34801561053e57600080fd5b50610547611d40565b604051808273ffffffffffffffffffffffffffffffffffffffff1673ffffffffffffffffffffffffffffffffffffffff16815260200191505060405180910390f35b600360205281600052604060002081815481106105a257fe5b90600052602060002001600091509150505481565b600481815481106105c457fe5b906000526020600020016000915090505481565b6000818073ffffffffffffffffffffffffffffffffffffffff163373ffffffffffffffffffffffffffffffffffffffff161461061357600080fd5b600061061e84610ed2565b905060008111610696576040517f08c379a000000000000000000000000000000000000000000000000000000000815260040180806020018281038252601e8152602001807f4e6f2066756e647320617661696c61626c6520746f207769746864726177000081525060200191505060405180910390fd5b8373ffffffffffffffffffffffffffffffffffffffff166108fc829081150290604051600060405180830381858888f193505050501580156106dc573d6000803e3d6000fd5b50600860008573ffffffffffffffffffffffffffffffffffffffff1673ffffffffffffffffffffffffffffffffffffffff168152602001908152602001600020600090558373ffffffffffffffffffffffffffffffffffffffff163073ffffffffffffffffffffffffffffffffffffffff167fddf252ad1be2c89b69c2b068fc378daa952ba7f163c4a11628f55a4df523b3ef836040518082815260200191505060405180910390a3600192505050919050565b6000804390506060600360008381526020019081526020016000208054806020026020016040519081016040528092919081815260200182805480156107f557602002820191906000526020600020905b8154815260200190600101908083116107e1575b5050505050905060008151905060008090505b81811015610a7757600083828151811061081e57fe5b602002602001015190506108306121c6565b6002600083815260200190815260200160002060405180610100016040529081600082015481526020016001820160009054906101000a900473ffffffffffffffffffffffffffffffffffffffff1673ffffffffffffffffffffffffffffffffffffffff1673ffffffffffffffffffffffffffffffffffffffff168152602001600282018054600181600116156101000203166002900480601f0160208091040260200160405190810160405280929190818152602001828054600181600116156101000203166002900480156109485780601f1061091d57610100808354040283529160200191610948565b820191906000526020600020905b81548152906001019060200180831161092b57829003601f168201915b505050505081526020016003820154815260200160048201548152602001600582015481526020016006820154815260200160078201548152505090508060800151816060015111156109cf5760016006600084815260200190815260200160002060006101000a81548160ff021916908360028111156109c557fe5b0217905550610a05565b60026006600084815260200190815260200160002060006101000a81548160ff021916908360028111156109ff57fe5b02179055505b60048290806001815401808255809150509060018203906000526020600020016000909192909190915055507fdeb3fef274c9d29355266cba0a3c2a52d67eb1ef404a207ba6ef5916ba102090826040518082815260200191505060405180910390a150508080600101915050610808565b50600360008481526020019081526020016000206000610a979190612221565b66038d7ea4c68000341015610af7576040517f08c379a000000000000000000000000000000000000000000000000000000000815260040180806020018281038252602d8152602001806122e8602d913960400191505060405180910390fd5b60008511610b6d576040517f08c379a000000000000000000000000000000000000000000000000000000000815260040180806020018281038252601a8152602001807f456e6420626c6f636b206e756d62657220756e646566696e656400000000000081525060200191505060405180910390fd5b6000610b8460018054611d6590919063ffffffff16565b9050806001819055506000610ba28743611d6590919063ffffffff16565b9050610bac6121c6565b6040518061010001604052808481526020013373ffffffffffffffffffffffffffffffffffffffff1681526020018a815260200134815260200160008152602001348152602001438152602001838152509050806002600060015481526020019081526020016000206000820151816000015560208201518160010160006101000a81548173ffffffffffffffffffffffffffffffffffffffff021916908373ffffffffffffffffffffffffffffffffffffffff1602179055506040820151816002019080519060200190610c82929190612242565b50606082015181600301556080820151816004015560a0820151816005015560c0820151816006015560e08201518160070155905050600360008260e00151815260200190815260200160002083908060018154018082558091505090600182039060005260206000200160009091929091909150555060016005600085815260200190815260200160002060003373ffffffffffffffffffffffffffffffffffffffff1673ffffffffffffffffffffffffffffffffffffffff16815260200190815260200160002060006101000a81548160ff02191690836002811115610d6657fe5b02179055503460076000858152602001908152602001600020600060016002811115610d8e57fe5b815260200190815260200160002060003373ffffffffffffffffffffffffffffffffffffffff1673ffffffffffffffffffffffffffffffffffffffff168152602001908152602001600020819055503073ffffffffffffffffffffffffffffffffffffffff163373ffffffffffffffffffffffffffffffffffffffff167fddf252ad1be2c89b69c2b068fc378daa952ba7f163c4a11628f55a4df523b3ef346040518082815260200191505060405180910390a33373ffffffffffffffffffffffffffffffffffffffff167f749addf8eadeff63c43be59c27331be5c6d4fc9e82bbfbcf162321c9b35a95b484600160405180838152602001821515151581526020019250505060405180910390a282965050505050505092915050565b60015481565b60066020528060005260406000206000915054906101000a900460ff1681565b6000818073ffffffffffffffffffffffffffffffffffffffff163373ffffffffffffffffffffffffffffffffffffffff1614610f0d57600080fd5b6000439050606060036000838152602001908152602001600020805480602002602001604051908101604052809291908181526020018280548015610f7157602002820191906000526020600020905b815481526020019060010190808311610f5d575b5050505050905060008151905060008090505b818110156111f3576000838281518110610f9a57fe5b60200260200101519050610fac6121c6565b6002600083815260200190815260200160002060405180610100016040529081600082015481526020016001820160009054906101000a900473ffffffffffffffffffffffffffffffffffffffff1673ffffffffffffffffffffffffffffffffffffffff1673ffffffffffffffffffffffffffffffffffffffff168152602001600282018054600181600116156101000203166002900480601f0160208091040260200160405190810160405280929190818152602001828054600181600116156101000203166002900480156110c45780601f10611099576101008083540402835291602001916110c4565b820191906000526020600020905b8154815290600101906020018083116110a757829003601f168201915b5050505050815260200160038201548152602001600482015481526020016005820154815260200160068201548152602001600782015481525050905080608001518160600151111561114b5760016006600084815260200190815260200160002060006101000a81548160ff0219169083600281111561114157fe5b0217905550611181565b60026006600084815260200190815260200160002060006101000a81548160ff0219169083600281111561117b57fe5b02179055505b60048290806001815401808255809150509060018203906000526020600020016000909192909190915055507fdeb3fef274c9d29355266cba0a3c2a52d67eb1ef404a207ba6ef5916ba102090826040518082815260200191505060405180910390a150508080600101915050610f84565b506003600084815260200190815260200160002060006112139190612221565b60008090505b60048054905081101561123d576112308782611d7f565b8080600101915050611219565b5061124786611cbd565b945050505050919050565b6000804390506060600360008381526020019081526020016000208054806020026020016040519081016040528092919081815260200182805480156112b757602002820191906000526020600020905b8154815260200190600101908083116112a3575b5050505050905060008151905060008090505b818110156115395760008382815181106112e057fe5b602002602001015190506112f26121c6565b6002600083815260200190815260200160002060405180610100016040529081600082015481526020016001820160009054906101000a900473ffffffffffffffffffffffffffffffffffffffff1673ffffffffffffffffffffffffffffffffffffffff1673ffffffffffffffffffffffffffffffffffffffff168152602001600282018054600181600116156101000203166002900480601f01602080910402602001604051908101604052809291908181526020018280546001816001161561010002031660029004801561140a5780601f106113df5761010080835404028352916020019161140a565b820191906000526020600020905b8154815290600101906020018083116113ed57829003601f168201915b505050505081526020016003820154815260200160048201548152602001600582015481526020016006820154815260200160078201548152505090508060800151816060015111156114915760016006600084815260200190815260200160002060006101000a81548160ff0219169083600281111561148757fe5b02179055506114c7565b60026006600084815260200190815260200160002060006101000a81548160ff021916908360028111156114c157fe5b02179055505b60048290806001815401808255809150509060018203906000526020600020016000909192909190915055507fdeb3fef274c9d29355266cba0a3c2a52d67eb1ef404a207ba6ef5916ba102090826040518082815260200191505060405180910390a1505080806001019150506112ca565b506003600084815260200190815260200160002060006115599190612221565b6001548611156115d1576040517f08c379a00000000000000000000000000000000000000000000000000000000081526004018080602001828103825260108152602001807f496e76616c69642070726f706f73616c0000000000000000000000000000000081525060200191505060405180910390fd5b600060028111156115de57fe5b6005600088815260200190815260200160002060003373ffffffffffffffffffffffffffffffffffffffff1673ffffffffffffffffffffffffffffffffffffffff16815260200190815260200160002060009054906101000a900460ff16600281111561164757fe5b146116ba576040517f08c379a00000000000000000000000000000000000000000000000000000000081526004018080602001828103825260128152602001807f43616e206e6f7420766f7465207477696365000000000000000000000000000081525060200191505060405180910390fd5b60006002600088815260200190815260200160002090504381600701541161174a576040517f08c379a000000000000000000000000000000000000000000000000000000000815260040180806020018281038252601c8152602001807f50726f706f73616c206973206e6f206c6f6e676572206163746976650000000081525060200191505060405180910390fd5b66038d7ea4c680003410156117aa576040517f08c379a000000000000000000000000000000000000000000000000000000000815260040180806020018281038252602d8152602001806122e8602d913960400191505060405180910390fd5b60006118646064611856605a600760008d81526020019081526020016000206000600160028111156117d857fe5b815260200190815260200160002060008760010160009054906101000a900473ffffffffffffffffffffffffffffffffffffffff1673ffffffffffffffffffffffffffffffffffffffff1673ffffffffffffffffffffffffffffffffffffffff1681526020019081526020016000205461217e90919063ffffffff16565b6121b290919063ffffffff16565b9050803411156118bf576040517f08c379a00000000000000000000000000000000000000000000000000000000081526004018080602001828103825260238152602001806123156023913960400191505060405180910390fd5b6118d6348360050154611d6590919063ffffffff16565b826005018190555086156119ec576001600560008a815260200190815260200160002060003373ffffffffffffffffffffffffffffffffffffffff1673ffffffffffffffffffffffffffffffffffffffff16815260200190815260200160002060006101000a81548160ff0219169083600281111561195157fe5b021790555034600760008a815260200190815260200160002060006001600281111561197957fe5b815260200190815260200160002060003373ffffffffffffffffffffffffffffffffffffffff1673ffffffffffffffffffffffffffffffffffffffff168152602001908152602001600020819055506119df348360030154611d6590919063ffffffff16565b8260030181905550611aef565b6002600560008a815260200190815260200160002060003373ffffffffffffffffffffffffffffffffffffffff1673ffffffffffffffffffffffffffffffffffffffff16815260200190815260200160002060006101000a81548160ff02191690836002811115611a5957fe5b021790555034600760008a81526020019081526020016000206000600280811115611a8057fe5b815260200190815260200160002060003373ffffffffffffffffffffffffffffffffffffffff1673ffffffffffffffffffffffffffffffffffffffff16815260200190815260200160002081905550611ae6348360040154611d6590919063ffffffff16565b82600401819055505b3073ffffffffffffffffffffffffffffffffffffffff163373ffffffffffffffffffffffffffffffffffffffff167fddf252ad1be2c89b69c2b068fc378daa952ba7f163c4a11628f55a4df523b3ef346040518082815260200191505060405180910390a33373ffffffffffffffffffffffffffffffffffffffff167f749addf8eadeff63c43be59c27331be5c6d4fc9e82bbfbcf162321c9b35a95b4898960405180838152602001821515151581526020019250505060405180910390a260019550505050505092915050565b60026020528060005260406000206000915090508060000154908060010160009054906101000a900473ffffffffffffffffffffffffffffffffffffffff1690806002018054600181600116156101000203166002900480601f016020809104026020016040519081016040528092919081815260200182805460018160011615610100020316600290048015611c955780601f10611c6a57610100808354040283529160200191611c95565b820191906000526020600020905b815481529060010190602001808311611c7857829003601f168201915b5050505050908060030154908060040154908060050154908060060154908060070154905088565b6000818073ffffffffffffffffffffffffffffffffffffffff163373ffffffffffffffffffffffffffffffffffffffff1614611cf857600080fd5b600860008473ffffffffffffffffffffffffffffffffffffffff1673ffffffffffffffffffffffffffffffffffffffff16815260200190815260200160002054915050919050565b6000809054906101000a900473ffffffffffffffffffffffffffffffffffffffff1681565b6000818301905082811015611d7657fe5b80905092915050565b611d876121c6565b6002600083815260200190815260200160002060405180610100016040529081600082015481526020016001820160009054906101000a900473ffffffffffffffffffffffffffffffffffffffff1673ffffffffffffffffffffffffffffffffffffffff1673ffffffffffffffffffffffffffffffffffffffff168152602001600282018054600181600116156101000203166002900480601f016020809104026020016040519081016040528092919081815260200182805460018160011615610100020316600290048015611e9f5780601f10611e7457610100808354040283529160200191611e9f565b820191906000526020600020905b815481529060010190602001808311611e8257829003601f168201915b5050505050815260200160038201548152602001600482015481526020016005820154815260200160068201548152602001600782015481525050905060006006600084815260200190815260200160002060009054906101000a900460ff166002811115611f0a57fe5b9050600060076000858152602001908152602001600020600083815260200190815260200160002060008673ffffffffffffffffffffffffffffffffffffffff1673ffffffffffffffffffffffffffffffffffffffff16815260200190815260200160002054905060006001831415611fd0576000846060015190506000611fae82611fa060648761217e90919063ffffffff16565b6121b290919063ffffffff16565b9050611fc7818760a0015161217e90919063ffffffff16565b9250505061207c565b600283141561202c57600084608001519050600061200a82611ffc60648761217e90919063ffffffff16565b6121b290919063ffffffff16565b9050612023818760a0015161217e90919063ffffffff16565b9250505061207b565b60008460a001519050600061205d8261204f60648761217e90919063ffffffff16565b6121b290919063ffffffff16565b9050612076818760a0015161217e90919063ffffffff16565b925050505b5b6120ce81600860008973ffffffffffffffffffffffffffffffffffffffff1673ffffffffffffffffffffffffffffffffffffffff16815260200190815260200160002054611d6590919063ffffffff16565b600860008873ffffffffffffffffffffffffffffffffffffffff1673ffffffffffffffffffffffffffffffffffffffff1681526020019081526020016000208190555060076000868152602001908152602001600020600084815260200190815260200160002060008773ffffffffffffffffffffffffffffffffffffffff1673ffffffffffffffffffffffffffffffffffffffff16815260200190815260200160002060009055505050505050565b60008083141561219157600090506121ac565b8183029050818382816121a057fe5b04146121a857fe5b8090505b92915050565b60008183816121bd57fe5b04905092915050565b60405180610100016040528060008152602001600073ffffffffffffffffffffffffffffffffffffffff1681526020016060815260200160008152602001600081526020016000815260200160008152602001600081525090565b508054600082559060005260206000209081019061223f91906122c2565b50565b828054600181600116156101000203166002900490600052602060002090601f016020900481019282601f1061228357805160ff19168380011785556122b1565b828001600101855582156122b1579182015b828111156122b0578251825591602001919060010190612295565b5b5090506122be91906122c2565b5090565b6122e491905b808211156122e05760008160009055506001016122c8565b5090565b9056fe4465706f73697420646f6573206e6f74206d65657420746865206d696e696d756d20726571756972656d656e744465706f73697420657863656564656420746865206d6178696d756d20616d6f756e74a265627a7a723158208abee161479e27b335b6a44fd2b4bf266ea2a4909cb7112fd30bdd61f72b1dbb64736f6c63430005100032",
  "source": "// Contract where users submit a proposal and cast votes, using staked ether.\n\npragma solidity ^0.5.0;\n\nimport \"./lib/SafeMath.sol\";\n\ncontract Vote {\n    \n    using SafeMath for uint256;\n    address public admin;\n\n    constructor() public {\n        admin = msg.sender;\n    }\n\n    /**\n     * This struct defines the Proposal object.\n     * @param id - Unique identifier for the proposal.\n     * @param proposer - The address created the proposal.\n     * @param title - The description of the proposal.\n     * @param yay_count - Count votes in proportion to their deposit eth amount for the proposal.\n     * @param nay_count - Count votes in proportion to their deposit eth amount against the proposal.\n     * @param deposit_balance - The total amount of ETH deposited for the proposal.\n     * @param begin_block_number - The block number when the proposal is created.\n     * @param end_block_number - The block number when the proposal becomes inactive.\n     */\n    struct Proposal {\n        uint256 id;\n        address proposer;\n        string title;\n        uint256 yay_count;\n        uint256 nay_count;\n        uint256 deposit_balance;\n        uint256 begin_block_number;\n        uint256 end_block_number;\n    }\n\n    enum Voter_Status {\n        UNDECIDED,\n        YAY,\n        NAY\n    }\n\n    // Proposal Variables\n    uint256 public total_proposals;\n    mapping (uint256 => Proposal) public Proposals; // Find the proposals with the given ID.\n    mapping (uint256 => uint256[]) public active_proposals; // block end number mapped to array of proposal ids.\n    uint256[] public expiredId; // track expired proposals to claim eth.\n\n    // Votes variables\n    mapping (uint256 => mapping (address => Voter_Status)) internal addressToVote; // Show votes given by address and id.\n    mapping (uint256 => Voter_Status) public winVotes; // Proposal majority votes.\n\n    // Funds variables.\n    mapping (uint256 => mapping (uint => mapping (address => uint256))) internal votingStake; // Show the amount of eth staked for the vote\n    mapping (address => uint256) internal withdraw; // Keeping track of user withdrawable amount.\n\n    event Transfer(address indexed _from, address indexed _to, uint256 amount); // Transfer of ETH event.\n    event Voted(address indexed _voter, uint256 id, bool votesYay); // Users cast votes event.\n    event EndOfProposal(uint256 id); // Proposal ended event trigger.\n\n    /**\n     * @dev Modifier to be called periodically to detect expired proposals.\n     */\n    modifier checkWinner() {\n        // check if current block time coincides with proposal's end time.\n        uint256 current = block.number;\n        uint256[] memory endProposalIds = active_proposals[current];\n        uint n = endProposalIds.length;\n        for (uint i = 0; i < n; i++) {\n            uint id = endProposalIds[i];\n            Proposal memory prop = Proposals[id];\n            if (prop.yay_count > prop.nay_count) {\n                winVotes[id] = Voter_Status.YAY;\n            }\n            else {\n                winVotes[id] = Voter_Status.NAY;\n            }\n            expiredId.push(id);\n            emit EndOfProposal(id);\n        }\n        delete active_proposals[current];\n        _;\n    }\n\n    /**\n     * @dev Modifier to verify the withdrawer.\n     */\n    modifier isWithdrawer(address _withdraw) {\n        require(msg.sender == _withdraw);\n        _;\n    }\n\n    /** \n     * @dev Function to calculate earnings from winning proposals.\n     * @return The amount of eth withdrawable by the winner.\n     */\n    function earnedEth(address _winner, uint256 id) internal {\n        Proposal memory prop = Proposals[id];\n        uint wonVote = uint(winVotes[id]);\n        uint stake = votingStake[id][wonVote][_winner];\n        uint earned;\n        if (wonVote == 1) {\n            uint total = prop.yay_count;\n            uint percent = stake.mul(100).div(total);\n            earned = prop.deposit_balance.mul(percent);\n        } else if (wonVote == 2) {\n            uint total = prop.nay_count;\n            uint percent = stake.mul(100).div(total);\n            earned = prop.deposit_balance.mul(percent);\n        } else {\n            uint total = prop.deposit_balance;\n            uint percent = stake.mul(100).div(total);\n            earned = prop.deposit_balance.mul(percent);\n        }\n        withdraw[_winner] = withdraw[_winner].add(earned);\n        delete votingStake[id][wonVote][_winner];\n    }\n\n    /**\n     * @dev Function to create a proposal, requires a minimum deposit amount of 0.001 ETH.\n     * @return The proposal id\n     */\n    function create(string memory title, uint endOffset) public payable checkWinner() returns(uint256) {\n        require(msg.value >= 0.001 ether, \"Deposit does not meet the minimum requirement\");\n        require(endOffset > 0, \"End block number undefined\");\n\n        uint id = total_proposals.add(1);\n        total_proposals = id;\n        uint endBlock = block.number.add(endOffset);\n        Proposal memory newProposal = Proposal(id, msg.sender, title, msg.value, 0, msg.value, block.number, endBlock);\n        Proposals[total_proposals] = newProposal;\n        active_proposals[newProposal.end_block_number].push(id);\n\n        // Proposer votes yay by default.\n        addressToVote[id][msg.sender] = Voter_Status.YAY;\n        votingStake[id][uint(Voter_Status.YAY)][msg.sender] = msg.value;\n\n        emit Transfer(msg.sender, address(this), msg.value);\n        emit Voted(msg.sender, id, true);\n\n        return id;\n    }\n\n    /**\n     * @dev Function to vote on a proposal.\n     */\n    function vote(uint256 id, bool votesYay) public payable checkWinner() returns(bool success) {\n        require(id <= total_proposals, \"Invalid proposal\");\n        require(addressToVote[id][msg.sender] == Voter_Status.UNDECIDED, \"Can not vote twice\");\n        Proposal storage proposal = Proposals[id];\n        require(proposal.end_block_number > block.number, \"Proposal is no longer active\");\n        require(msg.value >= 0.001 ether, \"Deposit does not meet the minimum requirement\");\n        uint maximum = votingStake[id][uint(Voter_Status.YAY)][proposal.proposer].mul(90).div(100); // voters can only deposit 90% of the proposer's amount at most -- prevention of whales.\n        require(msg.value <= maximum, \"Deposit exceeded the maximum amount\");\n\n        proposal.deposit_balance = proposal.deposit_balance.add(msg.value);\n\n        if (votesYay) {\n            addressToVote[id][msg.sender] = Voter_Status.YAY;\n            votingStake[id][uint(Voter_Status.YAY)][msg.sender] = msg.value;\n            proposal.yay_count = proposal.yay_count.add(msg.value);\n        }\n        else {\n            addressToVote[id][msg.sender] = Voter_Status.NAY;\n            votingStake[id][uint(Voter_Status.NAY)][msg.sender] = msg.value;\n            proposal.nay_count = proposal.nay_count.add(msg.value);\n        }\n\n        emit Transfer(msg.sender, address(this), msg.value);\n        emit Voted(msg.sender, id, votesYay);\n\n        return true;\n    }\n\n    /**\n     * @dev User-callable function to find out their withdrawable amount.\n     */\n    function get_withdraw(address _withdrawer) public view isWithdrawer(_withdrawer) returns(uint256) {\n        return withdraw[_withdrawer];\n    }\n\n    /**\n     * @dev User-callable function to update their withdrawable earnings.\n     */\n    function updateEthEarned(address _voter) public isWithdrawer(_voter) checkWinner() returns(uint256) {\n        for (uint i = 0; i < expiredId.length; i++) {\n            earnedEth(_voter, i);\n        }\n        return get_withdraw(_voter);\n    }\n\n    /**\n     * @dev Function for users to withdraw all of their eth.\n     */\n    function withdrawEth(address payable _withdrawer) public payable isWithdrawer(_withdrawer) returns(bool success) {\n        uint withdrawBal = updateEthEarned(_withdrawer);\n        require(withdrawBal > 0, \"No funds available to withdraw\");\n\n        _withdrawer.transfer(withdrawBal);\n        delete withdraw[_withdrawer];\n\n        emit Transfer(address(this), _withdrawer, withdrawBal);\n\n        return true;\n    }\n\n}",
  "sourcePath": "/mnt/d/Coding Assignment-Advanca/advanca_voting_dApp/src/contracts/Vote.sol",
  "compiler": {
    "name": "solc",
    "version": "0.5.16+commit.9c3226ce.Emscripten.clang"
  },
  "schemaVersion": "3.3.2",
  "updatedAt": "2021-03-12T10:06:27.151Z",
  "networkType": "ethereum",
  "devdoc": {
    "methods": {
      "create(string,uint256)": {
        "details": "Function to create a proposal, requires a minimum deposit amount of 0.001 ETH.",
        "return": "The proposal id"
      },
      "get_withdraw(address)": {
        "details": "User-callable function to find out their withdrawable amount."
      },
      "updateEthEarned(address)": {
        "details": "User-callable function to update their withdrawable earnings."
      },
      "vote(uint256,bool)": {
        "details": "Function to vote on a proposal."
      },
      "withdrawEth(address)": {
        "details": "Function for users to withdraw all of their eth."
      }
    }
  },
  "userdoc": {
    "methods": {}
  }
}