{
  "contractName": "Vote",
  "abi": [
    {
      "inputs": [],
      "payable": false,
      "stateMutability": "nonpayable",
      "type": "constructor"
    },
    {
      "anonymous": false,
      "inputs": [
        {
          "indexed": false,
          "internalType": "uint256",
          "name": "id",
          "type": "uint256"
        }
      ],
      "name": "EndOfProposal",
      "type": "event"
    },
    {
      "anonymous": false,
      "inputs": [
        {
          "indexed": true,
          "internalType": "address",
          "name": "_from",
          "type": "address"
        },
        {
          "indexed": true,
          "internalType": "address",
          "name": "_to",
          "type": "address"
        },
        {
          "indexed": false,
          "internalType": "uint256",
          "name": "amount",
          "type": "uint256"
        }
      ],
      "name": "Transfer",
      "type": "event"
    },
    {
      "anonymous": false,
      "inputs": [
        {
          "indexed": true,
          "internalType": "address",
          "name": "_voter",
          "type": "address"
        },
        {
          "indexed": false,
          "internalType": "uint256",
          "name": "id",
          "type": "uint256"
        },
        {
          "indexed": false,
          "internalType": "bool",
          "name": "votesYay",
          "type": "bool"
        }
      ],
      "name": "Voted",
      "type": "event"
    },
    {
      "constant": true,
      "inputs": [
        {
          "internalType": "uint256",
          "name": "",
          "type": "uint256"
        }
      ],
      "name": "Proposals",
      "outputs": [
        {
          "internalType": "uint256",
          "name": "id",
          "type": "uint256"
        },
        {
          "internalType": "address",
          "name": "proposer",
          "type": "address"
        },
        {
          "internalType": "string",
          "name": "title",
          "type": "string"
        },
        {
          "internalType": "uint256",
          "name": "yay_count",
          "type": "uint256"
        },
        {
          "internalType": "uint256",
          "name": "nay_count",
          "type": "uint256"
        },
        {
          "internalType": "uint256",
          "name": "deposit_balance",
          "type": "uint256"
        },
        {
          "internalType": "uint256",
          "name": "begin_block_number",
          "type": "uint256"
        },
        {
          "internalType": "uint256",
          "name": "end_block_number",
          "type": "uint256"
        }
      ],
      "payable": false,
      "stateMutability": "view",
      "type": "function"
    },
    {
      "constant": true,
      "inputs": [
        {
          "internalType": "uint256",
          "name": "",
          "type": "uint256"
        },
        {
          "internalType": "uint256",
          "name": "",
          "type": "uint256"
        }
      ],
      "name": "active_proposals",
      "outputs": [
        {
          "internalType": "uint256",
          "name": "",
          "type": "uint256"
        }
      ],
      "payable": false,
      "stateMutability": "view",
      "type": "function"
    },
    {
      "constant": true,
      "inputs": [],
      "name": "admin",
      "outputs": [
        {
          "internalType": "address",
          "name": "",
          "type": "address"
        }
      ],
      "payable": false,
      "stateMutability": "view",
      "type": "function"
    },
    {
      "constant": true,
      "inputs": [],
      "name": "endProp_count",
      "outputs": [
        {
          "internalType": "uint256",
          "name": "",
          "type": "uint256"
        }
      ],
      "payable": false,
      "stateMutability": "view",
      "type": "function"
    },
    {
      "constant": true,
      "inputs": [
        {
          "internalType": "uint256",
          "name": "",
          "type": "uint256"
        }
      ],
      "name": "inactiveIds",
      "outputs": [
        {
          "internalType": "uint256",
          "name": "",
          "type": "uint256"
        }
      ],
      "payable": false,
      "stateMutability": "view",
      "type": "function"
    },
    {
      "constant": true,
      "inputs": [],
      "name": "total_proposals",
      "outputs": [
        {
          "internalType": "uint256",
          "name": "",
          "type": "uint256"
        }
      ],
      "payable": false,
      "stateMutability": "view",
      "type": "function"
    },
    {
      "constant": true,
      "inputs": [
        {
          "internalType": "uint256",
          "name": "",
          "type": "uint256"
        }
      ],
      "name": "winVotes",
      "outputs": [
        {
          "internalType": "enum Vote.Voter_Status",
          "name": "",
          "type": "uint8"
        }
      ],
      "payable": false,
      "stateMutability": "view",
      "type": "function"
    },
    {
      "constant": false,
      "inputs": [
        {
          "internalType": "string",
          "name": "title",
          "type": "string"
        },
        {
          "internalType": "uint256",
          "name": "endOffset",
          "type": "uint256"
        }
      ],
      "name": "create",
      "outputs": [
        {
          "internalType": "uint256",
          "name": "",
          "type": "uint256"
        }
      ],
      "payable": true,
      "stateMutability": "payable",
      "type": "function"
    },
    {
      "constant": false,
      "inputs": [
        {
          "internalType": "uint256",
          "name": "id",
          "type": "uint256"
        },
        {
          "internalType": "bool",
          "name": "votesYay",
          "type": "bool"
        }
      ],
      "name": "vote",
      "outputs": [
        {
          "internalType": "bool",
          "name": "success",
          "type": "bool"
        }
      ],
      "payable": true,
      "stateMutability": "payable",
      "type": "function"
    },
    {
      "constant": true,
      "inputs": [],
      "name": "get_withdraw",
      "outputs": [
        {
          "internalType": "uint256",
          "name": "",
          "type": "uint256"
        }
      ],
      "payable": false,
      "stateMutability": "view",
      "type": "function"
    },
    {
      "constant": false,
      "inputs": [],
      "name": "updateEthEarned",
      "outputs": [
        {
          "internalType": "uint256",
          "name": "",
          "type": "uint256"
        }
      ],
      "payable": false,
      "stateMutability": "nonpayable",
      "type": "function"
    },
    {
      "constant": false,
      "inputs": [],
      "name": "withdrawEth",
      "outputs": [
        {
          "internalType": "bool",
          "name": "success",
          "type": "bool"
        }
      ],
      "payable": true,
      "stateMutability": "payable",
      "type": "function"
    }
  ],
  "bytecode": "0x608060405234801561001057600080fd5b50336000806101000a81548173ffffffffffffffffffffffffffffffffffffffff021916908373ffffffffffffffffffffffffffffffffffffffff160217905550612981806100606000396000f3fe6080604052600436106100a65760003560e01c8063871fd77611610064578063871fd776146102ad578063a0ef91df1461030a578063c9d27afe1461032c578063d1dbe7d81461037e578063e0eb62281461048f578063f851a440146104ba576100a6565b8062a023a7146100ab5780632aa50b04146101045780633bdb6e6e1461012f5780634010d2e81461015a57806346f81a87146101a957806385d7305e14610282575b600080fd5b3480156100b757600080fd5b506100ee600480360360408110156100ce57600080fd5b810190808035906020019092919080359060200190929190505050610511565b6040518082815260200191505060405180910390f35b34801561011057600080fd5b5061011961053f565b6040518082815260200191505060405180910390f35b34801561013b57600080fd5b50610144610545565b6040518082815260200191505060405180910390f35b34801561016657600080fd5b506101936004803603602081101561017d57600080fd5b810190808035906020019092919050505061093c565b6040518082815260200191505060405180910390f35b61026c600480360360408110156101bf57600080fd5b81019080803590602001906401000000008111156101dc57600080fd5b8201836020820111156101ee57600080fd5b8035906020019184600183028401116401000000008311171561021057600080fd5b91908080601f016020809104026020016040519081016040528093929190818152602001838380828437600081840152601f19601f8201169050808301925050505050505091929192908035906020019092919050505061095d565b6040518082815260200191505060405180910390f35b34801561028e57600080fd5b50610297611117565b6040518082815260200191505060405180910390f35b3480156102b957600080fd5b506102e6600480360360208110156102d057600080fd5b810190808035906020019092919050505061111d565b604051808260028111156102f657fe5b60ff16815260200191505060405180910390f35b61031261113d565b604051808215151515815260200191505060405180910390f35b6103646004803603604081101561034257600080fd5b8101908080359060200190929190803515159060200190929190505050611696565b604051808215151515815260200191505060405180910390f35b34801561038a57600080fd5b506103b7600480360360208110156103a157600080fd5b810190808035906020019092919050505061209f565b604051808981526020018873ffffffffffffffffffffffffffffffffffffffff1673ffffffffffffffffffffffffffffffffffffffff16815260200180602001878152602001868152602001858152602001848152602001838152602001828103825288818151815260200191508051906020019080838360005b8381101561044d578082015181840152602081019050610432565b50505050905090810190601f16801561047a5780820380516001836020036101000a031916815260200191505b50995050505050505050505060405180910390f35b34801561049b57600080fd5b506104a461219f565b6040518082815260200191505060405180910390f35b3480156104c657600080fd5b506104cf6121e6565b604051808273ffffffffffffffffffffffffffffffffffffffff1673ffffffffffffffffffffffffffffffffffffffff16815260200191505060405180910390f35b6003602052816000526040600020818154811061052a57fe5b90600052602060002001600091509150505481565b60055481565b6000804390506000610563600160065461220b90919063ffffffff16565b90505b8181116108e4576060600360008381526020019081526020016000208054806020026020016040519081016040528092919081815260200182805480156105cc57602002820191906000526020600020905b8154815260200190600101908083116105b8575b5050505050905060008151905060008090505b818110156108b55760008382815181106105f557fe5b602002602001015190506106076127db565b6002600083815260200190815260200160002060405180610100016040529081600082015481526020016001820160009054906101000a900473ffffffffffffffffffffffffffffffffffffffff1673ffffffffffffffffffffffffffffffffffffffff1673ffffffffffffffffffffffffffffffffffffffff168152602001600282018054600181600116156101000203166002900480601f01602080910402602001604051908101604052809291908181526020018280546001816001161561010002031660029004801561071f5780601f106106f45761010080835404028352916020019161071f565b820191906000526020600020905b81548152906001019060200180831161070257829003601f168201915b505050505081526020016003820154815260200160048201548152602001600582015481526020016006820154815260200160078201548152505090508060800151816060015111156107a65760016008600084815260200190815260200160002060006101000a81548160ff0219169083600281111561079c57fe5b0217905550610827565b8060800151816060015110156107f05760026008600084815260200190815260200160002060006101000a81548160ff021916908360028111156107e657fe5b0217905550610826565b60006008600084815260200190815260200160002060006101000a81548160ff0219169083600281111561082057fe5b02179055505b5b6004829080600181540180825580915050906001820390600052602060002001600090919290919091505550610869600160055461220b90919063ffffffff16565b6005819055507fdeb3fef274c9d29355266cba0a3c2a52d67eb1ef404a207ba6ef5916ba102090826040518082815260200191505060405180910390a1505080806001019150506105df565b506003600084815260200190815260200160002060006108d59190612836565b50508080600101915050610566565b508060068190555060008090505b60048054905081101561092d57610920336004838154811061091057fe5b9060005260206000200154612225565b80806001019150506108f2565b5061093661219f565b91505090565b6004818154811061094957fe5b906000526020600020016000915090505481565b600080439050600061097b600160065461220b90919063ffffffff16565b90505b818111610cfc576060600360008381526020019081526020016000208054806020026020016040519081016040528092919081815260200182805480156109e457602002820191906000526020600020905b8154815260200190600101908083116109d0575b5050505050905060008151905060008090505b81811015610ccd576000838281518110610a0d57fe5b60200260200101519050610a1f6127db565b6002600083815260200190815260200160002060405180610100016040529081600082015481526020016001820160009054906101000a900473ffffffffffffffffffffffffffffffffffffffff1673ffffffffffffffffffffffffffffffffffffffff1673ffffffffffffffffffffffffffffffffffffffff168152602001600282018054600181600116156101000203166002900480601f016020809104026020016040519081016040528092919081815260200182805460018160011615610100020316600290048015610b375780601f10610b0c57610100808354040283529160200191610b37565b820191906000526020600020905b815481529060010190602001808311610b1a57829003601f168201915b50505050508152602001600382015481526020016004820154815260200160058201548152602001600682015481526020016007820154815250509050806080015181606001511115610bbe5760016008600084815260200190815260200160002060006101000a81548160ff02191690836002811115610bb457fe5b0217905550610c3f565b806080015181606001511015610c085760026008600084815260200190815260200160002060006101000a81548160ff02191690836002811115610bfe57fe5b0217905550610c3e565b60006008600084815260200190815260200160002060006101000a81548160ff02191690836002811115610c3857fe5b02179055505b5b6004829080600181540180825580915050906001820390600052602060002001600090919290919091505550610c81600160055461220b90919063ffffffff16565b6005819055507fdeb3fef274c9d29355266cba0a3c2a52d67eb1ef404a207ba6ef5916ba102090826040518082815260200191505060405180910390a1505080806001019150506109f7565b50600360008481526020019081526020016000206000610ced9190612836565b5050808060010191505061097e565b508060068190555066038d7ea4c68000341015610d64576040517f08c379a000000000000000000000000000000000000000000000000000000000815260040180806020018281038252602d8152602001806128fd602d913960400191505060405180910390fd5b60008311610dda576040517f08c379a000000000000000000000000000000000000000000000000000000000815260040180806020018281038252601a8152602001807f456e6420626c6f636b206e756d62657220756e646566696e656400000000000081525060200191505060405180910390fd5b6000610df16001805461220b90919063ffffffff16565b9050806001819055506000610e0f854361220b90919063ffffffff16565b9050610e196127db565b6040518061010001604052808481526020013373ffffffffffffffffffffffffffffffffffffffff16815260200188815260200134815260200160008152602001348152602001438152602001838152509050806002600060015481526020019081526020016000206000820151816000015560208201518160010160006101000a81548173ffffffffffffffffffffffffffffffffffffffff021916908373ffffffffffffffffffffffffffffffffffffffff1602179055506040820151816002019080519060200190610eef929190612857565b50606082015181600301556080820151816004015560a0820151816005015560c0820151816006015560e08201518160070155905050600360008260e00151815260200190815260200160002083908060018154018082558091505090600182039060005260206000200160009091929091909150555060016007600085815260200190815260200160002060003373ffffffffffffffffffffffffffffffffffffffff1673ffffffffffffffffffffffffffffffffffffffff16815260200190815260200160002060006101000a81548160ff02191690836002811115610fd357fe5b02179055503460096000858152602001908152602001600020600060016002811115610ffb57fe5b815260200190815260200160002060003373ffffffffffffffffffffffffffffffffffffffff1673ffffffffffffffffffffffffffffffffffffffff168152602001908152602001600020819055503073ffffffffffffffffffffffffffffffffffffffff163373ffffffffffffffffffffffffffffffffffffffff167fddf252ad1be2c89b69c2b068fc378daa952ba7f163c4a11628f55a4df523b3ef346040518082815260200191505060405180910390a33373ffffffffffffffffffffffffffffffffffffffff167f749addf8eadeff63c43be59c27331be5c6d4fc9e82bbfbcf162321c9b35a95b484600160405180838152602001821515151581526020019250505060405180910390a28294505050505092915050565b60015481565b60086020528060005260406000206000915054906101000a900460ff1681565b600080439050600061115b600160065461220b90919063ffffffff16565b90505b8181116114dc576060600360008381526020019081526020016000208054806020026020016040519081016040528092919081815260200182805480156111c457602002820191906000526020600020905b8154815260200190600101908083116111b0575b5050505050905060008151905060008090505b818110156114ad5760008382815181106111ed57fe5b602002602001015190506111ff6127db565b6002600083815260200190815260200160002060405180610100016040529081600082015481526020016001820160009054906101000a900473ffffffffffffffffffffffffffffffffffffffff1673ffffffffffffffffffffffffffffffffffffffff1673ffffffffffffffffffffffffffffffffffffffff168152602001600282018054600181600116156101000203166002900480601f0160208091040260200160405190810160405280929190818152602001828054600181600116156101000203166002900480156113175780601f106112ec57610100808354040283529160200191611317565b820191906000526020600020905b8154815290600101906020018083116112fa57829003601f168201915b5050505050815260200160038201548152602001600482015481526020016005820154815260200160068201548152602001600782015481525050905080608001518160600151111561139e5760016008600084815260200190815260200160002060006101000a81548160ff0219169083600281111561139457fe5b021790555061141f565b8060800151816060015110156113e85760026008600084815260200190815260200160002060006101000a81548160ff021916908360028111156113de57fe5b021790555061141e565b60006008600084815260200190815260200160002060006101000a81548160ff0219169083600281111561141857fe5b02179055505b5b6004829080600181540180825580915050906001820390600052602060002001600090919290919091505550611461600160055461220b90919063ffffffff16565b6005819055507fdeb3fef274c9d29355266cba0a3c2a52d67eb1ef404a207ba6ef5916ba102090826040518082815260200191505060405180910390a1505080806001019150506111d7565b506003600084815260200190815260200160002060006114cd9190612836565b5050808060010191505061115e565b50806006819055506000600a60003373ffffffffffffffffffffffffffffffffffffffff1673ffffffffffffffffffffffffffffffffffffffff1681526020019081526020016000205490506000811161159e576040517f08c379a000000000000000000000000000000000000000000000000000000000815260040180806020018281038252601e8152602001807f4e6f2066756e647320617661696c61626c6520746f207769746864726177000081525060200191505060405180910390fd5b3373ffffffffffffffffffffffffffffffffffffffff166108fc829081150290604051600060405180830381858888f193505050501580156115e4573d6000803e3d6000fd5b50600a60003373ffffffffffffffffffffffffffffffffffffffff1673ffffffffffffffffffffffffffffffffffffffff168152602001908152602001600020600090553373ffffffffffffffffffffffffffffffffffffffff163073ffffffffffffffffffffffffffffffffffffffff167fddf252ad1be2c89b69c2b068fc378daa952ba7f163c4a11628f55a4df523b3ef836040518082815260200191505060405180910390a360019250505090565b60008043905060006116b4600160065461220b90919063ffffffff16565b90505b818111611a355760606003600083815260200190815260200160002080548060200260200160405190810160405280929190818152602001828054801561171d57602002820191906000526020600020905b815481526020019060010190808311611709575b5050505050905060008151905060008090505b81811015611a0657600083828151811061174657fe5b602002602001015190506117586127db565b6002600083815260200190815260200160002060405180610100016040529081600082015481526020016001820160009054906101000a900473ffffffffffffffffffffffffffffffffffffffff1673ffffffffffffffffffffffffffffffffffffffff1673ffffffffffffffffffffffffffffffffffffffff168152602001600282018054600181600116156101000203166002900480601f0160208091040260200160405190810160405280929190818152602001828054600181600116156101000203166002900480156118705780601f1061184557610100808354040283529160200191611870565b820191906000526020600020905b81548152906001019060200180831161185357829003601f168201915b505050505081526020016003820154815260200160048201548152602001600582015481526020016006820154815260200160078201548152505090508060800151816060015111156118f75760016008600084815260200190815260200160002060006101000a81548160ff021916908360028111156118ed57fe5b0217905550611978565b8060800151816060015110156119415760026008600084815260200190815260200160002060006101000a81548160ff0219169083600281111561193757fe5b0217905550611977565b60006008600084815260200190815260200160002060006101000a81548160ff0219169083600281111561197157fe5b02179055505b5b60048290806001815401808255809150509060018203906000526020600020016000909192909190915055506119ba600160055461220b90919063ffffffff16565b6005819055507fdeb3fef274c9d29355266cba0a3c2a52d67eb1ef404a207ba6ef5916ba102090826040518082815260200191505060405180910390a150508080600101915050611730565b50600360008481526020019081526020016000206000611a269190612836565b505080806001019150506116b7565b5080600681905550600154841115611ab5576040517f08c379a00000000000000000000000000000000000000000000000000000000081526004018080602001828103825260108152602001807f496e76616c69642070726f706f73616c0000000000000000000000000000000081525060200191505060405180910390fd5b60006002811115611ac257fe5b6007600086815260200190815260200160002060003373ffffffffffffffffffffffffffffffffffffffff1673ffffffffffffffffffffffffffffffffffffffff16815260200190815260200160002060009054906101000a900460ff166002811115611b2b57fe5b14611b9e576040517f08c379a00000000000000000000000000000000000000000000000000000000081526004018080602001828103825260128152602001807f43616e206e6f7420766f7465207477696365000000000000000000000000000081525060200191505060405180910390fd5b600060026000868152602001908152602001600020905043816007015411611c2e576040517f08c379a000000000000000000000000000000000000000000000000000000000815260040180806020018281038252601c8152602001807f50726f706f73616c206973206e6f206c6f6e676572206163746976650000000081525060200191505060405180910390fd5b66038d7ea4c68000341015611c8e576040517f08c379a000000000000000000000000000000000000000000000000000000000815260040180806020018281038252602d8152602001806128fd602d913960400191505060405180910390fd5b6000611d486064611d3a605a600960008b8152602001908152602001600020600060016002811115611cbc57fe5b815260200190815260200160002060008760010160009054906101000a900473ffffffffffffffffffffffffffffffffffffffff1673ffffffffffffffffffffffffffffffffffffffff1673ffffffffffffffffffffffffffffffffffffffff1681526020019081526020016000205461279390919063ffffffff16565b6127c790919063ffffffff16565b905080341115611da3576040517f08c379a000000000000000000000000000000000000000000000000000000000815260040180806020018281038252602381526020018061292a6023913960400191505060405180910390fd5b611dba34836005015461220b90919063ffffffff16565b82600501819055508415611ed05760016007600088815260200190815260200160002060003373ffffffffffffffffffffffffffffffffffffffff1673ffffffffffffffffffffffffffffffffffffffff16815260200190815260200160002060006101000a81548160ff02191690836002811115611e3557fe5b02179055503460096000888152602001908152602001600020600060016002811115611e5d57fe5b815260200190815260200160002060003373ffffffffffffffffffffffffffffffffffffffff1673ffffffffffffffffffffffffffffffffffffffff16815260200190815260200160002081905550611ec334836003015461220b90919063ffffffff16565b8260030181905550611fd3565b60026007600088815260200190815260200160002060003373ffffffffffffffffffffffffffffffffffffffff1673ffffffffffffffffffffffffffffffffffffffff16815260200190815260200160002060006101000a81548160ff02191690836002811115611f3d57fe5b021790555034600960008881526020019081526020016000206000600280811115611f6457fe5b815260200190815260200160002060003373ffffffffffffffffffffffffffffffffffffffff1673ffffffffffffffffffffffffffffffffffffffff16815260200190815260200160002081905550611fca34836004015461220b90919063ffffffff16565b82600401819055505b3073ffffffffffffffffffffffffffffffffffffffff163373ffffffffffffffffffffffffffffffffffffffff167fddf252ad1be2c89b69c2b068fc378daa952ba7f163c4a11628f55a4df523b3ef346040518082815260200191505060405180910390a33373ffffffffffffffffffffffffffffffffffffffff167f749addf8eadeff63c43be59c27331be5c6d4fc9e82bbfbcf162321c9b35a95b4878760405180838152602001821515151581526020019250505060405180910390a26001935050505092915050565b60026020528060005260406000206000915090508060000154908060010160009054906101000a900473ffffffffffffffffffffffffffffffffffffffff1690806002018054600181600116156101000203166002900480601f0160208091040260200160405190810160405280929190818152602001828054600181600116156101000203166002900480156121775780601f1061214c57610100808354040283529160200191612177565b820191906000526020600020905b81548152906001019060200180831161215a57829003601f168201915b5050505050908060030154908060040154908060050154908060060154908060070154905088565b6000600a60003373ffffffffffffffffffffffffffffffffffffffff1673ffffffffffffffffffffffffffffffffffffffff16815260200190815260200160002054905090565b6000809054906101000a900473ffffffffffffffffffffffffffffffffffffffff1681565b600081830190508281101561221c57fe5b80905092915050565b61222d6127db565b6002600083815260200190815260200160002060405180610100016040529081600082015481526020016001820160009054906101000a900473ffffffffffffffffffffffffffffffffffffffff1673ffffffffffffffffffffffffffffffffffffffff1673ffffffffffffffffffffffffffffffffffffffff168152602001600282018054600181600116156101000203166002900480601f0160208091040260200160405190810160405280929190818152602001828054600181600116156101000203166002900480156123455780601f1061231a57610100808354040283529160200191612345565b820191906000526020600020905b81548152906001019060200180831161232857829003601f168201915b5050505050815260200160038201548152602001600482015481526020016005820154815260200160068201548152602001600782015481525050905060006008600084815260200190815260200160002060009054906101000a900460ff1660028111156123b057fe5b90506000600182141561248a57600060096000868152602001908152602001600020600084815260200190815260200160002060008773ffffffffffffffffffffffffffffffffffffffff1673ffffffffffffffffffffffffffffffffffffffff16815260200190815260200160002054905060008460600151905060006124548261244660648661279390919063ffffffff16565b6127c790919063ffffffff16565b90506124806064612472838960a0015161279390919063ffffffff16565b6127c790919063ffffffff16565b9350505050612692565b600282141561256057600060096000868152602001908152602001600020600084815260200190815260200160002060008773ffffffffffffffffffffffffffffffffffffffff1673ffffffffffffffffffffffffffffffffffffffff168152602001908152602001600020549050600084608001519050600061252a8261251c60648661279390919063ffffffff16565b6127c790919063ffffffff16565b90506125566064612548838960a0015161279390919063ffffffff16565b6127c790919063ffffffff16565b9350505050612691565b60006009600086815260200190815260200160002060006007600088815260200190815260200160002060008973ffffffffffffffffffffffffffffffffffffffff1673ffffffffffffffffffffffffffffffffffffffff16815260200190815260200160002060009054906101000a900460ff1660028111156125e057fe5b815260200190815260200160002060008773ffffffffffffffffffffffffffffffffffffffff1673ffffffffffffffffffffffffffffffffffffffff16815260200190815260200160002054905060008460a001519050600061265f8261265160648661279390919063ffffffff16565b6127c790919063ffffffff16565b905061268b606461267d838960a0015161279390919063ffffffff16565b6127c790919063ffffffff16565b93505050505b5b6126e481600a60008873ffffffffffffffffffffffffffffffffffffffff1673ffffffffffffffffffffffffffffffffffffffff1681526020019081526020016000205461220b90919063ffffffff16565b600a60008773ffffffffffffffffffffffffffffffffffffffff1673ffffffffffffffffffffffffffffffffffffffff1681526020019081526020016000208190555060096000858152602001908152602001600020600083815260200190815260200160002060008673ffffffffffffffffffffffffffffffffffffffff1673ffffffffffffffffffffffffffffffffffffffff168152602001908152602001600020600090555050505050565b6000808314156127a657600090506127c1565b8183029050818382816127b557fe5b04146127bd57fe5b8090505b92915050565b60008183816127d257fe5b04905092915050565b60405180610100016040528060008152602001600073ffffffffffffffffffffffffffffffffffffffff1681526020016060815260200160008152602001600081526020016000815260200160008152602001600081525090565b508054600082559060005260206000209081019061285491906128d7565b50565b828054600181600116156101000203166002900490600052602060002090601f016020900481019282601f1061289857805160ff19168380011785556128c6565b828001600101855582156128c6579182015b828111156128c55782518255916020019190600101906128aa565b5b5090506128d391906128d7565b5090565b6128f991905b808211156128f55760008160009055506001016128dd565b5090565b9056fe4465706f73697420646f6573206e6f74206d65657420746865206d696e696d756d20726571756972656d656e744465706f73697420657863656564656420746865206d6178696d756d20616d6f756e74a265627a7a72315820b7e65ece2da4fd9f0f82e8aa58a5ad6c588cf2bc81dc2758b8985e775764183964736f6c63430005100032",
  "source": "// Contract where users submit a proposal and cast votes, using staked ether.\n\npragma solidity ^0.5.0;\n\nimport \"./lib/SafeMath.sol\";\n\ncontract Vote {\n    \n    using SafeMath for uint256;\n    address public admin;\n\n    constructor() public {\n        admin = msg.sender;\n    }\n\n    /**\n     * This struct defines the Proposal object.\n     * @param id - Unique identifier for the proposal.\n     * @param proposer - The address created the proposal.\n     * @param title - The description of the proposal.\n     * @param yay_count - Count votes in proportion to their deposit eth amount for the proposal.\n     * @param nay_count - Count votes in proportion to their deposit eth amount against the proposal.\n     * @param deposit_balance - The total amount of ETH deposited for the proposal.\n     * @param begin_block_number - The block number when the proposal is created.\n     * @param end_block_number - The block number when the proposal becomes inactive.\n     */\n    struct Proposal {\n        uint256 id;\n        address proposer;\n        string title;\n        uint256 yay_count;\n        uint256 nay_count;\n        uint256 deposit_balance;\n        uint256 begin_block_number;\n        uint256 end_block_number;\n    }\n\n    enum Voter_Status {\n        UNDECIDED,\n        YAY,\n        NAY\n    }\n\n    // Proposal Variables\n    uint256 public total_proposals;\n    mapping (uint256 => Proposal) public Proposals; // Find the proposals with the given ID.\n    mapping (uint256 => uint256[]) public active_proposals; // block end number mapped to array of proposal ids.\n    uint256[] public inactiveIds; // track inactive proposals to claim eth.\n    uint256 public endProp_count; // counts the number of inactive proposals.\n\n    // Keep track of processed block number\n    uint lastBlockNumber;\n\n    // Votes variables\n    mapping (uint256 => mapping (address => Voter_Status)) internal addressToVote; // Show votes given by address and id.\n    mapping (uint256 => Voter_Status) public winVotes; // Proposal majority votes.\n\n    // Funds variables.\n    mapping (uint256 => mapping (uint => mapping (address => uint256))) internal votingStake; // Show the amount of eth staked for the vote\n    mapping (address => uint256) internal withdraw; // Keeping track of user withdrawable amount.\n\n    event Transfer(address indexed _from, address indexed _to, uint256 amount); // Transfer of ETH event.\n    event Voted(address indexed _voter, uint256 id, bool votesYay); // Users cast votes event.\n    event EndOfProposal(uint256 id); // Proposal ended event trigger.\n\n    /**\n     * @dev Modifier to be called periodically to detect proposals that are no longer active and call for the winner.\n     */\n    modifier checkWinner() {\n        // update proposals since last update to current block number.\n        uint256 current = block.number;\n        for (uint i = lastBlockNumber.add(1); i <= current; i++) {\n            uint256[] memory endProposalIds = active_proposals[i];\n            uint n = endProposalIds.length;\n            for (uint j = 0; j < n; j++) {\n                uint id = endProposalIds[j];\n                Proposal memory prop = Proposals[id];\n                if (prop.yay_count > prop.nay_count) {\n                    winVotes[id] = Voter_Status.YAY;\n                }\n                else if (prop.yay_count < prop.nay_count) {\n                    winVotes[id] = Voter_Status.NAY;\n                }\n                else {\n                    winVotes[id] = Voter_Status.UNDECIDED;\n                }\n                inactiveIds.push(id);\n                endProp_count = endProp_count.add(1);\n                emit EndOfProposal(id);\n            }\n            delete active_proposals[i];\n        }\n        lastBlockNumber = current;\n        _;\n    }\n\n    /** \n     * @dev Function to calculate earnings from winning proposals.\n     * @return The amount of eth withdrawable by the winner.\n     */\n    function earnedEth(address _winner, uint256 id) internal {\n        Proposal memory prop = Proposals[id];\n        uint wonVote = uint(winVotes[id]);\n        uint earned;\n        if (wonVote == 1) {\n            uint stake = votingStake[id][wonVote][_winner];\n            uint total = prop.yay_count;\n            uint percent = stake.mul(100).div(total);\n            earned = prop.deposit_balance.mul(percent).div(100);\n        } else if (wonVote == 2) {\n            uint stake = votingStake[id][wonVote][_winner];\n            uint total = prop.nay_count;\n            uint percent = stake.mul(100).div(total);\n            earned = prop.deposit_balance.mul(percent).div(100);\n        } else {\n            uint stake = votingStake[id][uint(addressToVote[id][_winner])][_winner];\n            uint total = prop.deposit_balance;\n            uint percent = stake.mul(100).div(total);\n            earned = prop.deposit_balance.mul(percent).div(100);\n        }\n        withdraw[_winner] = withdraw[_winner].add(earned);\n        delete votingStake[id][wonVote][_winner];\n    }\n\n    /**\n     * @dev Function to create a proposal, requires a minimum deposit amount of 0.001 ETH.\n     * @return The proposal id\n     */\n    function create(string memory title, uint endOffset) public payable checkWinner() returns(uint256) {\n        require(msg.value >= 0.001 ether, \"Deposit does not meet the minimum requirement\");\n        require(endOffset > 0, \"End block number undefined\");\n\n        uint id = total_proposals.add(1);\n        total_proposals = id;\n        uint endBlock = block.number.add(endOffset);\n        Proposal memory newProposal = Proposal(id, msg.sender, title, msg.value, 0, msg.value, block.number, endBlock);\n        Proposals[total_proposals] = newProposal;\n        active_proposals[newProposal.end_block_number].push(id);\n\n        // Proposer votes yay by default.\n        addressToVote[id][msg.sender] = Voter_Status.YAY;\n        votingStake[id][uint(Voter_Status.YAY)][msg.sender] = msg.value;\n\n        emit Transfer(msg.sender, address(this), msg.value);\n        emit Voted(msg.sender, id, true);\n\n        return id;\n    }\n\n    /**\n     * @dev Function to vote on a proposal.\n     */\n    function vote(uint256 id, bool votesYay) public payable checkWinner() returns(bool success) {\n        require(id <= total_proposals, \"Invalid proposal\");\n        require(addressToVote[id][msg.sender] == Voter_Status.UNDECIDED, \"Can not vote twice\");\n        Proposal storage proposal = Proposals[id];\n        require(proposal.end_block_number > block.number, \"Proposal is no longer active\");\n        require(msg.value >= 0.001 ether, \"Deposit does not meet the minimum requirement\");\n        uint maximum = votingStake[id][uint(Voter_Status.YAY)][proposal.proposer].mul(90).div(100); // voters can only deposit 90% of the proposer's amount at most -- prevention of whales.\n        require(msg.value <= maximum, \"Deposit exceeded the maximum amount\");\n\n        proposal.deposit_balance = proposal.deposit_balance.add(msg.value);\n\n        if (votesYay) {\n            addressToVote[id][msg.sender] = Voter_Status.YAY;\n            votingStake[id][uint(Voter_Status.YAY)][msg.sender] = msg.value;\n            proposal.yay_count = proposal.yay_count.add(msg.value);\n        }\n        else {\n            addressToVote[id][msg.sender] = Voter_Status.NAY;\n            votingStake[id][uint(Voter_Status.NAY)][msg.sender] = msg.value;\n            proposal.nay_count = proposal.nay_count.add(msg.value);\n        }\n\n        emit Transfer(msg.sender, address(this), msg.value);\n        emit Voted(msg.sender, id, votesYay);\n\n        return true;\n    }\n\n    /**\n     * @dev User-callable function to find out their withdrawable amount.\n     */\n    function get_withdraw() public view returns(uint256) {\n        return withdraw[msg.sender];\n    }\n\n    /**\n     * @dev User-callable function to update their withdrawable earnings.\n     */\n    function updateEthEarned() public checkWinner() returns(uint256) {\n        for (uint i = 0; i < inactiveIds.length; i++) {\n            earnedEth(msg.sender, inactiveIds[i]);\n        }\n        return get_withdraw();\n    }\n\n    /**\n     * @dev Function for users to withdraw all of their eth.\n     */\n    function withdrawEth() public payable checkWinner() returns(bool success) {\n        uint withdrawBal = withdraw[msg.sender];\n        require(withdrawBal > 0, \"No funds available to withdraw\");\n\n        msg.sender.transfer(withdrawBal);\n        delete withdraw[msg.sender];\n\n        emit Transfer(address(this), msg.sender, withdrawBal);\n\n        return true;\n    }\n\n}",
  "sourcePath": "/mnt/d/Coding Assignment-Advanca/advanca_voting_dApp/src/contracts/Vote.sol",
  "compiler": {
    "name": "solc",
    "version": "0.5.16+commit.9c3226ce.Emscripten.clang"
  },
  "schemaVersion": "3.3.2",
  "updatedAt": "2021-03-12T15:49:08.760Z",
  "devdoc": {
    "methods": {
      "create(string,uint256)": {
        "details": "Function to create a proposal, requires a minimum deposit amount of 0.001 ETH.",
        "return": "The proposal id"
      },
      "get_withdraw()": {
        "details": "User-callable function to find out their withdrawable amount."
      },
      "updateEthEarned()": {
        "details": "User-callable function to update their withdrawable earnings."
      },
      "vote(uint256,bool)": {
        "details": "Function to vote on a proposal."
      },
      "withdrawEth()": {
        "details": "Function for users to withdraw all of their eth."
      }
    }
  },
  "userdoc": {
    "methods": {}
  }
}